{
	"MultiSigWallet-2/MultiSigWallet.sol": {
		"MultiSigWallet": {
			"abi": [
				{
					"inputs": [
						{
							"internalType": "address[]",
							"name": "_proposerList",
							"type": "address[]"
						}
					],
					"payable": false,
					"stateMutability": "nonpayable",
					"type": "constructor"
				},
				{
					"payable": true,
					"stateMutability": "payable",
					"type": "fallback"
				},
				{
					"constant": false,
					"inputs": [
						{
							"internalType": "address",
							"name": "_newOwner",
							"type": "address"
						}
					],
					"name": "addProposer",
					"outputs": [],
					"payable": false,
					"stateMutability": "nonpayable",
					"type": "function"
				},
				{
					"constant": false,
					"inputs": [
						{
							"internalType": "uint256",
							"name": "_txId",
							"type": "uint256"
						}
					],
					"name": "approve",
					"outputs": [],
					"payable": false,
					"stateMutability": "nonpayable",
					"type": "function"
				},
				{
					"constant": false,
					"inputs": [
						{
							"internalType": "address",
							"name": "_deletedOwner",
							"type": "address"
						}
					],
					"name": "deleteProposer",
					"outputs": [],
					"payable": false,
					"stateMutability": "nonpayable",
					"type": "function"
				},
				{
					"constant": false,
					"inputs": [],
					"name": "deposit",
					"outputs": [],
					"payable": true,
					"stateMutability": "payable",
					"type": "function"
				},
				{
					"constant": false,
					"inputs": [
						{
							"internalType": "uint256",
							"name": "_txIndex",
							"type": "uint256"
						}
					],
					"name": "excute",
					"outputs": [],
					"payable": false,
					"stateMutability": "nonpayable",
					"type": "function"
				},
				{
					"constant": false,
					"inputs": [
						{
							"internalType": "uint256",
							"name": "_txId",
							"type": "uint256"
						}
					],
					"name": "putToDeath",
					"outputs": [],
					"payable": false,
					"stateMutability": "nonpayable",
					"type": "function"
				},
				{
					"constant": false,
					"inputs": [
						{
							"internalType": "address payable",
							"name": "_destination",
							"type": "address"
						},
						{
							"internalType": "bytes",
							"name": "_data",
							"type": "bytes"
						},
						{
							"internalType": "uint256",
							"name": "_value",
							"type": "uint256"
						}
					],
					"name": "submit",
					"outputs": [],
					"payable": false,
					"stateMutability": "nonpayable",
					"type": "function"
				},
				{
					"constant": false,
					"inputs": [
						{
							"internalType": "address payable",
							"name": "_destination",
							"type": "address"
						},
						{
							"internalType": "bytes",
							"name": "_data",
							"type": "bytes"
						},
						{
							"internalType": "uint256",
							"name": "_value",
							"type": "uint256"
						}
					],
					"name": "submitByMaster",
					"outputs": [],
					"payable": false,
					"stateMutability": "nonpayable",
					"type": "function"
				},
				{
					"constant": true,
					"inputs": [
						{
							"internalType": "uint256",
							"name": "",
							"type": "uint256"
						}
					],
					"name": "transactions",
					"outputs": [
						{
							"internalType": "address payable",
							"name": "destination",
							"type": "address"
						},
						{
							"internalType": "uint256",
							"name": "value",
							"type": "uint256"
						},
						{
							"internalType": "bytes",
							"name": "data",
							"type": "bytes"
						},
						{
							"internalType": "bool",
							"name": "executed",
							"type": "bool"
						}
					],
					"payable": false,
					"stateMutability": "view",
					"type": "function"
				},
				{
					"constant": true,
					"inputs": [],
					"name": "viewTotalTransactions",
					"outputs": [
						{
							"components": [
								{
									"internalType": "address payable",
									"name": "destination",
									"type": "address"
								},
								{
									"internalType": "uint256",
									"name": "value",
									"type": "uint256"
								},
								{
									"internalType": "bytes",
									"name": "data",
									"type": "bytes"
								},
								{
									"internalType": "bool",
									"name": "executed",
									"type": "bool"
								}
							],
							"internalType": "struct MultiSigWallet.Transaction[]",
							"name": "",
							"type": "tuple[]"
						}
					],
					"payable": false,
					"stateMutability": "view",
					"type": "function"
				},
				{
					"constant": true,
					"inputs": [
						{
							"internalType": "uint256",
							"name": "_txIndex",
							"type": "uint256"
						}
					],
					"name": "viewTransaction",
					"outputs": [
						{
							"components": [
								{
									"internalType": "address payable",
									"name": "destination",
									"type": "address"
								},
								{
									"internalType": "uint256",
									"name": "value",
									"type": "uint256"
								},
								{
									"internalType": "bytes",
									"name": "data",
									"type": "bytes"
								},
								{
									"internalType": "bool",
									"name": "executed",
									"type": "bool"
								}
							],
							"internalType": "struct MultiSigWallet.Transaction",
							"name": "",
							"type": "tuple"
						}
					],
					"payable": false,
					"stateMutability": "view",
					"type": "function"
				},
				{
					"constant": true,
					"inputs": [],
					"name": "viewbalance",
					"outputs": [
						{
							"internalType": "uint256",
							"name": "",
							"type": "uint256"
						}
					],
					"payable": false,
					"stateMutability": "view",
					"type": "function"
				}
			],
			"devdoc": {
				"methods": {}
			},
			"evm": {
				"assembly": "    /* \"MultiSigWallet-2/MultiSigWallet.sol\":59:6081  contract MultiSigWallet {... */\n  mstore(0x40, 0x80)\n    /* \"MultiSigWallet-2/MultiSigWallet.sol\":1716:2120  constructor(address[] memory _proposerList) public {... */\n  callvalue\n    /* \"--CODEGEN--\":8:17   */\n  dup1\n    /* \"--CODEGEN--\":5:7   */\n  iszero\n  tag_1\n  jumpi\n    /* \"--CODEGEN--\":30:31   */\n  0x00\n    /* \"--CODEGEN--\":27:28   */\n  dup1\n    /* \"--CODEGEN--\":20:32   */\n  revert\n    /* \"--CODEGEN--\":5:7   */\ntag_1:\n    /* \"MultiSigWallet-2/MultiSigWallet.sol\":1716:2120  constructor(address[] memory _proposerList) public {... */\n  pop\n  mload(0x40)\n  sub(codesize, bytecodeSize)\n  dup1\n  bytecodeSize\n  dup4\n  codecopy\n  dup2\n  dup2\n  add\n  0x40\n  mstore\n  tag_2\n  swap2\n  swap1\n  dup2\n  add\n  swap1\n  jump(tag_3)\ntag_2:\n    /* \"MultiSigWallet-2/MultiSigWallet.sol\":1782:1791  uint256 i */\n  0x00\n    /* \"MultiSigWallet-2/MultiSigWallet.sol\":1794:1795  0 */\n  dup1\n    /* \"MultiSigWallet-2/MultiSigWallet.sol\":1782:1795  uint256 i = 0 */\n  swap1\n  pop\n    /* \"MultiSigWallet-2/MultiSigWallet.sol\":1777:2045  for (uint256 i = 0; i < _proposerList.length; i++) {... */\ntag_6:\n    /* \"MultiSigWallet-2/MultiSigWallet.sol\":1801:1814  _proposerList */\n  dup2\n    /* \"MultiSigWallet-2/MultiSigWallet.sol\":1801:1821  _proposerList.length */\n  mload\n    /* \"MultiSigWallet-2/MultiSigWallet.sol\":1797:1798  i */\n  dup2\n    /* \"MultiSigWallet-2/MultiSigWallet.sol\":1797:1821  i < _proposerList.length */\n  lt\n    /* \"MultiSigWallet-2/MultiSigWallet.sol\":1777:2045  for (uint256 i = 0; i < _proposerList.length; i++) {... */\n  iszero\n  tag_7\n  jumpi\n    /* \"MultiSigWallet-2/MultiSigWallet.sol\":1868:1876  proposer */\n  0x00\n    /* \"MultiSigWallet-2/MultiSigWallet.sol\":1868:1894  proposer[_proposerList[i]] */\n  dup1\n    /* \"MultiSigWallet-2/MultiSigWallet.sol\":1877:1890  _proposerList */\n  dup4\n    /* \"MultiSigWallet-2/MultiSigWallet.sol\":1891:1892  i */\n  dup4\n    /* \"MultiSigWallet-2/MultiSigWallet.sol\":1877:1893  _proposerList[i] */\n  dup2\n  mload\n  dup2\n  lt\n  tag_9\n  jumpi\n  invalid\ntag_9:\n  0x20\n  mul\n  0x20\n  add\n  add\n  mload\n    /* \"MultiSigWallet-2/MultiSigWallet.sol\":1868:1894  proposer[_proposerList[i]] */\n  0xffffffffffffffffffffffffffffffffffffffff\n  and\n  0xffffffffffffffffffffffffffffffffffffffff\n  and\n  dup2\n  mstore\n  0x20\n  add\n  swap1\n  dup2\n  mstore\n  0x20\n  add\n  0x00\n  keccak256\n  0x00\n  swap1\n  sload\n  swap1\n  0x0100\n  exp\n  swap1\n  div\n  0xff\n  and\n    /* \"MultiSigWallet-2/MultiSigWallet.sol\":1867:1894  !proposer[_proposerList[i]] */\n  iszero\n    /* \"MultiSigWallet-2/MultiSigWallet.sol\":1867:1930  !proposer[_proposerList[i]] && _proposerList[i] != address(0x0) */\n  dup1\n  iszero\n  tag_10\n  jumpi\n  pop\n    /* \"MultiSigWallet-2/MultiSigWallet.sol\":1926:1929  0x0 */\n  0x00\n    /* \"MultiSigWallet-2/MultiSigWallet.sol\":1898:1930  _proposerList[i] != address(0x0) */\n  0xffffffffffffffffffffffffffffffffffffffff\n  and\n    /* \"MultiSigWallet-2/MultiSigWallet.sol\":1898:1911  _proposerList */\n  dup3\n    /* \"MultiSigWallet-2/MultiSigWallet.sol\":1912:1913  i */\n  dup3\n    /* \"MultiSigWallet-2/MultiSigWallet.sol\":1898:1914  _proposerList[i] */\n  dup2\n  mload\n  dup2\n  lt\n  tag_11\n  jumpi\n  invalid\ntag_11:\n  0x20\n  mul\n  0x20\n  add\n  add\n  mload\n    /* \"MultiSigWallet-2/MultiSigWallet.sol\":1898:1930  _proposerList[i] != address(0x0) */\n  0xffffffffffffffffffffffffffffffffffffffff\n  and\n  eq\n  iszero\n    /* \"MultiSigWallet-2/MultiSigWallet.sol\":1867:1930  !proposer[_proposerList[i]] && _proposerList[i] != address(0x0) */\ntag_10:\n    /* \"MultiSigWallet-2/MultiSigWallet.sol\":1842:1987  require(... */\n  tag_12\n  jumpi\n  mload(0x40)\n  0x08c379a000000000000000000000000000000000000000000000000000000000\n  dup2\n  mstore\n  0x04\n  add\n  tag_13\n  swap1\n  jump(tag_14)\ntag_13:\n  mload(0x40)\n  dup1\n  swap2\n  sub\n  swap1\n  revert\ntag_12:\n    /* \"MultiSigWallet-2/MultiSigWallet.sol\":2030:2034  true */\n  0x01\n    /* \"MultiSigWallet-2/MultiSigWallet.sol\":2001:2009  proposer */\n  0x00\n    /* \"MultiSigWallet-2/MultiSigWallet.sol\":2001:2027  proposer[_proposerList[i]] */\n  dup1\n    /* \"MultiSigWallet-2/MultiSigWallet.sol\":2010:2023  _proposerList */\n  dup5\n    /* \"MultiSigWallet-2/MultiSigWallet.sol\":2024:2025  i */\n  dup5\n    /* \"MultiSigWallet-2/MultiSigWallet.sol\":2010:2026  _proposerList[i] */\n  dup2\n  mload\n  dup2\n  lt\n  tag_15\n  jumpi\n  invalid\ntag_15:\n  0x20\n  mul\n  0x20\n  add\n  add\n  mload\n    /* \"MultiSigWallet-2/MultiSigWallet.sol\":2001:2027  proposer[_proposerList[i]] */\n  0xffffffffffffffffffffffffffffffffffffffff\n  and\n  0xffffffffffffffffffffffffffffffffffffffff\n  and\n  dup2\n  mstore\n  0x20\n  add\n  swap1\n  dup2\n  mstore\n  0x20\n  add\n  0x00\n  keccak256\n  0x00\n    /* \"MultiSigWallet-2/MultiSigWallet.sol\":2001:2034  proposer[_proposerList[i]] = true */\n  0x0100\n  exp\n  dup2\n  sload\n  dup2\n  0xff\n  mul\n  not\n  and\n  swap1\n  dup4\n  iszero\n  iszero\n  mul\n  or\n  swap1\n  sstore\n  pop\n    /* \"MultiSigWallet-2/MultiSigWallet.sol\":1823:1826  i++ */\n  dup1\n  dup1\n  0x01\n  add\n  swap2\n  pop\n  pop\n    /* \"MultiSigWallet-2/MultiSigWallet.sol\":1777:2045  for (uint256 i = 0; i < _proposerList.length; i++) {... */\n  jump(tag_6)\ntag_7:\n  pop\n    /* \"MultiSigWallet-2/MultiSigWallet.sol\":2071:2084  _proposerList */\n  dup1\n    /* \"MultiSigWallet-2/MultiSigWallet.sol\":2055:2068  totalProposer */\n  0x02\n    /* \"MultiSigWallet-2/MultiSigWallet.sol\":2055:2084  totalProposer = _proposerList */\n  swap1\n  dup1\n  mload\n  swap1\n  0x20\n  add\n  swap1\n  tag_16\n  swap3\n  swap2\n  swap1\n  tag_17\n  jump\t// in\ntag_16:\n  pop\n    /* \"MultiSigWallet-2/MultiSigWallet.sol\":2103:2113  msg.sender */\n  caller\n    /* \"MultiSigWallet-2/MultiSigWallet.sol\":2094:2100  master */\n  0x03\n  0x00\n    /* \"MultiSigWallet-2/MultiSigWallet.sol\":2094:2113  master = msg.sender */\n  0x0100\n  exp\n  dup2\n  sload\n  dup2\n  0xffffffffffffffffffffffffffffffffffffffff\n  mul\n  not\n  and\n  swap1\n  dup4\n  0xffffffffffffffffffffffffffffffffffffffff\n  and\n  mul\n  or\n  swap1\n  sstore\n  pop\n    /* \"MultiSigWallet-2/MultiSigWallet.sol\":1716:2120  constructor(address[] memory _proposerList) public {... */\n  pop\n    /* \"MultiSigWallet-2/MultiSigWallet.sol\":59:6081  contract MultiSigWallet {... */\n  jump(tag_18)\ntag_17:\n  dup3\n  dup1\n  sload\n  dup3\n  dup3\n  sstore\n  swap1\n  0x00\n  mstore\n  keccak256(0x00, 0x20)\n  swap1\n  dup2\n  add\n  swap3\n  dup3\n  iszero\n  tag_19\n  jumpi\n  swap2\n  0x20\n  mul\n  dup3\n  add\ntag_20:\n  dup3\n  dup2\n  gt\n  iszero\n  tag_21\n  jumpi\n  dup3\n  mload\n  dup3\n  exp(0x0100, 0x00)\n  dup2\n  sload\n  dup2\n  0xffffffffffffffffffffffffffffffffffffffff\n  mul\n  not\n  and\n  swap1\n  dup4\n  0xffffffffffffffffffffffffffffffffffffffff\n  and\n  mul\n  or\n  swap1\n  sstore\n  pop\n  swap2\n  0x20\n  add\n  swap2\n  swap1\n  0x01\n  add\n  swap1\n  jump(tag_20)\ntag_21:\ntag_19:\n  pop\n  swap1\n  pop\n  tag_22\n  swap2\n  swap1\n  tag_23\n  jump\t// in\ntag_22:\n  pop\n  swap1\n  jump\t// out\ntag_23:\n  tag_24\n  swap2\n  swap1\ntag_25:\n  dup1\n  dup3\n  gt\n  iszero\n  tag_26\n  jumpi\n  0x00\n  dup2\n  dup2\n  0x0100\n  exp\n  dup2\n  sload\n  swap1\n  0xffffffffffffffffffffffffffffffffffffffff\n  mul\n  not\n  and\n  swap1\n  sstore\n  pop\n  0x01\n  add\n  jump(tag_25)\ntag_26:\n  pop\n  swap1\n  jump\ntag_24:\n  swap1\n  jump\t// out\n    /* \"--CODEGEN--\":5:139   */\ntag_28:\n  0x00\n    /* \"--CODEGEN--\":89:95   */\n  dup2\n    /* \"--CODEGEN--\":83:96   */\n  mload\n    /* \"--CODEGEN--\":74:96   */\n  swap1\n  pop\n    /* \"--CODEGEN--\":101:134   */\n  tag_29\n    /* \"--CODEGEN--\":128:133   */\n  dup2\n    /* \"--CODEGEN--\":101:134   */\n  jump(tag_30)\ntag_29:\n    /* \"--CODEGEN--\":68:139   */\n  swap3\n  swap2\n  pop\n  pop\n  jump\n    /* \"--CODEGEN--\":164:886   */\ntag_31:\n  0x00\n    /* \"--CODEGEN--\":292:295   */\n  dup3\n    /* \"--CODEGEN--\":285:289   */\n  0x1f\n    /* \"--CODEGEN--\":277:283   */\n  dup4\n    /* \"--CODEGEN--\":273:290   */\n  add\n    /* \"--CODEGEN--\":269:296   */\n  slt\n    /* \"--CODEGEN--\":259:261   */\n  tag_32\n  jumpi\n    /* \"--CODEGEN--\":310:311   */\n  0x00\n    /* \"--CODEGEN--\":307:308   */\n  dup1\n    /* \"--CODEGEN--\":300:312   */\n  revert\n    /* \"--CODEGEN--\":259:261   */\ntag_32:\n    /* \"--CODEGEN--\":340:346   */\n  dup2\n    /* \"--CODEGEN--\":334:347   */\n  mload\n    /* \"--CODEGEN--\":362:442   */\n  tag_33\n    /* \"--CODEGEN--\":377:441   */\n  tag_34\n    /* \"--CODEGEN--\":434:440   */\n  dup3\n    /* \"--CODEGEN--\":377:441   */\n  jump(tag_35)\ntag_34:\n    /* \"--CODEGEN--\":362:442   */\n  jump(tag_36)\ntag_33:\n    /* \"--CODEGEN--\":353:442   */\n  swap2\n  pop\n    /* \"--CODEGEN--\":459:464   */\n  dup2\n    /* \"--CODEGEN--\":484:490   */\n  dup2\n    /* \"--CODEGEN--\":477:482   */\n  dup4\n    /* \"--CODEGEN--\":470:491   */\n  mstore\n    /* \"--CODEGEN--\":514:518   */\n  0x20\n    /* \"--CODEGEN--\":506:512   */\n  dup5\n    /* \"--CODEGEN--\":502:519   */\n  add\n    /* \"--CODEGEN--\":492:519   */\n  swap4\n  pop\n    /* \"--CODEGEN--\":536:540   */\n  0x20\n    /* \"--CODEGEN--\":531:534   */\n  dup2\n    /* \"--CODEGEN--\":527:541   */\n  add\n    /* \"--CODEGEN--\":520:541   */\n  swap1\n  pop\n    /* \"--CODEGEN--\":589:595   */\n  dup4\n    /* \"--CODEGEN--\":636:639   */\n  dup6\n    /* \"--CODEGEN--\":628:632   */\n  0x20\n    /* \"--CODEGEN--\":620:626   */\n  dup5\n    /* \"--CODEGEN--\":616:633   */\n  mul\n    /* \"--CODEGEN--\":611:614   */\n  dup3\n    /* \"--CODEGEN--\":607:634   */\n  add\n    /* \"--CODEGEN--\":604:640   */\n  gt\n    /* \"--CODEGEN--\":601:603   */\n  iszero\n  tag_37\n  jumpi\n    /* \"--CODEGEN--\":653:654   */\n  0x00\n    /* \"--CODEGEN--\":650:651   */\n  dup1\n    /* \"--CODEGEN--\":643:655   */\n  revert\n    /* \"--CODEGEN--\":601:603   */\ntag_37:\n    /* \"--CODEGEN--\":678:679   */\n  0x00\n    /* \"--CODEGEN--\":663:880   */\ntag_38:\n    /* \"--CODEGEN--\":688:694   */\n  dup4\n    /* \"--CODEGEN--\":685:686   */\n  dup2\n    /* \"--CODEGEN--\":682:695   */\n  lt\n    /* \"--CODEGEN--\":663:880   */\n  iszero\n  tag_40\n  jumpi\n    /* \"--CODEGEN--\":746:749   */\n  dup2\n    /* \"--CODEGEN--\":768:816   */\n  tag_41\n    /* \"--CODEGEN--\":812:815   */\n  dup9\n    /* \"--CODEGEN--\":800:810   */\n  dup3\n    /* \"--CODEGEN--\":768:816   */\n  jump(tag_28)\ntag_41:\n    /* \"--CODEGEN--\":763:766   */\n  dup5\n    /* \"--CODEGEN--\":756:817   */\n  mstore\n    /* \"--CODEGEN--\":840:844   */\n  0x20\n    /* \"--CODEGEN--\":835:838   */\n  dup5\n    /* \"--CODEGEN--\":831:845   */\n  add\n    /* \"--CODEGEN--\":824:845   */\n  swap4\n  pop\n    /* \"--CODEGEN--\":868:872   */\n  0x20\n    /* \"--CODEGEN--\":863:866   */\n  dup4\n    /* \"--CODEGEN--\":859:873   */\n  add\n    /* \"--CODEGEN--\":852:873   */\n  swap3\n  pop\n    /* \"--CODEGEN--\":720:880   */\n  pop\n    /* \"--CODEGEN--\":710:711   */\n  0x01\n    /* \"--CODEGEN--\":707:708   */\n  dup2\n    /* \"--CODEGEN--\":703:712   */\n  add\n    /* \"--CODEGEN--\":698:712   */\n  swap1\n  pop\n    /* \"--CODEGEN--\":663:880   */\n  jump(tag_38)\ntag_40:\n    /* \"--CODEGEN--\":667:681   */\n  pop\n    /* \"--CODEGEN--\":252:886   */\n  pop\n  pop\n  pop\n  swap3\n  swap2\n  pop\n  pop\n  jump\n    /* \"--CODEGEN--\":894:1286   */\ntag_3:\n  0x00\n    /* \"--CODEGEN--\":1034:1036   */\n  0x20\n    /* \"--CODEGEN--\":1022:1031   */\n  dup3\n    /* \"--CODEGEN--\":1013:1020   */\n  dup5\n    /* \"--CODEGEN--\":1009:1032   */\n  sub\n    /* \"--CODEGEN--\":1005:1037   */\n  slt\n    /* \"--CODEGEN--\":1002:1004   */\n  iszero\n  tag_42\n  jumpi\n    /* \"--CODEGEN--\":1050:1051   */\n  0x00\n    /* \"--CODEGEN--\":1047:1048   */\n  dup1\n    /* \"--CODEGEN--\":1040:1052   */\n  revert\n    /* \"--CODEGEN--\":1002:1004   */\ntag_42:\n    /* \"--CODEGEN--\":1106:1107   */\n  0x00\n    /* \"--CODEGEN--\":1095:1104   */\n  dup3\n    /* \"--CODEGEN--\":1091:1108   */\n  add\n    /* \"--CODEGEN--\":1085:1109   */\n  mload\n    /* \"--CODEGEN--\":1129:1147   */\n  0xffffffffffffffff\n    /* \"--CODEGEN--\":1121:1127   */\n  dup2\n    /* \"--CODEGEN--\":1118:1148   */\n  gt\n    /* \"--CODEGEN--\":1115:1117   */\n  iszero\n  tag_43\n  jumpi\n    /* \"--CODEGEN--\":1161:1162   */\n  0x00\n    /* \"--CODEGEN--\":1158:1159   */\n  dup1\n    /* \"--CODEGEN--\":1151:1163   */\n  revert\n    /* \"--CODEGEN--\":1115:1117   */\ntag_43:\n    /* \"--CODEGEN--\":1181:1270   */\n  tag_44\n    /* \"--CODEGEN--\":1262:1269   */\n  dup5\n    /* \"--CODEGEN--\":1253:1259   */\n  dup3\n    /* \"--CODEGEN--\":1242:1251   */\n  dup6\n    /* \"--CODEGEN--\":1238:1260   */\n  add\n    /* \"--CODEGEN--\":1181:1270   */\n  jump(tag_31)\ntag_44:\n    /* \"--CODEGEN--\":1171:1270   */\n  swap2\n  pop\n    /* \"--CODEGEN--\":1064:1276   */\n  pop\n    /* \"--CODEGEN--\":996:1286   */\n  swap3\n  swap2\n  pop\n  pop\n  jump\n    /* \"--CODEGEN--\":1294:1617   */\ntag_45:\n  0x00\n    /* \"--CODEGEN--\":1454:1521   */\n  tag_46\n    /* \"--CODEGEN--\":1518:1520   */\n  0x17\n    /* \"--CODEGEN--\":1513:1516   */\n  dup4\n    /* \"--CODEGEN--\":1454:1521   */\n  jump(tag_47)\ntag_46:\n    /* \"--CODEGEN--\":1447:1521   */\n  swap2\n  pop\n    /* \"--CODEGEN--\":1554:1579   */\n  0x4572726f72203a206f776e65724c697374204572726f72000000000000000000\n    /* \"--CODEGEN--\":1550:1551   */\n  0x00\n    /* \"--CODEGEN--\":1545:1548   */\n  dup4\n    /* \"--CODEGEN--\":1541:1552   */\n  add\n    /* \"--CODEGEN--\":1534:1580   */\n  mstore\n    /* \"--CODEGEN--\":1608:1610   */\n  0x20\n    /* \"--CODEGEN--\":1603:1606   */\n  dup3\n    /* \"--CODEGEN--\":1599:1611   */\n  add\n    /* \"--CODEGEN--\":1592:1611   */\n  swap1\n  pop\n    /* \"--CODEGEN--\":1440:1617   */\n  swap2\n  swap1\n  pop\n  jump\n    /* \"--CODEGEN--\":1625:2032   */\ntag_14:\n  0x00\n    /* \"--CODEGEN--\":1816:1818   */\n  0x20\n    /* \"--CODEGEN--\":1805:1814   */\n  dup3\n    /* \"--CODEGEN--\":1801:1819   */\n  add\n    /* \"--CODEGEN--\":1793:1819   */\n  swap1\n  pop\n    /* \"--CODEGEN--\":1866:1875   */\n  dup2\n    /* \"--CODEGEN--\":1860:1864   */\n  dup2\n    /* \"--CODEGEN--\":1856:1876   */\n  sub\n    /* \"--CODEGEN--\":1852:1853   */\n  0x00\n    /* \"--CODEGEN--\":1841:1850   */\n  dup4\n    /* \"--CODEGEN--\":1837:1854   */\n  add\n    /* \"--CODEGEN--\":1830:1877   */\n  mstore\n    /* \"--CODEGEN--\":1891:2022   */\n  tag_48\n    /* \"--CODEGEN--\":2017:2021   */\n  dup2\n    /* \"--CODEGEN--\":1891:2022   */\n  jump(tag_45)\ntag_48:\n    /* \"--CODEGEN--\":1883:2022   */\n  swap1\n  pop\n    /* \"--CODEGEN--\":1787:2032   */\n  swap2\n  swap1\n  pop\n  jump\n    /* \"--CODEGEN--\":2039:2295   */\ntag_36:\n  0x00\n    /* \"--CODEGEN--\":2101:2103   */\n  0x40\n    /* \"--CODEGEN--\":2095:2104   */\n  mload\n    /* \"--CODEGEN--\":2085:2104   */\n  swap1\n  pop\n    /* \"--CODEGEN--\":2139:2143   */\n  dup2\n    /* \"--CODEGEN--\":2131:2137   */\n  dup2\n    /* \"--CODEGEN--\":2127:2144   */\n  add\n    /* \"--CODEGEN--\":2238:2244   */\n  dup2\n    /* \"--CODEGEN--\":2226:2236   */\n  dup2\n    /* \"--CODEGEN--\":2223:2245   */\n  lt\n    /* \"--CODEGEN--\":2202:2220   */\n  0xffffffffffffffff\n    /* \"--CODEGEN--\":2190:2200   */\n  dup3\n    /* \"--CODEGEN--\":2187:2221   */\n  gt\n    /* \"--CODEGEN--\":2184:2246   */\n  or\n    /* \"--CODEGEN--\":2181:2183   */\n  iszero\n  tag_49\n  jumpi\n    /* \"--CODEGEN--\":2259:2260   */\n  0x00\n    /* \"--CODEGEN--\":2256:2257   */\n  dup1\n    /* \"--CODEGEN--\":2249:2261   */\n  revert\n    /* \"--CODEGEN--\":2181:2183   */\ntag_49:\n    /* \"--CODEGEN--\":2279:2289   */\n  dup1\n    /* \"--CODEGEN--\":2275:2277   */\n  0x40\n    /* \"--CODEGEN--\":2268:2290   */\n  mstore\n    /* \"--CODEGEN--\":2079:2295   */\n  pop\n  swap2\n  swap1\n  pop\n  jump\n    /* \"--CODEGEN--\":2302:2606   */\ntag_35:\n  0x00\n    /* \"--CODEGEN--\":2461:2479   */\n  0xffffffffffffffff\n    /* \"--CODEGEN--\":2453:2459   */\n  dup3\n    /* \"--CODEGEN--\":2450:2480   */\n  gt\n    /* \"--CODEGEN--\":2447:2449   */\n  iszero\n  tag_50\n  jumpi\n    /* \"--CODEGEN--\":2493:2494   */\n  0x00\n    /* \"--CODEGEN--\":2490:2491   */\n  dup1\n    /* \"--CODEGEN--\":2483:2495   */\n  revert\n    /* \"--CODEGEN--\":2447:2449   */\ntag_50:\n    /* \"--CODEGEN--\":2528:2532   */\n  0x20\n    /* \"--CODEGEN--\":2520:2526   */\n  dup3\n    /* \"--CODEGEN--\":2516:2533   */\n  mul\n    /* \"--CODEGEN--\":2508:2533   */\n  swap1\n  pop\n    /* \"--CODEGEN--\":2591:2595   */\n  0x20\n    /* \"--CODEGEN--\":2585:2589   */\n  dup2\n    /* \"--CODEGEN--\":2581:2596   */\n  add\n    /* \"--CODEGEN--\":2573:2596   */\n  swap1\n  pop\n    /* \"--CODEGEN--\":2384:2606   */\n  swap2\n  swap1\n  pop\n  jump\n    /* \"--CODEGEN--\":2614:2777   */\ntag_47:\n  0x00\n    /* \"--CODEGEN--\":2729:2735   */\n  dup3\n    /* \"--CODEGEN--\":2724:2727   */\n  dup3\n    /* \"--CODEGEN--\":2717:2736   */\n  mstore\n    /* \"--CODEGEN--\":2766:2770   */\n  0x20\n    /* \"--CODEGEN--\":2761:2764   */\n  dup3\n    /* \"--CODEGEN--\":2757:2771   */\n  add\n    /* \"--CODEGEN--\":2742:2771   */\n  swap1\n  pop\n    /* \"--CODEGEN--\":2710:2777   */\n  swap3\n  swap2\n  pop\n  pop\n  jump\n    /* \"--CODEGEN--\":2785:2876   */\ntag_51:\n  0x00\n    /* \"--CODEGEN--\":2847:2871   */\n  tag_52\n    /* \"--CODEGEN--\":2865:2870   */\n  dup3\n    /* \"--CODEGEN--\":2847:2871   */\n  jump(tag_53)\ntag_52:\n    /* \"--CODEGEN--\":2836:2871   */\n  swap1\n  pop\n    /* \"--CODEGEN--\":2830:2876   */\n  swap2\n  swap1\n  pop\n  jump\n    /* \"--CODEGEN--\":2883:3004   */\ntag_53:\n  0x00\n    /* \"--CODEGEN--\":2956:2998   */\n  0xffffffffffffffffffffffffffffffffffffffff\n    /* \"--CODEGEN--\":2949:2954   */\n  dup3\n    /* \"--CODEGEN--\":2945:2999   */\n  and\n    /* \"--CODEGEN--\":2934:2999   */\n  swap1\n  pop\n    /* \"--CODEGEN--\":2928:3004   */\n  swap2\n  swap1\n  pop\n  jump\n    /* \"--CODEGEN--\":3011:3128   */\ntag_30:\n    /* \"--CODEGEN--\":3080:3104   */\n  tag_54\n    /* \"--CODEGEN--\":3098:3103   */\n  dup2\n    /* \"--CODEGEN--\":3080:3104   */\n  jump(tag_51)\ntag_54:\n    /* \"--CODEGEN--\":3073:3078   */\n  dup2\n    /* \"--CODEGEN--\":3070:3105   */\n  eq\n    /* \"--CODEGEN--\":3060:3062   */\n  tag_55\n  jumpi\n    /* \"--CODEGEN--\":3119:3120   */\n  0x00\n    /* \"--CODEGEN--\":3116:3117   */\n  dup1\n    /* \"--CODEGEN--\":3109:3121   */\n  revert\n    /* \"--CODEGEN--\":3060:3062   */\ntag_55:\n    /* \"--CODEGEN--\":3054:3128   */\n  pop\n  jump\n    /* \"MultiSigWallet-2/MultiSigWallet.sol\":59:6081  contract MultiSigWallet {... */\ntag_18:\n  dataSize(sub_0)\n  dup1\n  dataOffset(sub_0)\n  0x00\n  codecopy\n  0x00\n  return\nstop\n\nsub_0: assembly {\n        /* \"MultiSigWallet-2/MultiSigWallet.sol\":59:6081  contract MultiSigWallet {... */\n      mstore(0x40, 0x80)\n      jumpi(tag_1, lt(calldatasize, 0x04))\n      shr(0xe0, calldataload(0x00))\n      dup1\n      0xa96c065b\n      gt\n      tag_14\n      jumpi\n      dup1\n      0xa96c065b\n      eq\n      tag_8\n      jumpi\n      dup1\n      0xaf61ed3d\n      eq\n      tag_9\n      jumpi\n      dup1\n      0xb03cd418\n      eq\n      tag_10\n      jumpi\n      dup1\n      0xb759f954\n      eq\n      tag_11\n      jumpi\n      dup1\n      0xbbc07512\n      eq\n      tag_12\n      jumpi\n      dup1\n      0xd0e30db0\n      eq\n      tag_13\n      jumpi\n      jump(tag_1)\n    tag_14:\n      dup1\n      0x0b5917e2\n      eq\n      tag_2\n      jumpi\n      dup1\n      0x380496d6\n      eq\n      tag_3\n      jumpi\n      dup1\n      0x45673c11\n      eq\n      tag_4\n      jumpi\n      dup1\n      0x6f2d1bcb\n      eq\n      tag_5\n      jumpi\n      dup1\n      0x8916d12c\n      eq\n      tag_6\n      jumpi\n      dup1\n      0x9ace38c2\n      eq\n      tag_7\n      jumpi\n    tag_1:\n      stop\n        /* \"MultiSigWallet-2/MultiSigWallet.sol\":2617:3020  function submit(... */\n    tag_2:\n      callvalue\n        /* \"--CODEGEN--\":8:17   */\n      dup1\n        /* \"--CODEGEN--\":5:7   */\n      iszero\n      tag_17\n      jumpi\n        /* \"--CODEGEN--\":30:31   */\n      0x00\n        /* \"--CODEGEN--\":27:28   */\n      dup1\n        /* \"--CODEGEN--\":20:32   */\n      revert\n        /* \"--CODEGEN--\":5:7   */\n    tag_17:\n        /* \"MultiSigWallet-2/MultiSigWallet.sol\":2617:3020  function submit(... */\n      pop\n      tag_18\n      0x04\n      dup1\n      calldatasize\n      sub\n      tag_19\n      swap2\n      swap1\n      dup2\n      add\n      swap1\n      jump(tag_20)\n    tag_19:\n      tag_21\n      jump\t// in\n    tag_18:\n      stop\n        /* \"MultiSigWallet-2/MultiSigWallet.sol\":4190:4358  function putToDeath(uint256 _txId)... */\n    tag_3:\n      callvalue\n        /* \"--CODEGEN--\":8:17   */\n      dup1\n        /* \"--CODEGEN--\":5:7   */\n      iszero\n      tag_22\n      jumpi\n        /* \"--CODEGEN--\":30:31   */\n      0x00\n        /* \"--CODEGEN--\":27:28   */\n      dup1\n        /* \"--CODEGEN--\":20:32   */\n      revert\n        /* \"--CODEGEN--\":5:7   */\n    tag_22:\n        /* \"MultiSigWallet-2/MultiSigWallet.sol\":4190:4358  function putToDeath(uint256 _txId)... */\n      pop\n      tag_23\n      0x04\n      dup1\n      calldatasize\n      sub\n      tag_24\n      swap2\n      swap1\n      dup2\n      add\n      swap1\n      jump(tag_25)\n    tag_24:\n      tag_26\n      jump\t// in\n    tag_23:\n      stop\n        /* \"MultiSigWallet-2/MultiSigWallet.sol\":5831:5973  function viewTotalTransactions()... */\n    tag_4:\n      callvalue\n        /* \"--CODEGEN--\":8:17   */\n      dup1\n        /* \"--CODEGEN--\":5:7   */\n      iszero\n      tag_27\n      jumpi\n        /* \"--CODEGEN--\":30:31   */\n      0x00\n        /* \"--CODEGEN--\":27:28   */\n      dup1\n        /* \"--CODEGEN--\":20:32   */\n      revert\n        /* \"--CODEGEN--\":5:7   */\n    tag_27:\n        /* \"MultiSigWallet-2/MultiSigWallet.sol\":5831:5973  function viewTotalTransactions()... */\n      pop\n      tag_28\n      tag_29\n      jump\t// in\n    tag_28:\n      mload(0x40)\n      tag_30\n      swap2\n      swap1\n      jump(tag_31)\n    tag_30:\n      mload(0x40)\n      dup1\n      swap2\n      sub\n      swap1\n      return\n        /* \"MultiSigWallet-2/MultiSigWallet.sol\":2429:2611  function deleteProposer(address _deletedOwner) public onlyMaster {... */\n    tag_5:\n      callvalue\n        /* \"--CODEGEN--\":8:17   */\n      dup1\n        /* \"--CODEGEN--\":5:7   */\n      iszero\n      tag_32\n      jumpi\n        /* \"--CODEGEN--\":30:31   */\n      0x00\n        /* \"--CODEGEN--\":27:28   */\n      dup1\n        /* \"--CODEGEN--\":20:32   */\n      revert\n        /* \"--CODEGEN--\":5:7   */\n    tag_32:\n        /* \"MultiSigWallet-2/MultiSigWallet.sol\":2429:2611  function deleteProposer(address _deletedOwner) public onlyMaster {... */\n      pop\n      tag_33\n      0x04\n      dup1\n      calldatasize\n      sub\n      tag_34\n      swap2\n      swap1\n      dup2\n      add\n      swap1\n      jump(tag_35)\n    tag_34:\n      tag_36\n      jump\t// in\n    tag_33:\n      stop\n        /* \"MultiSigWallet-2/MultiSigWallet.sol\":5665:5825  function viewTransaction(uint256 _txIndex)... */\n    tag_6:\n      callvalue\n        /* \"--CODEGEN--\":8:17   */\n      dup1\n        /* \"--CODEGEN--\":5:7   */\n      iszero\n      tag_37\n      jumpi\n        /* \"--CODEGEN--\":30:31   */\n      0x00\n        /* \"--CODEGEN--\":27:28   */\n      dup1\n        /* \"--CODEGEN--\":20:32   */\n      revert\n        /* \"--CODEGEN--\":5:7   */\n    tag_37:\n        /* \"MultiSigWallet-2/MultiSigWallet.sol\":5665:5825  function viewTransaction(uint256 _txIndex)... */\n      pop\n      tag_38\n      0x04\n      dup1\n      calldatasize\n      sub\n      tag_39\n      swap2\n      swap1\n      dup2\n      add\n      swap1\n      jump(tag_25)\n    tag_39:\n      tag_40\n      jump\t// in\n    tag_38:\n      mload(0x40)\n      tag_41\n      swap2\n      swap1\n      jump(tag_42)\n    tag_41:\n      mload(0x40)\n      dup1\n      swap2\n      sub\n      swap1\n      return\n        /* \"MultiSigWallet-2/MultiSigWallet.sol\":396:429  Transaction[] public transactions */\n    tag_7:\n      callvalue\n        /* \"--CODEGEN--\":8:17   */\n      dup1\n        /* \"--CODEGEN--\":5:7   */\n      iszero\n      tag_43\n      jumpi\n        /* \"--CODEGEN--\":30:31   */\n      0x00\n        /* \"--CODEGEN--\":27:28   */\n      dup1\n        /* \"--CODEGEN--\":20:32   */\n      revert\n        /* \"--CODEGEN--\":5:7   */\n    tag_43:\n        /* \"MultiSigWallet-2/MultiSigWallet.sol\":396:429  Transaction[] public transactions */\n      pop\n      tag_44\n      0x04\n      dup1\n      calldatasize\n      sub\n      tag_45\n      swap2\n      swap1\n      dup2\n      add\n      swap1\n      jump(tag_25)\n    tag_45:\n      tag_46\n      jump\t// in\n    tag_44:\n      mload(0x40)\n      tag_47\n      swap5\n      swap4\n      swap3\n      swap2\n      swap1\n      jump(tag_48)\n    tag_47:\n      mload(0x40)\n      dup1\n      swap2\n      sub\n      swap1\n      return\n        /* \"MultiSigWallet-2/MultiSigWallet.sol\":3239:4184  function excute(uint256 _txIndex)... */\n    tag_8:\n      callvalue\n        /* \"--CODEGEN--\":8:17   */\n      dup1\n        /* \"--CODEGEN--\":5:7   */\n      iszero\n      tag_49\n      jumpi\n        /* \"--CODEGEN--\":30:31   */\n      0x00\n        /* \"--CODEGEN--\":27:28   */\n      dup1\n        /* \"--CODEGEN--\":20:32   */\n      revert\n        /* \"--CODEGEN--\":5:7   */\n    tag_49:\n        /* \"MultiSigWallet-2/MultiSigWallet.sol\":3239:4184  function excute(uint256 _txIndex)... */\n      pop\n      tag_50\n      0x04\n      dup1\n      calldatasize\n      sub\n      tag_51\n      swap2\n      swap1\n      dup2\n      add\n      swap1\n      jump(tag_25)\n    tag_51:\n      tag_52\n      jump\t// in\n    tag_50:\n      stop\n        /* \"MultiSigWallet-2/MultiSigWallet.sol\":5979:6079  function viewbalance() external view returns (uint256) {... */\n    tag_9:\n      callvalue\n        /* \"--CODEGEN--\":8:17   */\n      dup1\n        /* \"--CODEGEN--\":5:7   */\n      iszero\n      tag_53\n      jumpi\n        /* \"--CODEGEN--\":30:31   */\n      0x00\n        /* \"--CODEGEN--\":27:28   */\n      dup1\n        /* \"--CODEGEN--\":20:32   */\n      revert\n        /* \"--CODEGEN--\":5:7   */\n    tag_53:\n        /* \"MultiSigWallet-2/MultiSigWallet.sol\":5979:6079  function viewbalance() external view returns (uint256) {... */\n      pop\n      tag_54\n      tag_55\n      jump\t// in\n    tag_54:\n      mload(0x40)\n      tag_56\n      swap2\n      swap1\n      jump(tag_57)\n    tag_56:\n      mload(0x40)\n      dup1\n      swap2\n      sub\n      swap1\n      return\n        /* \"MultiSigWallet-2/MultiSigWallet.sol\":2252:2423  function addProposer(address _newOwner) public onlyMaster {... */\n    tag_10:\n      callvalue\n        /* \"--CODEGEN--\":8:17   */\n      dup1\n        /* \"--CODEGEN--\":5:7   */\n      iszero\n      tag_58\n      jumpi\n        /* \"--CODEGEN--\":30:31   */\n      0x00\n        /* \"--CODEGEN--\":27:28   */\n      dup1\n        /* \"--CODEGEN--\":20:32   */\n      revert\n        /* \"--CODEGEN--\":5:7   */\n    tag_58:\n        /* \"MultiSigWallet-2/MultiSigWallet.sol\":2252:2423  function addProposer(address _newOwner) public onlyMaster {... */\n      pop\n      tag_59\n      0x04\n      dup1\n      calldatasize\n      sub\n      tag_60\n      swap2\n      swap1\n      dup2\n      add\n      swap1\n      jump(tag_35)\n    tag_60:\n      tag_61\n      jump\t// in\n    tag_59:\n      stop\n        /* \"MultiSigWallet-2/MultiSigWallet.sol\":3026:3233  function approve(uint256 _txId)... */\n    tag_11:\n      callvalue\n        /* \"--CODEGEN--\":8:17   */\n      dup1\n        /* \"--CODEGEN--\":5:7   */\n      iszero\n      tag_62\n      jumpi\n        /* \"--CODEGEN--\":30:31   */\n      0x00\n        /* \"--CODEGEN--\":27:28   */\n      dup1\n        /* \"--CODEGEN--\":20:32   */\n      revert\n        /* \"--CODEGEN--\":5:7   */\n    tag_62:\n        /* \"MultiSigWallet-2/MultiSigWallet.sol\":3026:3233  function approve(uint256 _txId)... */\n      pop\n      tag_63\n      0x04\n      dup1\n      calldatasize\n      sub\n      tag_64\n      swap2\n      swap1\n      dup2\n      add\n      swap1\n      jump(tag_25)\n    tag_64:\n      tag_65\n      jump\t// in\n    tag_63:\n      stop\n        /* \"MultiSigWallet-2/MultiSigWallet.sol\":4364:5133  function submitByMaster(... */\n    tag_12:\n      callvalue\n        /* \"--CODEGEN--\":8:17   */\n      dup1\n        /* \"--CODEGEN--\":5:7   */\n      iszero\n      tag_66\n      jumpi\n        /* \"--CODEGEN--\":30:31   */\n      0x00\n        /* \"--CODEGEN--\":27:28   */\n      dup1\n        /* \"--CODEGEN--\":20:32   */\n      revert\n        /* \"--CODEGEN--\":5:7   */\n    tag_66:\n        /* \"MultiSigWallet-2/MultiSigWallet.sol\":4364:5133  function submitByMaster(... */\n      pop\n      tag_67\n      0x04\n      dup1\n      calldatasize\n      sub\n      tag_68\n      swap2\n      swap1\n      dup2\n      add\n      swap1\n      jump(tag_20)\n    tag_68:\n      tag_69\n      jump\t// in\n    tag_67:\n      stop\n        /* \"MultiSigWallet-2/MultiSigWallet.sol\":2162:2246  function deposit() public payable {... */\n    tag_13:\n      tag_70\n      tag_71\n      jump\t// in\n    tag_70:\n      stop\n        /* \"MultiSigWallet-2/MultiSigWallet.sol\":2617:3020  function submit(... */\n    tag_21:\n        /* \"MultiSigWallet-2/MultiSigWallet.sol\":478:486  proposer */\n      0x00\n        /* \"MultiSigWallet-2/MultiSigWallet.sol\":478:498  proposer[msg.sender] */\n      dup1\n        /* \"MultiSigWallet-2/MultiSigWallet.sol\":487:497  msg.sender */\n      caller\n        /* \"MultiSigWallet-2/MultiSigWallet.sol\":478:498  proposer[msg.sender] */\n      0xffffffffffffffffffffffffffffffffffffffff\n      and\n      0xffffffffffffffffffffffffffffffffffffffff\n      and\n      dup2\n      mstore\n      0x20\n      add\n      swap1\n      dup2\n      mstore\n      0x20\n      add\n      0x00\n      keccak256\n      0x00\n      swap1\n      sload\n      swap1\n      0x0100\n      exp\n      swap1\n      div\n      0xff\n      and\n        /* \"MultiSigWallet-2/MultiSigWallet.sol\":470:521  require(proposer[msg.sender], \"Error : Not Owner!\") */\n      tag_73\n      jumpi\n      mload(0x40)\n      0x08c379a000000000000000000000000000000000000000000000000000000000\n      dup2\n      mstore\n      0x04\n      add\n      tag_74\n      swap1\n      jump(tag_75)\n    tag_74:\n      mload(0x40)\n      dup1\n      swap2\n      sub\n      swap1\n      revert\n    tag_73:\n        /* \"MultiSigWallet-2/MultiSigWallet.sol\":2770:2782  _destination */\n      dup4\n        /* \"MultiSigWallet-2/MultiSigWallet.sol\":2784:2789  _data */\n      dup4\n      dup4\n        /* \"MultiSigWallet-2/MultiSigWallet.sol\":1279:1710  modifier checkTransaction(... */\n      dup1\n      dup1\n      0x1f\n      add\n      0x20\n      dup1\n      swap2\n      div\n      mul\n      0x20\n      add\n      mload(0x40)\n      swap1\n      dup2\n      add\n      0x40\n      mstore\n      dup1\n      swap4\n      swap3\n      swap2\n      swap1\n      dup2\n      dup2\n      mstore\n      0x20\n      add\n      dup4\n      dup4\n        /* \"--CODEGEN--\":30:33   */\n      dup1\n        /* \"--CODEGEN--\":22:28   */\n      dup3\n        /* \"--CODEGEN--\":14:20   */\n      dup5\n        /* \"--CODEGEN--\":1:34   */\n      calldatacopy\n        /* \"--CODEGEN--\":99:100   */\n      0x00\n        /* \"--CODEGEN--\":93:96   */\n      dup2\n        /* \"--CODEGEN--\":85:91   */\n      dup5\n        /* \"--CODEGEN--\":81:97   */\n      add\n        /* \"--CODEGEN--\":74:101   */\n      mstore\n        /* \"--CODEGEN--\":137:141   */\n      0x1f\n        /* \"--CODEGEN--\":133:142   */\n      not\n        /* \"--CODEGEN--\":126:130   */\n      0x1f\n        /* \"--CODEGEN--\":121:124   */\n      dup3\n        /* \"--CODEGEN--\":117:131   */\n      add\n        /* \"--CODEGEN--\":113:143   */\n      and\n        /* \"--CODEGEN--\":106:143   */\n      swap1\n      pop\n        /* \"--CODEGEN--\":169:172   */\n      dup1\n        /* \"--CODEGEN--\":161:167   */\n      dup4\n        /* \"--CODEGEN--\":157:173   */\n      add\n        /* \"--CODEGEN--\":147:173   */\n      swap3\n      pop\n        /* \"MultiSigWallet-2/MultiSigWallet.sol\":1279:1710  modifier checkTransaction(... */\n      pop\n      pop\n      pop\n      pop\n      pop\n      pop\n        /* \"MultiSigWallet-2/MultiSigWallet.sol\":2791:2797  _value */\n      dup3\n        /* \"MultiSigWallet-2/MultiSigWallet.sol\":1448:1451  0x0 */\n      0x00\n        /* \"MultiSigWallet-2/MultiSigWallet.sol\":1424:1452  _destination != address(0x0) */\n      0xffffffffffffffffffffffffffffffffffffffff\n      and\n        /* \"MultiSigWallet-2/MultiSigWallet.sol\":1424:1436  _destination */\n      dup4\n        /* \"MultiSigWallet-2/MultiSigWallet.sol\":1424:1452  _destination != address(0x0) */\n      0xffffffffffffffffffffffffffffffffffffffff\n      and\n      eq\n      iszero\n        /* \"MultiSigWallet-2/MultiSigWallet.sol\":1403:1513  require(... */\n      tag_77\n      jumpi\n      mload(0x40)\n      0x08c379a000000000000000000000000000000000000000000000000000000000\n      dup2\n      mstore\n      0x04\n      add\n      tag_78\n      swap1\n      jump(tag_79)\n    tag_78:\n      mload(0x40)\n      dup1\n      swap2\n      sub\n      swap1\n      revert\n    tag_77:\n        /* \"MultiSigWallet-2/MultiSigWallet.sol\":1543:1544  1 */\n      0x01\n        /* \"MultiSigWallet-2/MultiSigWallet.sol\":1528:1533  _data */\n      dup3\n        /* \"MultiSigWallet-2/MultiSigWallet.sol\":1528:1540  _data.length */\n      mload\n        /* \"MultiSigWallet-2/MultiSigWallet.sol\":1528:1544  _data.length < 1 */\n      lt\n        /* \"MultiSigWallet-2/MultiSigWallet.sol\":1524:1692  if (_data.length < 1) {... */\n      iszero\n      tag_80\n      jumpi\n        /* \"MultiSigWallet-2/MultiSigWallet.sol\":1594:1595  1 */\n      0x01\n        /* \"MultiSigWallet-2/MultiSigWallet.sol\":1585:1591  _value */\n      dup2\n        /* \"MultiSigWallet-2/MultiSigWallet.sol\":1585:1595  _value > 1 */\n      gt\n        /* \"MultiSigWallet-2/MultiSigWallet.sol\":1560:1681  require(... */\n      tag_81\n      jumpi\n      mload(0x40)\n      0x08c379a000000000000000000000000000000000000000000000000000000000\n      dup2\n      mstore\n      0x04\n      add\n      tag_82\n      swap1\n      jump(tag_83)\n    tag_82:\n      mload(0x40)\n      dup1\n      swap2\n      sub\n      swap1\n      revert\n    tag_81:\n        /* \"MultiSigWallet-2/MultiSigWallet.sol\":1524:1692  if (_data.length < 1) {... */\n    tag_80:\n        /* \"MultiSigWallet-2/MultiSigWallet.sol\":2809:2821  transactions */\n      0x04\n        /* \"MultiSigWallet-2/MultiSigWallet.sol\":2840:3003  Transaction({... */\n      mload(0x40)\n      dup1\n      0x80\n      add\n      0x40\n      mstore\n      dup1\n        /* \"MultiSigWallet-2/MultiSigWallet.sol\":2883:2895  _destination */\n      dup10\n        /* \"MultiSigWallet-2/MultiSigWallet.sol\":2840:3003  Transaction({... */\n      0xffffffffffffffffffffffffffffffffffffffff\n      and\n      dup2\n      mstore\n      0x20\n      add\n        /* \"MultiSigWallet-2/MultiSigWallet.sol\":2920:2926  _value */\n      dup7\n        /* \"MultiSigWallet-2/MultiSigWallet.sol\":2840:3003  Transaction({... */\n      dup2\n      mstore\n      0x20\n      add\n        /* \"MultiSigWallet-2/MultiSigWallet.sol\":2950:2955  _data */\n      dup9\n      dup9\n        /* \"MultiSigWallet-2/MultiSigWallet.sol\":2840:3003  Transaction({... */\n      dup1\n      dup1\n      0x1f\n      add\n      0x20\n      dup1\n      swap2\n      div\n      mul\n      0x20\n      add\n      mload(0x40)\n      swap1\n      dup2\n      add\n      0x40\n      mstore\n      dup1\n      swap4\n      swap3\n      swap2\n      swap1\n      dup2\n      dup2\n      mstore\n      0x20\n      add\n      dup4\n      dup4\n        /* \"--CODEGEN--\":30:33   */\n      dup1\n        /* \"--CODEGEN--\":22:28   */\n      dup3\n        /* \"--CODEGEN--\":14:20   */\n      dup5\n        /* \"--CODEGEN--\":1:34   */\n      calldatacopy\n        /* \"--CODEGEN--\":99:100   */\n      0x00\n        /* \"--CODEGEN--\":93:96   */\n      dup2\n        /* \"--CODEGEN--\":85:91   */\n      dup5\n        /* \"--CODEGEN--\":81:97   */\n      add\n        /* \"--CODEGEN--\":74:101   */\n      mstore\n        /* \"--CODEGEN--\":137:141   */\n      0x1f\n        /* \"--CODEGEN--\":133:142   */\n      not\n        /* \"--CODEGEN--\":126:130   */\n      0x1f\n        /* \"--CODEGEN--\":121:124   */\n      dup3\n        /* \"--CODEGEN--\":117:131   */\n      add\n        /* \"--CODEGEN--\":113:143   */\n      and\n        /* \"--CODEGEN--\":106:143   */\n      swap1\n      pop\n        /* \"--CODEGEN--\":169:172   */\n      dup1\n        /* \"--CODEGEN--\":161:167   */\n      dup4\n        /* \"--CODEGEN--\":157:173   */\n      add\n        /* \"--CODEGEN--\":147:173   */\n      swap3\n      pop\n        /* \"MultiSigWallet-2/MultiSigWallet.sol\":2840:3003  Transaction({... */\n      pop\n      pop\n      pop\n      pop\n      pop\n      pop\n      dup2\n      mstore\n      0x20\n      add\n        /* \"MultiSigWallet-2/MultiSigWallet.sol\":2983:2988  false */\n      0x00\n        /* \"MultiSigWallet-2/MultiSigWallet.sol\":2840:3003  Transaction({... */\n      iszero\n      iszero\n      dup2\n      mstore\n      pop\n        /* \"MultiSigWallet-2/MultiSigWallet.sol\":2809:3013  transactions.push(... */\n      swap1\n      dup1\n        /* \"--CODEGEN--\":39:40   */\n      0x01\n        /* \"--CODEGEN--\":33:36   */\n      dup2\n        /* \"--CODEGEN--\":27:37   */\n      sload\n        /* \"--CODEGEN--\":23:41   */\n      add\n        /* \"--CODEGEN--\":57:67   */\n      dup1\n        /* \"--CODEGEN--\":52:55   */\n      dup3\n        /* \"--CODEGEN--\":45:68   */\n      sstore\n        /* \"--CODEGEN--\":79:89   */\n      dup1\n        /* \"--CODEGEN--\":72:89   */\n      swap2\n      pop\n        /* \"--CODEGEN--\":0:93   */\n      pop\n        /* \"MultiSigWallet-2/MultiSigWallet.sol\":2809:3013  transactions.push(... */\n      swap1\n      0x01\n      dup3\n      sub\n      swap1\n      0x00\n      mstore\n      keccak256(0x00, 0x20)\n      swap1\n      0x04\n      mul\n      add\n      0x00\n      swap1\n      swap2\n      swap3\n      swap1\n      swap2\n      swap1\n      swap2\n      pop\n      0x00\n      dup3\n      add\n      mload\n      dup2\n      0x00\n      add\n      exp(0x0100, 0x00)\n      dup2\n      sload\n      dup2\n      0xffffffffffffffffffffffffffffffffffffffff\n      mul\n      not\n      and\n      swap1\n      dup4\n      0xffffffffffffffffffffffffffffffffffffffff\n      and\n      mul\n      or\n      swap1\n      sstore\n      pop\n      0x20\n      dup3\n      add\n      mload\n      dup2\n      0x01\n      add\n      sstore\n      0x40\n      dup3\n      add\n      mload\n      dup2\n      0x02\n      add\n      swap1\n      dup1\n      mload\n      swap1\n      0x20\n      add\n      swap1\n      tag_86\n      swap3\n      swap2\n      swap1\n      tag_87\n      jump\t// in\n    tag_86:\n      pop\n      0x60\n      dup3\n      add\n      mload\n      dup2\n      0x03\n      add\n      exp(0x0100, 0x00)\n      dup2\n      sload\n      dup2\n      0xff\n      mul\n      not\n      and\n      swap1\n      dup4\n      iszero\n      iszero\n      mul\n      or\n      swap1\n      sstore\n      pop\n      pop\n      pop\n      pop\n        /* \"MultiSigWallet-2/MultiSigWallet.sol\":531:532  _ */\n      pop\n      pop\n      pop\n        /* \"MultiSigWallet-2/MultiSigWallet.sol\":2617:3020  function submit(... */\n      pop\n      pop\n      pop\n      pop\n      jump\t// out\n        /* \"MultiSigWallet-2/MultiSigWallet.sol\":4190:4358  function putToDeath(uint256 _txId)... */\n    tag_26:\n        /* \"MultiSigWallet-2/MultiSigWallet.sol\":4259:4264  _txId */\n      dup1\n        /* \"MultiSigWallet-2/MultiSigWallet.sol\":617:629  transactions */\n      0x04\n        /* \"MultiSigWallet-2/MultiSigWallet.sol\":617:636  transactions.length */\n      dup1\n      sload\n      swap1\n      pop\n        /* \"MultiSigWallet-2/MultiSigWallet.sol\":609:614  _txId */\n      dup2\n        /* \"MultiSigWallet-2/MultiSigWallet.sol\":609:636  _txId < transactions.length */\n      lt\n        /* \"MultiSigWallet-2/MultiSigWallet.sol\":588:694  require(... */\n      tag_89\n      jumpi\n      mload(0x40)\n      0x08c379a000000000000000000000000000000000000000000000000000000000\n      dup2\n      mstore\n      0x04\n      add\n      tag_90\n      swap1\n      jump(tag_91)\n    tag_90:\n      mload(0x40)\n      dup1\n      swap2\n      sub\n      swap1\n      revert\n    tag_89:\n        /* \"MultiSigWallet-2/MultiSigWallet.sol\":4285:4290  _txId */\n      dup2\n        /* \"MultiSigWallet-2/MultiSigWallet.sol\":949:961  transactions */\n      0x04\n        /* \"MultiSigWallet-2/MultiSigWallet.sol\":962:967  _txId */\n      dup2\n        /* \"MultiSigWallet-2/MultiSigWallet.sol\":949:968  transactions[_txId] */\n      dup2\n      sload\n      dup2\n      lt\n      tag_93\n      jumpi\n      invalid\n    tag_93:\n      swap1\n      0x00\n      mstore\n      keccak256(0x00, 0x20)\n      swap1\n      0x04\n      mul\n      add\n        /* \"MultiSigWallet-2/MultiSigWallet.sol\":949:977  transactions[_txId].executed */\n      0x03\n      add\n      0x00\n      swap1\n      sload\n      swap1\n      0x0100\n      exp\n      swap1\n      div\n      0xff\n      and\n        /* \"MultiSigWallet-2/MultiSigWallet.sol\":948:977  !transactions[_txId].executed */\n      iszero\n        /* \"MultiSigWallet-2/MultiSigWallet.sol\":940:1007  require(!transactions[_txId].executed, \"Error: tx already Excuted\") */\n      tag_95\n      jumpi\n      mload(0x40)\n      0x08c379a000000000000000000000000000000000000000000000000000000000\n      dup2\n      mstore\n      0x04\n      add\n      tag_96\n      swap1\n      jump(tag_97)\n    tag_96:\n      mload(0x40)\n      dup1\n      swap2\n      sub\n      swap1\n      revert\n    tag_95:\n        /* \"MultiSigWallet-2/MultiSigWallet.sol\":1085:1091  master */\n      0x03\n      0x00\n      swap1\n      sload\n      swap1\n      0x0100\n      exp\n      swap1\n      div\n      0xffffffffffffffffffffffffffffffffffffffff\n      and\n        /* \"MultiSigWallet-2/MultiSigWallet.sol\":1071:1091  msg.sender == master */\n      0xffffffffffffffffffffffffffffffffffffffff\n      and\n        /* \"MultiSigWallet-2/MultiSigWallet.sol\":1071:1081  msg.sender */\n      caller\n        /* \"MultiSigWallet-2/MultiSigWallet.sol\":1071:1091  msg.sender == master */\n      0xffffffffffffffffffffffffffffffffffffffff\n      and\n      eq\n        /* \"MultiSigWallet-2/MultiSigWallet.sol\":1063:1128  require(msg.sender == master, \"Error : msg.sender is Not Master\") */\n      tag_99\n      jumpi\n      mload(0x40)\n      0x08c379a000000000000000000000000000000000000000000000000000000000\n      dup2\n      mstore\n      0x04\n      add\n      tag_100\n      swap1\n      jump(tag_101)\n    tag_100:\n      mload(0x40)\n      dup1\n      swap2\n      sub\n      swap1\n      revert\n    tag_99:\n        /* \"MultiSigWallet-2/MultiSigWallet.sol\":4332:4344  transactions */\n      0x04\n        /* \"MultiSigWallet-2/MultiSigWallet.sol\":4345:4350  _txId */\n      dup4\n        /* \"MultiSigWallet-2/MultiSigWallet.sol\":4332:4351  transactions[_txId] */\n      dup2\n      sload\n      dup2\n      lt\n      tag_103\n      jumpi\n      invalid\n    tag_103:\n      swap1\n      0x00\n      mstore\n      keccak256(0x00, 0x20)\n      swap1\n      0x04\n      mul\n      add\n      0x00\n        /* \"MultiSigWallet-2/MultiSigWallet.sol\":4325:4351  delete transactions[_txId] */\n      dup1\n      dup3\n      add\n      exp(0x0100, 0x00)\n      dup2\n      sload\n      swap1\n      0xffffffffffffffffffffffffffffffffffffffff\n      mul\n      not\n      and\n      swap1\n      sstore\n      0x01\n      dup3\n      add\n      0x00\n      swap1\n      sstore\n      0x02\n      dup3\n      add\n      0x00\n      tag_105\n      swap2\n      swap1\n      tag_106\n      jump\t// in\n    tag_105:\n      0x03\n      dup3\n      add\n      exp(0x0100, 0x00)\n      dup2\n      sload\n      swap1\n      0xff\n      mul\n      not\n      and\n      swap1\n      sstore\n      pop\n      pop\n        /* \"MultiSigWallet-2/MultiSigWallet.sol\":704:705  _ */\n      pop\n        /* \"MultiSigWallet-2/MultiSigWallet.sol\":4190:4358  function putToDeath(uint256 _txId)... */\n      pop\n      pop\n      jump\t// out\n        /* \"MultiSigWallet-2/MultiSigWallet.sol\":5831:5973  function viewTotalTransactions()... */\n    tag_29:\n        /* \"MultiSigWallet-2/MultiSigWallet.sol\":5911:5931  Transaction[] memory */\n      0x60\n        /* \"MultiSigWallet-2/MultiSigWallet.sol\":5954:5966  transactions */\n      0x04\n        /* \"MultiSigWallet-2/MultiSigWallet.sol\":5947:5966  return transactions */\n      dup1\n      sload\n      dup1\n      0x20\n      mul\n      0x20\n      add\n      mload(0x40)\n      swap1\n      dup2\n      add\n      0x40\n      mstore\n      dup1\n      swap3\n      swap2\n      swap1\n      dup2\n      dup2\n      mstore\n      0x20\n      add\n      0x00\n      swap1\n    tag_108:\n      dup3\n      dup3\n      lt\n      iszero\n      tag_109\n      jumpi\n      dup4\n      dup3\n      swap1\n      0x00\n      mstore\n      keccak256(0x00, 0x20)\n      swap1\n      0x04\n      mul\n      add\n      mload(0x40)\n      dup1\n      0x80\n      add\n      0x40\n      mstore\n      swap1\n      dup2\n      0x00\n      dup3\n      add\n      0x00\n      swap1\n      sload\n      swap1\n      0x0100\n      exp\n      swap1\n      div\n      0xffffffffffffffffffffffffffffffffffffffff\n      and\n      0xffffffffffffffffffffffffffffffffffffffff\n      and\n      0xffffffffffffffffffffffffffffffffffffffff\n      and\n      dup2\n      mstore\n      0x20\n      add\n      0x01\n      dup3\n      add\n      sload\n      dup2\n      mstore\n      0x20\n      add\n      0x02\n      dup3\n      add\n      dup1\n      sload\n      0x01\n      dup2\n      0x01\n      and\n      iszero\n      0x0100\n      mul\n      sub\n      and\n      0x02\n      swap1\n      div\n      dup1\n      0x1f\n      add\n      0x20\n      dup1\n      swap2\n      div\n      mul\n      0x20\n      add\n      mload(0x40)\n      swap1\n      dup2\n      add\n      0x40\n      mstore\n      dup1\n      swap3\n      swap2\n      swap1\n      dup2\n      dup2\n      mstore\n      0x20\n      add\n      dup3\n      dup1\n      sload\n      0x01\n      dup2\n      0x01\n      and\n      iszero\n      0x0100\n      mul\n      sub\n      and\n      0x02\n      swap1\n      div\n      dup1\n      iszero\n      tag_111\n      jumpi\n      dup1\n      0x1f\n      lt\n      tag_112\n      jumpi\n      0x0100\n      dup1\n      dup4\n      sload\n      div\n      mul\n      dup4\n      mstore\n      swap2\n      0x20\n      add\n      swap2\n      jump(tag_111)\n    tag_112:\n      dup3\n      add\n      swap2\n      swap1\n      0x00\n      mstore\n      keccak256(0x00, 0x20)\n      swap1\n    tag_113:\n      dup2\n      sload\n      dup2\n      mstore\n      swap1\n      0x01\n      add\n      swap1\n      0x20\n      add\n      dup1\n      dup4\n      gt\n      tag_113\n      jumpi\n      dup3\n      swap1\n      sub\n      0x1f\n      and\n      dup3\n      add\n      swap2\n    tag_111:\n      pop\n      pop\n      pop\n      pop\n      pop\n      dup2\n      mstore\n      0x20\n      add\n      0x03\n      dup3\n      add\n      0x00\n      swap1\n      sload\n      swap1\n      0x0100\n      exp\n      swap1\n      div\n      0xff\n      and\n      iszero\n      iszero\n      iszero\n      iszero\n      dup2\n      mstore\n      pop\n      pop\n      dup2\n      mstore\n      0x20\n      add\n      swap1\n      0x01\n      add\n      swap1\n      jump(tag_108)\n    tag_109:\n      pop\n      pop\n      pop\n      pop\n      swap1\n      pop\n        /* \"MultiSigWallet-2/MultiSigWallet.sol\":5831:5973  function viewTotalTransactions()... */\n      swap1\n      jump\t// out\n        /* \"MultiSigWallet-2/MultiSigWallet.sol\":2429:2611  function deleteProposer(address _deletedOwner) public onlyMaster {... */\n    tag_36:\n        /* \"MultiSigWallet-2/MultiSigWallet.sol\":1085:1091  master */\n      0x03\n      0x00\n      swap1\n      sload\n      swap1\n      0x0100\n      exp\n      swap1\n      div\n      0xffffffffffffffffffffffffffffffffffffffff\n      and\n        /* \"MultiSigWallet-2/MultiSigWallet.sol\":1071:1091  msg.sender == master */\n      0xffffffffffffffffffffffffffffffffffffffff\n      and\n        /* \"MultiSigWallet-2/MultiSigWallet.sol\":1071:1081  msg.sender */\n      caller\n        /* \"MultiSigWallet-2/MultiSigWallet.sol\":1071:1091  msg.sender == master */\n      0xffffffffffffffffffffffffffffffffffffffff\n      and\n      eq\n        /* \"MultiSigWallet-2/MultiSigWallet.sol\":1063:1128  require(msg.sender == master, \"Error : msg.sender is Not Master\") */\n      tag_115\n      jumpi\n      mload(0x40)\n      0x08c379a000000000000000000000000000000000000000000000000000000000\n      dup2\n      mstore\n      0x04\n      add\n      tag_116\n      swap1\n      jump(tag_101)\n    tag_116:\n      mload(0x40)\n      dup1\n      swap2\n      sub\n      swap1\n      revert\n    tag_115:\n        /* \"MultiSigWallet-2/MultiSigWallet.sol\":2512:2520  proposer */\n      0x00\n        /* \"MultiSigWallet-2/MultiSigWallet.sol\":2512:2535  proposer[_deletedOwner] */\n      dup1\n        /* \"MultiSigWallet-2/MultiSigWallet.sol\":2521:2534  _deletedOwner */\n      dup3\n        /* \"MultiSigWallet-2/MultiSigWallet.sol\":2512:2535  proposer[_deletedOwner] */\n      0xffffffffffffffffffffffffffffffffffffffff\n      and\n      0xffffffffffffffffffffffffffffffffffffffff\n      and\n      dup2\n      mstore\n      0x20\n      add\n      swap1\n      dup2\n      mstore\n      0x20\n      add\n      0x00\n      keccak256\n      0x00\n      swap1\n      sload\n      swap1\n      0x0100\n      exp\n      swap1\n      div\n      0xff\n      and\n        /* \"MultiSigWallet-2/MultiSigWallet.sol\":2504:2563  require(proposer[_deletedOwner], \"Error : Not In OwnerMap\") */\n      tag_118\n      jumpi\n      mload(0x40)\n      0x08c379a000000000000000000000000000000000000000000000000000000000\n      dup2\n      mstore\n      0x04\n      add\n      tag_119\n      swap1\n      jump(tag_120)\n    tag_119:\n      mload(0x40)\n      dup1\n      swap2\n      sub\n      swap1\n      revert\n    tag_118:\n        /* \"MultiSigWallet-2/MultiSigWallet.sol\":2599:2604  false */\n      0x00\n        /* \"MultiSigWallet-2/MultiSigWallet.sol\":2573:2581  proposer */\n      dup1\n        /* \"MultiSigWallet-2/MultiSigWallet.sol\":2573:2596  proposer[_deletedOwner] */\n      0x00\n        /* \"MultiSigWallet-2/MultiSigWallet.sol\":2582:2595  _deletedOwner */\n      dup4\n        /* \"MultiSigWallet-2/MultiSigWallet.sol\":2573:2596  proposer[_deletedOwner] */\n      0xffffffffffffffffffffffffffffffffffffffff\n      and\n      0xffffffffffffffffffffffffffffffffffffffff\n      and\n      dup2\n      mstore\n      0x20\n      add\n      swap1\n      dup2\n      mstore\n      0x20\n      add\n      0x00\n      keccak256\n      0x00\n        /* \"MultiSigWallet-2/MultiSigWallet.sol\":2573:2604  proposer[_deletedOwner] = false */\n      0x0100\n      exp\n      dup2\n      sload\n      dup2\n      0xff\n      mul\n      not\n      and\n      swap1\n      dup4\n      iszero\n      iszero\n      mul\n      or\n      swap1\n      sstore\n      pop\n        /* \"MultiSigWallet-2/MultiSigWallet.sol\":2429:2611  function deleteProposer(address _deletedOwner) public onlyMaster {... */\n      pop\n      jump\t// out\n        /* \"MultiSigWallet-2/MultiSigWallet.sol\":5665:5825  function viewTransaction(uint256 _txIndex)... */\n    tag_40:\n        /* \"MultiSigWallet-2/MultiSigWallet.sol\":5755:5773  Transaction memory */\n      tag_121\n      tag_122\n      jump\t// in\n    tag_121:\n        /* \"MultiSigWallet-2/MultiSigWallet.sol\":5796:5808  transactions */\n      0x04\n        /* \"MultiSigWallet-2/MultiSigWallet.sol\":5809:5817  _txIndex */\n      dup3\n        /* \"MultiSigWallet-2/MultiSigWallet.sol\":5796:5818  transactions[_txIndex] */\n      dup2\n      sload\n      dup2\n      lt\n      tag_124\n      jumpi\n      invalid\n    tag_124:\n      swap1\n      0x00\n      mstore\n      keccak256(0x00, 0x20)\n      swap1\n      0x04\n      mul\n      add\n        /* \"MultiSigWallet-2/MultiSigWallet.sol\":5789:5818  return transactions[_txIndex] */\n      mload(0x40)\n      dup1\n      0x80\n      add\n      0x40\n      mstore\n      swap1\n      dup2\n      0x00\n      dup3\n      add\n      0x00\n      swap1\n      sload\n      swap1\n      0x0100\n      exp\n      swap1\n      div\n      0xffffffffffffffffffffffffffffffffffffffff\n      and\n      0xffffffffffffffffffffffffffffffffffffffff\n      and\n      0xffffffffffffffffffffffffffffffffffffffff\n      and\n      dup2\n      mstore\n      0x20\n      add\n      0x01\n      dup3\n      add\n      sload\n      dup2\n      mstore\n      0x20\n      add\n      0x02\n      dup3\n      add\n      dup1\n      sload\n      0x01\n      dup2\n      0x01\n      and\n      iszero\n      0x0100\n      mul\n      sub\n      and\n      0x02\n      swap1\n      div\n      dup1\n      0x1f\n      add\n      0x20\n      dup1\n      swap2\n      div\n      mul\n      0x20\n      add\n      mload(0x40)\n      swap1\n      dup2\n      add\n      0x40\n      mstore\n      dup1\n      swap3\n      swap2\n      swap1\n      dup2\n      dup2\n      mstore\n      0x20\n      add\n      dup3\n      dup1\n      sload\n      0x01\n      dup2\n      0x01\n      and\n      iszero\n      0x0100\n      mul\n      sub\n      and\n      0x02\n      swap1\n      div\n      dup1\n      iszero\n      tag_126\n      jumpi\n      dup1\n      0x1f\n      lt\n      tag_127\n      jumpi\n      0x0100\n      dup1\n      dup4\n      sload\n      div\n      mul\n      dup4\n      mstore\n      swap2\n      0x20\n      add\n      swap2\n      jump(tag_126)\n    tag_127:\n      dup3\n      add\n      swap2\n      swap1\n      0x00\n      mstore\n      keccak256(0x00, 0x20)\n      swap1\n    tag_128:\n      dup2\n      sload\n      dup2\n      mstore\n      swap1\n      0x01\n      add\n      swap1\n      0x20\n      add\n      dup1\n      dup4\n      gt\n      tag_128\n      jumpi\n      dup3\n      swap1\n      sub\n      0x1f\n      and\n      dup3\n      add\n      swap2\n    tag_126:\n      pop\n      pop\n      pop\n      pop\n      pop\n      dup2\n      mstore\n      0x20\n      add\n      0x03\n      dup3\n      add\n      0x00\n      swap1\n      sload\n      swap1\n      0x0100\n      exp\n      swap1\n      div\n      0xff\n      and\n      iszero\n      iszero\n      iszero\n      iszero\n      dup2\n      mstore\n      pop\n      pop\n      swap1\n      pop\n        /* \"MultiSigWallet-2/MultiSigWallet.sol\":5665:5825  function viewTransaction(uint256 _txIndex)... */\n      swap2\n      swap1\n      pop\n      jump\t// out\n        /* \"MultiSigWallet-2/MultiSigWallet.sol\":396:429  Transaction[] public transactions */\n    tag_46:\n      0x04\n      dup2\n      dup2\n      sload\n      dup2\n      lt\n      tag_129\n      jumpi\n      invalid\n    tag_129:\n      swap1\n      0x00\n      mstore\n      keccak256(0x00, 0x20)\n      swap1\n      0x04\n      mul\n      add\n      0x00\n      swap2\n      pop\n      swap1\n      pop\n      dup1\n      0x00\n      add\n      0x00\n      swap1\n      sload\n      swap1\n      0x0100\n      exp\n      swap1\n      div\n      0xffffffffffffffffffffffffffffffffffffffff\n      and\n      swap1\n      dup1\n      0x01\n      add\n      sload\n      swap1\n      dup1\n      0x02\n      add\n      dup1\n      sload\n      0x01\n      dup2\n      0x01\n      and\n      iszero\n      0x0100\n      mul\n      sub\n      and\n      0x02\n      swap1\n      div\n      dup1\n      0x1f\n      add\n      0x20\n      dup1\n      swap2\n      div\n      mul\n      0x20\n      add\n      mload(0x40)\n      swap1\n      dup2\n      add\n      0x40\n      mstore\n      dup1\n      swap3\n      swap2\n      swap1\n      dup2\n      dup2\n      mstore\n      0x20\n      add\n      dup3\n      dup1\n      sload\n      0x01\n      dup2\n      0x01\n      and\n      iszero\n      0x0100\n      mul\n      sub\n      and\n      0x02\n      swap1\n      div\n      dup1\n      iszero\n      tag_131\n      jumpi\n      dup1\n      0x1f\n      lt\n      tag_132\n      jumpi\n      0x0100\n      dup1\n      dup4\n      sload\n      div\n      mul\n      dup4\n      mstore\n      swap2\n      0x20\n      add\n      swap2\n      jump(tag_131)\n    tag_132:\n      dup3\n      add\n      swap2\n      swap1\n      0x00\n      mstore\n      keccak256(0x00, 0x20)\n      swap1\n    tag_133:\n      dup2\n      sload\n      dup2\n      mstore\n      swap1\n      0x01\n      add\n      swap1\n      0x20\n      add\n      dup1\n      dup4\n      gt\n      tag_133\n      jumpi\n      dup3\n      swap1\n      sub\n      0x1f\n      and\n      dup3\n      add\n      swap2\n    tag_131:\n      pop\n      pop\n      pop\n      pop\n      pop\n      swap1\n      dup1\n      0x03\n      add\n      0x00\n      swap1\n      sload\n      swap1\n      0x0100\n      exp\n      swap1\n      div\n      0xff\n      and\n      swap1\n      pop\n      dup5\n      jump\t// out\n        /* \"MultiSigWallet-2/MultiSigWallet.sol\":3239:4184  function excute(uint256 _txIndex)... */\n    tag_52:\n        /* \"MultiSigWallet-2/MultiSigWallet.sol\":3307:3315  _txIndex */\n      dup1\n        /* \"MultiSigWallet-2/MultiSigWallet.sol\":617:629  transactions */\n      0x04\n        /* \"MultiSigWallet-2/MultiSigWallet.sol\":617:636  transactions.length */\n      dup1\n      sload\n      swap1\n      pop\n        /* \"MultiSigWallet-2/MultiSigWallet.sol\":609:614  _txId */\n      dup2\n        /* \"MultiSigWallet-2/MultiSigWallet.sol\":609:636  _txId < transactions.length */\n      lt\n        /* \"MultiSigWallet-2/MultiSigWallet.sol\":588:694  require(... */\n      tag_135\n      jumpi\n      mload(0x40)\n      0x08c379a000000000000000000000000000000000000000000000000000000000\n      dup2\n      mstore\n      0x04\n      add\n      tag_136\n      swap1\n      jump(tag_91)\n    tag_136:\n      mload(0x40)\n      dup1\n      swap2\n      sub\n      swap1\n      revert\n    tag_135:\n        /* \"MultiSigWallet-2/MultiSigWallet.sol\":3336:3344  _txIndex */\n      dup2\n        /* \"MultiSigWallet-2/MultiSigWallet.sol\":949:961  transactions */\n      0x04\n        /* \"MultiSigWallet-2/MultiSigWallet.sol\":962:967  _txId */\n      dup2\n        /* \"MultiSigWallet-2/MultiSigWallet.sol\":949:968  transactions[_txId] */\n      dup2\n      sload\n      dup2\n      lt\n      tag_138\n      jumpi\n      invalid\n    tag_138:\n      swap1\n      0x00\n      mstore\n      keccak256(0x00, 0x20)\n      swap1\n      0x04\n      mul\n      add\n        /* \"MultiSigWallet-2/MultiSigWallet.sol\":949:977  transactions[_txId].executed */\n      0x03\n      add\n      0x00\n      swap1\n      sload\n      swap1\n      0x0100\n      exp\n      swap1\n      div\n      0xff\n      and\n        /* \"MultiSigWallet-2/MultiSigWallet.sol\":948:977  !transactions[_txId].executed */\n      iszero\n        /* \"MultiSigWallet-2/MultiSigWallet.sol\":940:1007  require(!transactions[_txId].executed, \"Error: tx already Excuted\") */\n      tag_140\n      jumpi\n      mload(0x40)\n      0x08c379a000000000000000000000000000000000000000000000000000000000\n      dup2\n      mstore\n      0x04\n      add\n      tag_141\n      swap1\n      jump(tag_97)\n    tag_141:\n      mload(0x40)\n      dup1\n      swap2\n      sub\n      swap1\n      revert\n    tag_140:\n        /* \"MultiSigWallet-2/MultiSigWallet.sol\":1085:1091  master */\n      0x03\n      0x00\n      swap1\n      sload\n      swap1\n      0x0100\n      exp\n      swap1\n      div\n      0xffffffffffffffffffffffffffffffffffffffff\n      and\n        /* \"MultiSigWallet-2/MultiSigWallet.sol\":1071:1091  msg.sender == master */\n      0xffffffffffffffffffffffffffffffffffffffff\n      and\n        /* \"MultiSigWallet-2/MultiSigWallet.sol\":1071:1081  msg.sender */\n      caller\n        /* \"MultiSigWallet-2/MultiSigWallet.sol\":1071:1091  msg.sender == master */\n      0xffffffffffffffffffffffffffffffffffffffff\n      and\n      eq\n        /* \"MultiSigWallet-2/MultiSigWallet.sol\":1063:1128  require(msg.sender == master, \"Error : msg.sender is Not Master\") */\n      tag_143\n      jumpi\n      mload(0x40)\n      0x08c379a000000000000000000000000000000000000000000000000000000000\n      dup2\n      mstore\n      0x04\n      add\n      tag_144\n      swap1\n      jump(tag_101)\n    tag_144:\n      mload(0x40)\n      dup1\n      swap2\n      sub\n      swap1\n      revert\n    tag_143:\n        /* \"MultiSigWallet-2/MultiSigWallet.sol\":3379:3410  Transaction storage transaction */\n      0x00\n        /* \"MultiSigWallet-2/MultiSigWallet.sol\":3413:3425  transactions */\n      0x04\n        /* \"MultiSigWallet-2/MultiSigWallet.sol\":3426:3434  _txIndex */\n      dup5\n        /* \"MultiSigWallet-2/MultiSigWallet.sol\":3413:3435  transactions[_txIndex] */\n      dup2\n      sload\n      dup2\n      lt\n      tag_146\n      jumpi\n      invalid\n    tag_146:\n      swap1\n      0x00\n      mstore\n      keccak256(0x00, 0x20)\n      swap1\n      0x04\n      mul\n      add\n        /* \"MultiSigWallet-2/MultiSigWallet.sol\":3379:3435  Transaction storage transaction = transactions[_txIndex] */\n      swap1\n      pop\n        /* \"MultiSigWallet-2/MultiSigWallet.sol\":3476:3477  1 */\n      0x01\n        /* \"MultiSigWallet-2/MultiSigWallet.sol\":3450:3461  transaction */\n      dup2\n        /* \"MultiSigWallet-2/MultiSigWallet.sol\":3450:3466  transaction.data */\n      0x02\n      add\n        /* \"MultiSigWallet-2/MultiSigWallet.sol\":3450:3473  transaction.data.length */\n      dup1\n      sload\n      0x01\n      dup2\n      0x01\n      and\n      iszero\n      0x0100\n      mul\n      sub\n      and\n      0x02\n      swap1\n      div\n      swap1\n      pop\n        /* \"MultiSigWallet-2/MultiSigWallet.sol\":3450:3477  transaction.data.length < 1 */\n      lt\n        /* \"MultiSigWallet-2/MultiSigWallet.sol\":3446:4140  if (transaction.data.length < 1) {... */\n      iszero\n      tag_148\n      jumpi\n        /* \"MultiSigWallet-2/MultiSigWallet.sol\":3565:3586  uint256 beforeBalance */\n      0x00\n        /* \"MultiSigWallet-2/MultiSigWallet.sol\":3589:3610  address(this).balance */\n      selfbalance\n        /* \"MultiSigWallet-2/MultiSigWallet.sol\":3565:3610  uint256 beforeBalance = address(this).balance */\n      swap1\n      pop\n        /* \"MultiSigWallet-2/MultiSigWallet.sol\":3667:3678  transaction */\n      dup2\n        /* \"MultiSigWallet-2/MultiSigWallet.sol\":3667:3684  transaction.value */\n      0x01\n      add\n      sload\n        /* \"MultiSigWallet-2/MultiSigWallet.sol\":3650:3663  beforeBalance */\n      dup2\n        /* \"MultiSigWallet-2/MultiSigWallet.sol\":3650:3684  beforeBalance >= transaction.value */\n      lt\n      iszero\n        /* \"MultiSigWallet-2/MultiSigWallet.sol\":3625:3741  require(... */\n      tag_149\n      jumpi\n      mload(0x40)\n      0x08c379a000000000000000000000000000000000000000000000000000000000\n      dup2\n      mstore\n      0x04\n      add\n      tag_150\n      swap1\n      jump(tag_151)\n    tag_150:\n      mload(0x40)\n      dup1\n      swap2\n      sub\n      swap1\n      revert\n    tag_149:\n        /* \"MultiSigWallet-2/MultiSigWallet.sol\":3756:3767  transaction */\n      dup2\n        /* \"MultiSigWallet-2/MultiSigWallet.sol\":3756:3779  transaction.destination */\n      0x00\n      add\n      0x00\n      swap1\n      sload\n      swap1\n      0x0100\n      exp\n      swap1\n      div\n      0xffffffffffffffffffffffffffffffffffffffff\n      and\n        /* \"MultiSigWallet-2/MultiSigWallet.sol\":3756:3788  transaction.destination.transfer */\n      0xffffffffffffffffffffffffffffffffffffffff\n      and\n        /* \"MultiSigWallet-2/MultiSigWallet.sol\":3756:3807  transaction.destination.transfer(transaction.value) */\n      0x08fc\n        /* \"MultiSigWallet-2/MultiSigWallet.sol\":3789:3800  transaction */\n      dup4\n        /* \"MultiSigWallet-2/MultiSigWallet.sol\":3789:3806  transaction.value */\n      0x01\n      add\n      sload\n        /* \"MultiSigWallet-2/MultiSigWallet.sol\":3756:3807  transaction.destination.transfer(transaction.value) */\n      swap1\n      dup2\n      iszero\n      mul\n      swap1\n      mload(0x40)\n      0x00\n      mload(0x40)\n      dup1\n      dup4\n      sub\n      dup2\n      dup6\n      dup9\n      dup9\n      call\n      swap4\n      pop\n      pop\n      pop\n      pop\n      iszero\n        /* \"--CODEGEN--\":8:17   */\n      dup1\n        /* \"--CODEGEN--\":5:7   */\n      iszero\n      tag_152\n      jumpi\n        /* \"--CODEGEN--\":45:61   */\n      returndatasize\n        /* \"--CODEGEN--\":42:43   */\n      0x00\n        /* \"--CODEGEN--\":39:40   */\n      dup1\n        /* \"--CODEGEN--\":24:62   */\n      returndatacopy\n        /* \"--CODEGEN--\":77:93   */\n      returndatasize\n        /* \"--CODEGEN--\":74:75   */\n      0x00\n        /* \"--CODEGEN--\":67:94   */\n      revert\n        /* \"--CODEGEN--\":5:7   */\n    tag_152:\n        /* \"MultiSigWallet-2/MultiSigWallet.sol\":3756:3807  transaction.destination.transfer(transaction.value) */\n      pop\n        /* \"MultiSigWallet-2/MultiSigWallet.sol\":3446:4140  if (transaction.data.length < 1) {... */\n      pop\n      jump(tag_153)\n    tag_148:\n        /* \"MultiSigWallet-2/MultiSigWallet.sol\":3875:3887  bool success */\n      0x00\n        /* \"MultiSigWallet-2/MultiSigWallet.sol\":3890:4069  _external_call(... */\n      tag_154\n        /* \"MultiSigWallet-2/MultiSigWallet.sol\":3922:3933  transaction */\n      dup3\n        /* \"MultiSigWallet-2/MultiSigWallet.sol\":3922:3945  transaction.destination */\n      0x00\n      add\n      0x00\n      swap1\n      sload\n      swap1\n      0x0100\n      exp\n      swap1\n      div\n      0xffffffffffffffffffffffffffffffffffffffff\n      and\n        /* \"MultiSigWallet-2/MultiSigWallet.sol\":3963:3974  transaction */\n      dup4\n        /* \"MultiSigWallet-2/MultiSigWallet.sol\":3963:3980  transaction.value */\n      0x01\n      add\n      sload\n        /* \"MultiSigWallet-2/MultiSigWallet.sol\":3998:4009  transaction */\n      dup5\n        /* \"MultiSigWallet-2/MultiSigWallet.sol\":3998:4014  transaction.data */\n      0x02\n      add\n        /* \"MultiSigWallet-2/MultiSigWallet.sol\":3998:4021  transaction.data.length */\n      dup1\n      sload\n      0x01\n      dup2\n      0x01\n      and\n      iszero\n      0x0100\n      mul\n      sub\n      and\n      0x02\n      swap1\n      div\n      swap1\n      pop\n        /* \"MultiSigWallet-2/MultiSigWallet.sol\":4039:4050  transaction */\n      dup6\n        /* \"MultiSigWallet-2/MultiSigWallet.sol\":4039:4055  transaction.data */\n      0x02\n      add\n        /* \"MultiSigWallet-2/MultiSigWallet.sol\":3890:4069  _external_call(... */\n      dup1\n      sload\n      0x01\n      dup2\n      0x01\n      and\n      iszero\n      0x0100\n      mul\n      sub\n      and\n      0x02\n      swap1\n      div\n      dup1\n      0x1f\n      add\n      0x20\n      dup1\n      swap2\n      div\n      mul\n      0x20\n      add\n      mload(0x40)\n      swap1\n      dup2\n      add\n      0x40\n      mstore\n      dup1\n      swap3\n      swap2\n      swap1\n      dup2\n      dup2\n      mstore\n      0x20\n      add\n      dup3\n      dup1\n      sload\n      0x01\n      dup2\n      0x01\n      and\n      iszero\n      0x0100\n      mul\n      sub\n      and\n      0x02\n      swap1\n      div\n      dup1\n      iszero\n      tag_155\n      jumpi\n      dup1\n      0x1f\n      lt\n      tag_156\n      jumpi\n      0x0100\n      dup1\n      dup4\n      sload\n      div\n      mul\n      dup4\n      mstore\n      swap2\n      0x20\n      add\n      swap2\n      jump(tag_155)\n    tag_156:\n      dup3\n      add\n      swap2\n      swap1\n      0x00\n      mstore\n      keccak256(0x00, 0x20)\n      swap1\n    tag_157:\n      dup2\n      sload\n      dup2\n      mstore\n      swap1\n      0x01\n      add\n      swap1\n      0x20\n      add\n      dup1\n      dup4\n      gt\n      tag_157\n      jumpi\n      dup3\n      swap1\n      sub\n      0x1f\n      and\n      dup3\n      add\n      swap2\n    tag_155:\n      pop\n      pop\n      pop\n      pop\n      pop\n        /* \"MultiSigWallet-2/MultiSigWallet.sol\":3890:3904  _external_call */\n      tag_158\n        /* \"MultiSigWallet-2/MultiSigWallet.sol\":3890:4069  _external_call(... */\n      jump\t// in\n    tag_154:\n        /* \"MultiSigWallet-2/MultiSigWallet.sol\":3875:4069  bool success = _external_call(... */\n      swap1\n      pop\n        /* \"MultiSigWallet-2/MultiSigWallet.sol\":4091:4098  success */\n      dup1\n        /* \"MultiSigWallet-2/MultiSigWallet.sol\":4083:4129  require(success, \"Error : Failed Transaction\") */\n      tag_159\n      jumpi\n      mload(0x40)\n      0x08c379a000000000000000000000000000000000000000000000000000000000\n      dup2\n      mstore\n      0x04\n      add\n      tag_160\n      swap1\n      jump(tag_161)\n    tag_160:\n      mload(0x40)\n      dup1\n      swap2\n      sub\n      swap1\n      revert\n    tag_159:\n        /* \"MultiSigWallet-2/MultiSigWallet.sol\":3446:4140  if (transaction.data.length < 1) {... */\n      pop\n    tag_153:\n        /* \"MultiSigWallet-2/MultiSigWallet.sol\":4173:4177  true */\n      0x01\n        /* \"MultiSigWallet-2/MultiSigWallet.sol\":4150:4161  transaction */\n      dup2\n        /* \"MultiSigWallet-2/MultiSigWallet.sol\":4150:4170  transaction.executed */\n      0x03\n      add\n      0x00\n        /* \"MultiSigWallet-2/MultiSigWallet.sol\":4150:4177  transaction.executed = true */\n      0x0100\n      exp\n      dup2\n      sload\n      dup2\n      0xff\n      mul\n      not\n      and\n      swap1\n      dup4\n      iszero\n      iszero\n      mul\n      or\n      swap1\n      sstore\n      pop\n        /* \"MultiSigWallet-2/MultiSigWallet.sol\":1138:1139  _ */\n      pop\n        /* \"MultiSigWallet-2/MultiSigWallet.sol\":704:705  _ */\n      pop\n        /* \"MultiSigWallet-2/MultiSigWallet.sol\":3239:4184  function excute(uint256 _txIndex)... */\n      pop\n      pop\n      jump\t// out\n        /* \"MultiSigWallet-2/MultiSigWallet.sol\":5979:6079  function viewbalance() external view returns (uint256) {... */\n    tag_55:\n        /* \"MultiSigWallet-2/MultiSigWallet.sol\":6025:6032  uint256 */\n      0x00\n        /* \"MultiSigWallet-2/MultiSigWallet.sol\":6051:6072  address(this).balance */\n      selfbalance\n        /* \"MultiSigWallet-2/MultiSigWallet.sol\":6044:6072  return address(this).balance */\n      swap1\n      pop\n        /* \"MultiSigWallet-2/MultiSigWallet.sol\":5979:6079  function viewbalance() external view returns (uint256) {... */\n      swap1\n      jump\t// out\n        /* \"MultiSigWallet-2/MultiSigWallet.sol\":2252:2423  function addProposer(address _newOwner) public onlyMaster {... */\n    tag_61:\n        /* \"MultiSigWallet-2/MultiSigWallet.sol\":1085:1091  master */\n      0x03\n      0x00\n      swap1\n      sload\n      swap1\n      0x0100\n      exp\n      swap1\n      div\n      0xffffffffffffffffffffffffffffffffffffffff\n      and\n        /* \"MultiSigWallet-2/MultiSigWallet.sol\":1071:1091  msg.sender == master */\n      0xffffffffffffffffffffffffffffffffffffffff\n      and\n        /* \"MultiSigWallet-2/MultiSigWallet.sol\":1071:1081  msg.sender */\n      caller\n        /* \"MultiSigWallet-2/MultiSigWallet.sol\":1071:1091  msg.sender == master */\n      0xffffffffffffffffffffffffffffffffffffffff\n      and\n      eq\n        /* \"MultiSigWallet-2/MultiSigWallet.sol\":1063:1128  require(msg.sender == master, \"Error : msg.sender is Not Master\") */\n      tag_164\n      jumpi\n      mload(0x40)\n      0x08c379a000000000000000000000000000000000000000000000000000000000\n      dup2\n      mstore\n      0x04\n      add\n      tag_165\n      swap1\n      jump(tag_101)\n    tag_165:\n      mload(0x40)\n      dup1\n      swap2\n      sub\n      swap1\n      revert\n    tag_164:\n        /* \"MultiSigWallet-2/MultiSigWallet.sol\":2329:2337  proposer */\n      0x00\n        /* \"MultiSigWallet-2/MultiSigWallet.sol\":2329:2348  proposer[_newOwner] */\n      dup1\n        /* \"MultiSigWallet-2/MultiSigWallet.sol\":2338:2347  _newOwner */\n      dup3\n        /* \"MultiSigWallet-2/MultiSigWallet.sol\":2329:2348  proposer[_newOwner] */\n      0xffffffffffffffffffffffffffffffffffffffff\n      and\n      0xffffffffffffffffffffffffffffffffffffffff\n      and\n      dup2\n      mstore\n      0x20\n      add\n      swap1\n      dup2\n      mstore\n      0x20\n      add\n      0x00\n      keccak256\n      0x00\n      swap1\n      sload\n      swap1\n      0x0100\n      exp\n      swap1\n      div\n      0xff\n      and\n        /* \"MultiSigWallet-2/MultiSigWallet.sol\":2328:2348  !proposer[_newOwner] */\n      iszero\n        /* \"MultiSigWallet-2/MultiSigWallet.sol\":2320:2380  require(!proposer[_newOwner], \"Error : already in OwnerMap\") */\n      tag_167\n      jumpi\n      mload(0x40)\n      0x08c379a000000000000000000000000000000000000000000000000000000000\n      dup2\n      mstore\n      0x04\n      add\n      tag_168\n      swap1\n      jump(tag_169)\n    tag_168:\n      mload(0x40)\n      dup1\n      swap2\n      sub\n      swap1\n      revert\n    tag_167:\n        /* \"MultiSigWallet-2/MultiSigWallet.sol\":2412:2416  true */\n      0x01\n        /* \"MultiSigWallet-2/MultiSigWallet.sol\":2390:2398  proposer */\n      0x00\n        /* \"MultiSigWallet-2/MultiSigWallet.sol\":2390:2409  proposer[_newOwner] */\n      dup1\n        /* \"MultiSigWallet-2/MultiSigWallet.sol\":2399:2408  _newOwner */\n      dup4\n        /* \"MultiSigWallet-2/MultiSigWallet.sol\":2390:2409  proposer[_newOwner] */\n      0xffffffffffffffffffffffffffffffffffffffff\n      and\n      0xffffffffffffffffffffffffffffffffffffffff\n      and\n      dup2\n      mstore\n      0x20\n      add\n      swap1\n      dup2\n      mstore\n      0x20\n      add\n      0x00\n      keccak256\n      0x00\n        /* \"MultiSigWallet-2/MultiSigWallet.sol\":2390:2416  proposer[_newOwner] = true */\n      0x0100\n      exp\n      dup2\n      sload\n      dup2\n      0xff\n      mul\n      not\n      and\n      swap1\n      dup4\n      iszero\n      iszero\n      mul\n      or\n      swap1\n      sstore\n      pop\n        /* \"MultiSigWallet-2/MultiSigWallet.sol\":2252:2423  function addProposer(address _newOwner) public onlyMaster {... */\n      pop\n      jump\t// out\n        /* \"MultiSigWallet-2/MultiSigWallet.sol\":3026:3233  function approve(uint256 _txId)... */\n    tag_65:\n        /* \"MultiSigWallet-2/MultiSigWallet.sol\":478:486  proposer */\n      0x00\n        /* \"MultiSigWallet-2/MultiSigWallet.sol\":478:498  proposer[msg.sender] */\n      dup1\n        /* \"MultiSigWallet-2/MultiSigWallet.sol\":487:497  msg.sender */\n      caller\n        /* \"MultiSigWallet-2/MultiSigWallet.sol\":478:498  proposer[msg.sender] */\n      0xffffffffffffffffffffffffffffffffffffffff\n      and\n      0xffffffffffffffffffffffffffffffffffffffff\n      and\n      dup2\n      mstore\n      0x20\n      add\n      swap1\n      dup2\n      mstore\n      0x20\n      add\n      0x00\n      keccak256\n      0x00\n      swap1\n      sload\n      swap1\n      0x0100\n      exp\n      swap1\n      div\n      0xff\n      and\n        /* \"MultiSigWallet-2/MultiSigWallet.sol\":470:521  require(proposer[msg.sender], \"Error : Not Owner!\") */\n      tag_171\n      jumpi\n      mload(0x40)\n      0x08c379a000000000000000000000000000000000000000000000000000000000\n      dup2\n      mstore\n      0x04\n      add\n      tag_172\n      swap1\n      jump(tag_75)\n    tag_172:\n      mload(0x40)\n      dup1\n      swap2\n      sub\n      swap1\n      revert\n    tag_171:\n        /* \"MultiSigWallet-2/MultiSigWallet.sol\":3113:3118  _txId */\n      dup1\n        /* \"MultiSigWallet-2/MultiSigWallet.sol\":617:629  transactions */\n      0x04\n        /* \"MultiSigWallet-2/MultiSigWallet.sol\":617:636  transactions.length */\n      dup1\n      sload\n      swap1\n      pop\n        /* \"MultiSigWallet-2/MultiSigWallet.sol\":609:614  _txId */\n      dup2\n        /* \"MultiSigWallet-2/MultiSigWallet.sol\":609:636  _txId < transactions.length */\n      lt\n        /* \"MultiSigWallet-2/MultiSigWallet.sol\":588:694  require(... */\n      tag_174\n      jumpi\n      mload(0x40)\n      0x08c379a000000000000000000000000000000000000000000000000000000000\n      dup2\n      mstore\n      0x04\n      add\n      tag_175\n      swap1\n      jump(tag_91)\n    tag_175:\n      mload(0x40)\n      dup1\n      swap2\n      sub\n      swap1\n      revert\n    tag_174:\n        /* \"MultiSigWallet-2/MultiSigWallet.sol\":3140:3145  _txId */\n      dup2\n        /* \"MultiSigWallet-2/MultiSigWallet.sol\":786:799  confirmations */\n      0x01\n        /* \"MultiSigWallet-2/MultiSigWallet.sol\":786:806  confirmations[_txId] */\n      0x00\n        /* \"MultiSigWallet-2/MultiSigWallet.sol\":800:805  _txId */\n      dup3\n        /* \"MultiSigWallet-2/MultiSigWallet.sol\":786:806  confirmations[_txId] */\n      dup2\n      mstore\n      0x20\n      add\n      swap1\n      dup2\n      mstore\n      0x20\n      add\n      0x00\n      keccak256\n        /* \"MultiSigWallet-2/MultiSigWallet.sol\":786:818  confirmations[_txId][msg.sender] */\n      0x00\n        /* \"MultiSigWallet-2/MultiSigWallet.sol\":807:817  msg.sender */\n      caller\n        /* \"MultiSigWallet-2/MultiSigWallet.sol\":786:818  confirmations[_txId][msg.sender] */\n      0xffffffffffffffffffffffffffffffffffffffff\n      and\n      0xffffffffffffffffffffffffffffffffffffffff\n      and\n      dup2\n      mstore\n      0x20\n      add\n      swap1\n      dup2\n      mstore\n      0x20\n      add\n      0x00\n      keccak256\n      0x00\n      swap1\n      sload\n      swap1\n      0x0100\n      exp\n      swap1\n      div\n      0xff\n      and\n        /* \"MultiSigWallet-2/MultiSigWallet.sol\":785:818  !confirmations[_txId][msg.sender] */\n      iszero\n        /* \"MultiSigWallet-2/MultiSigWallet.sol\":764:871  require(... */\n      tag_177\n      jumpi\n      mload(0x40)\n      0x08c379a000000000000000000000000000000000000000000000000000000000\n      dup2\n      mstore\n      0x04\n      add\n      tag_178\n      swap1\n      jump(tag_179)\n    tag_178:\n      mload(0x40)\n      dup1\n      swap2\n      sub\n      swap1\n      revert\n    tag_177:\n        /* \"MultiSigWallet-2/MultiSigWallet.sol\":3166:3171  _txId */\n      dup3\n        /* \"MultiSigWallet-2/MultiSigWallet.sol\":949:961  transactions */\n      0x04\n        /* \"MultiSigWallet-2/MultiSigWallet.sol\":962:967  _txId */\n      dup2\n        /* \"MultiSigWallet-2/MultiSigWallet.sol\":949:968  transactions[_txId] */\n      dup2\n      sload\n      dup2\n      lt\n      tag_181\n      jumpi\n      invalid\n    tag_181:\n      swap1\n      0x00\n      mstore\n      keccak256(0x00, 0x20)\n      swap1\n      0x04\n      mul\n      add\n        /* \"MultiSigWallet-2/MultiSigWallet.sol\":949:977  transactions[_txId].executed */\n      0x03\n      add\n      0x00\n      swap1\n      sload\n      swap1\n      0x0100\n      exp\n      swap1\n      div\n      0xff\n      and\n        /* \"MultiSigWallet-2/MultiSigWallet.sol\":948:977  !transactions[_txId].executed */\n      iszero\n        /* \"MultiSigWallet-2/MultiSigWallet.sol\":940:1007  require(!transactions[_txId].executed, \"Error: tx already Excuted\") */\n      tag_183\n      jumpi\n      mload(0x40)\n      0x08c379a000000000000000000000000000000000000000000000000000000000\n      dup2\n      mstore\n      0x04\n      add\n      tag_184\n      swap1\n      jump(tag_97)\n    tag_184:\n      mload(0x40)\n      dup1\n      swap2\n      sub\n      swap1\n      revert\n    tag_183:\n        /* \"MultiSigWallet-2/MultiSigWallet.sol\":3222:3226  true */\n      0x01\n        /* \"MultiSigWallet-2/MultiSigWallet.sol\":3187:3200  confirmations */\n      dup1\n        /* \"MultiSigWallet-2/MultiSigWallet.sol\":3187:3207  confirmations[_txId] */\n      0x00\n        /* \"MultiSigWallet-2/MultiSigWallet.sol\":3201:3206  _txId */\n      dup7\n        /* \"MultiSigWallet-2/MultiSigWallet.sol\":3187:3207  confirmations[_txId] */\n      dup2\n      mstore\n      0x20\n      add\n      swap1\n      dup2\n      mstore\n      0x20\n      add\n      0x00\n      keccak256\n        /* \"MultiSigWallet-2/MultiSigWallet.sol\":3187:3219  confirmations[_txId][msg.sender] */\n      0x00\n        /* \"MultiSigWallet-2/MultiSigWallet.sol\":3208:3218  msg.sender */\n      caller\n        /* \"MultiSigWallet-2/MultiSigWallet.sol\":3187:3219  confirmations[_txId][msg.sender] */\n      0xffffffffffffffffffffffffffffffffffffffff\n      and\n      0xffffffffffffffffffffffffffffffffffffffff\n      and\n      dup2\n      mstore\n      0x20\n      add\n      swap1\n      dup2\n      mstore\n      0x20\n      add\n      0x00\n      keccak256\n      0x00\n        /* \"MultiSigWallet-2/MultiSigWallet.sol\":3187:3226  confirmations[_txId][msg.sender] = true */\n      0x0100\n      exp\n      dup2\n      sload\n      dup2\n      0xff\n      mul\n      not\n      and\n      swap1\n      dup4\n      iszero\n      iszero\n      mul\n      or\n      swap1\n      sstore\n      pop\n        /* \"MultiSigWallet-2/MultiSigWallet.sol\":881:882  _ */\n      pop\n        /* \"MultiSigWallet-2/MultiSigWallet.sol\":704:705  _ */\n      pop\n        /* \"MultiSigWallet-2/MultiSigWallet.sol\":531:532  _ */\n      pop\n        /* \"MultiSigWallet-2/MultiSigWallet.sol\":3026:3233  function approve(uint256 _txId)... */\n      pop\n      jump\t// out\n        /* \"MultiSigWallet-2/MultiSigWallet.sol\":4364:5133  function submitByMaster(... */\n    tag_69:\n        /* \"MultiSigWallet-2/MultiSigWallet.sol\":1085:1091  master */\n      0x03\n      0x00\n      swap1\n      sload\n      swap1\n      0x0100\n      exp\n      swap1\n      div\n      0xffffffffffffffffffffffffffffffffffffffff\n      and\n        /* \"MultiSigWallet-2/MultiSigWallet.sol\":1071:1091  msg.sender == master */\n      0xffffffffffffffffffffffffffffffffffffffff\n      and\n        /* \"MultiSigWallet-2/MultiSigWallet.sol\":1071:1081  msg.sender */\n      caller\n        /* \"MultiSigWallet-2/MultiSigWallet.sol\":1071:1091  msg.sender == master */\n      0xffffffffffffffffffffffffffffffffffffffff\n      and\n      eq\n        /* \"MultiSigWallet-2/MultiSigWallet.sol\":1063:1128  require(msg.sender == master, \"Error : msg.sender is Not Master\") */\n      tag_187\n      jumpi\n      mload(0x40)\n      0x08c379a000000000000000000000000000000000000000000000000000000000\n      dup2\n      mstore\n      0x04\n      add\n      tag_188\n      swap1\n      jump(tag_101)\n    tag_188:\n      mload(0x40)\n      dup1\n      swap2\n      sub\n      swap1\n      revert\n    tag_187:\n        /* \"MultiSigWallet-2/MultiSigWallet.sol\":4523:4535  _destination */\n      dup4\n        /* \"MultiSigWallet-2/MultiSigWallet.sol\":4537:4542  _data */\n      dup4\n      dup4\n        /* \"MultiSigWallet-2/MultiSigWallet.sol\":1279:1710  modifier checkTransaction(... */\n      dup1\n      dup1\n      0x1f\n      add\n      0x20\n      dup1\n      swap2\n      div\n      mul\n      0x20\n      add\n      mload(0x40)\n      swap1\n      dup2\n      add\n      0x40\n      mstore\n      dup1\n      swap4\n      swap3\n      swap2\n      swap1\n      dup2\n      dup2\n      mstore\n      0x20\n      add\n      dup4\n      dup4\n        /* \"--CODEGEN--\":30:33   */\n      dup1\n        /* \"--CODEGEN--\":22:28   */\n      dup3\n        /* \"--CODEGEN--\":14:20   */\n      dup5\n        /* \"--CODEGEN--\":1:34   */\n      calldatacopy\n        /* \"--CODEGEN--\":99:100   */\n      0x00\n        /* \"--CODEGEN--\":93:96   */\n      dup2\n        /* \"--CODEGEN--\":85:91   */\n      dup5\n        /* \"--CODEGEN--\":81:97   */\n      add\n        /* \"--CODEGEN--\":74:101   */\n      mstore\n        /* \"--CODEGEN--\":137:141   */\n      0x1f\n        /* \"--CODEGEN--\":133:142   */\n      not\n        /* \"--CODEGEN--\":126:130   */\n      0x1f\n        /* \"--CODEGEN--\":121:124   */\n      dup3\n        /* \"--CODEGEN--\":117:131   */\n      add\n        /* \"--CODEGEN--\":113:143   */\n      and\n        /* \"--CODEGEN--\":106:143   */\n      swap1\n      pop\n        /* \"--CODEGEN--\":169:172   */\n      dup1\n        /* \"--CODEGEN--\":161:167   */\n      dup4\n        /* \"--CODEGEN--\":157:173   */\n      add\n        /* \"--CODEGEN--\":147:173   */\n      swap3\n      pop\n        /* \"MultiSigWallet-2/MultiSigWallet.sol\":1279:1710  modifier checkTransaction(... */\n      pop\n      pop\n      pop\n      pop\n      pop\n      pop\n        /* \"MultiSigWallet-2/MultiSigWallet.sol\":4544:4550  _value */\n      dup3\n        /* \"MultiSigWallet-2/MultiSigWallet.sol\":1448:1451  0x0 */\n      0x00\n        /* \"MultiSigWallet-2/MultiSigWallet.sol\":1424:1452  _destination != address(0x0) */\n      0xffffffffffffffffffffffffffffffffffffffff\n      and\n        /* \"MultiSigWallet-2/MultiSigWallet.sol\":1424:1436  _destination */\n      dup4\n        /* \"MultiSigWallet-2/MultiSigWallet.sol\":1424:1452  _destination != address(0x0) */\n      0xffffffffffffffffffffffffffffffffffffffff\n      and\n      eq\n      iszero\n        /* \"MultiSigWallet-2/MultiSigWallet.sol\":1403:1513  require(... */\n      tag_190\n      jumpi\n      mload(0x40)\n      0x08c379a000000000000000000000000000000000000000000000000000000000\n      dup2\n      mstore\n      0x04\n      add\n      tag_191\n      swap1\n      jump(tag_79)\n    tag_191:\n      mload(0x40)\n      dup1\n      swap2\n      sub\n      swap1\n      revert\n    tag_190:\n        /* \"MultiSigWallet-2/MultiSigWallet.sol\":1543:1544  1 */\n      0x01\n        /* \"MultiSigWallet-2/MultiSigWallet.sol\":1528:1533  _data */\n      dup3\n        /* \"MultiSigWallet-2/MultiSigWallet.sol\":1528:1540  _data.length */\n      mload\n        /* \"MultiSigWallet-2/MultiSigWallet.sol\":1528:1544  _data.length < 1 */\n      lt\n        /* \"MultiSigWallet-2/MultiSigWallet.sol\":1524:1692  if (_data.length < 1) {... */\n      iszero\n      tag_192\n      jumpi\n        /* \"MultiSigWallet-2/MultiSigWallet.sol\":1594:1595  1 */\n      0x01\n        /* \"MultiSigWallet-2/MultiSigWallet.sol\":1585:1591  _value */\n      dup2\n        /* \"MultiSigWallet-2/MultiSigWallet.sol\":1585:1595  _value > 1 */\n      gt\n        /* \"MultiSigWallet-2/MultiSigWallet.sol\":1560:1681  require(... */\n      tag_193\n      jumpi\n      mload(0x40)\n      0x08c379a000000000000000000000000000000000000000000000000000000000\n      dup2\n      mstore\n      0x04\n      add\n      tag_194\n      swap1\n      jump(tag_83)\n    tag_194:\n      mload(0x40)\n      dup1\n      swap2\n      sub\n      swap1\n      revert\n    tag_193:\n        /* \"MultiSigWallet-2/MultiSigWallet.sol\":1524:1692  if (_data.length < 1) {... */\n    tag_192:\n        /* \"MultiSigWallet-2/MultiSigWallet.sol\":4581:4582  1 */\n      0x01\n        /* \"MultiSigWallet-2/MultiSigWallet.sol\":4566:4571  _data */\n      dup7\n      dup7\n        /* \"MultiSigWallet-2/MultiSigWallet.sol\":4566:4578  _data.length */\n      swap1\n      pop\n        /* \"MultiSigWallet-2/MultiSigWallet.sol\":4566:4582  _data.length < 1 */\n      lt\n        /* \"MultiSigWallet-2/MultiSigWallet.sol\":4562:5127  if (_data.length < 1) {... */\n      iszero\n      tag_196\n      jumpi\n        /* \"MultiSigWallet-2/MultiSigWallet.sol\":4712:4733  uint256 beforeBalance */\n      0x00\n        /* \"MultiSigWallet-2/MultiSigWallet.sol\":4736:4757  address(this).balance */\n      selfbalance\n        /* \"MultiSigWallet-2/MultiSigWallet.sol\":4712:4757  uint256 beforeBalance = address(this).balance */\n      swap1\n      pop\n        /* \"MultiSigWallet-2/MultiSigWallet.sol\":4797:4803  _value */\n      dup5\n        /* \"MultiSigWallet-2/MultiSigWallet.sol\":4780:4793  beforeBalance */\n      dup2\n        /* \"MultiSigWallet-2/MultiSigWallet.sol\":4780:4803  beforeBalance >= _value */\n      lt\n      iszero\n        /* \"MultiSigWallet-2/MultiSigWallet.sol\":4772:4831  require(beforeBalance >= _value, \"Error : Not Enough Klay\") */\n      tag_197\n      jumpi\n      mload(0x40)\n      0x08c379a000000000000000000000000000000000000000000000000000000000\n      dup2\n      mstore\n      0x04\n      add\n      tag_198\n      swap1\n      jump(tag_151)\n    tag_198:\n      mload(0x40)\n      dup1\n      swap2\n      sub\n      swap1\n      revert\n    tag_197:\n        /* \"MultiSigWallet-2/MultiSigWallet.sol\":4846:4858  _destination */\n      dup8\n        /* \"MultiSigWallet-2/MultiSigWallet.sol\":4846:4867  _destination.transfer */\n      0xffffffffffffffffffffffffffffffffffffffff\n      and\n        /* \"MultiSigWallet-2/MultiSigWallet.sol\":4846:4875  _destination.transfer(_value) */\n      0x08fc\n        /* \"MultiSigWallet-2/MultiSigWallet.sol\":4868:4874  _value */\n      dup7\n        /* \"MultiSigWallet-2/MultiSigWallet.sol\":4846:4875  _destination.transfer(_value) */\n      swap1\n      dup2\n      iszero\n      mul\n      swap1\n      mload(0x40)\n      0x00\n      mload(0x40)\n      dup1\n      dup4\n      sub\n      dup2\n      dup6\n      dup9\n      dup9\n      call\n      swap4\n      pop\n      pop\n      pop\n      pop\n      iszero\n        /* \"--CODEGEN--\":8:17   */\n      dup1\n        /* \"--CODEGEN--\":5:7   */\n      iszero\n      tag_199\n      jumpi\n        /* \"--CODEGEN--\":45:61   */\n      returndatasize\n        /* \"--CODEGEN--\":42:43   */\n      0x00\n        /* \"--CODEGEN--\":39:40   */\n      dup1\n        /* \"--CODEGEN--\":24:62   */\n      returndatacopy\n        /* \"--CODEGEN--\":77:93   */\n      returndatasize\n        /* \"--CODEGEN--\":74:75   */\n      0x00\n        /* \"--CODEGEN--\":67:94   */\n      revert\n        /* \"--CODEGEN--\":5:7   */\n    tag_199:\n        /* \"MultiSigWallet-2/MultiSigWallet.sol\":4846:4875  _destination.transfer(_value) */\n      pop\n        /* \"MultiSigWallet-2/MultiSigWallet.sol\":4562:5127  if (_data.length < 1) {... */\n      pop\n      jump(tag_200)\n    tag_196:\n        /* \"MultiSigWallet-2/MultiSigWallet.sol\":4906:4918  bool success */\n      0x00\n        /* \"MultiSigWallet-2/MultiSigWallet.sol\":4921:5056  _external_call(... */\n      tag_201\n        /* \"MultiSigWallet-2/MultiSigWallet.sol\":4953:4965  _destination */\n      dup9\n        /* \"MultiSigWallet-2/MultiSigWallet.sol\":4983:4989  _value */\n      dup7\n        /* \"MultiSigWallet-2/MultiSigWallet.sol\":5007:5012  _data */\n      dup10\n      dup10\n        /* \"MultiSigWallet-2/MultiSigWallet.sol\":5007:5019  _data.length */\n      swap1\n      pop\n        /* \"MultiSigWallet-2/MultiSigWallet.sol\":5037:5042  _data */\n      dup11\n      dup11\n        /* \"MultiSigWallet-2/MultiSigWallet.sol\":4921:5056  _external_call(... */\n      dup1\n      dup1\n      0x1f\n      add\n      0x20\n      dup1\n      swap2\n      div\n      mul\n      0x20\n      add\n      mload(0x40)\n      swap1\n      dup2\n      add\n      0x40\n      mstore\n      dup1\n      swap4\n      swap3\n      swap2\n      swap1\n      dup2\n      dup2\n      mstore\n      0x20\n      add\n      dup4\n      dup4\n        /* \"--CODEGEN--\":30:33   */\n      dup1\n        /* \"--CODEGEN--\":22:28   */\n      dup3\n        /* \"--CODEGEN--\":14:20   */\n      dup5\n        /* \"--CODEGEN--\":1:34   */\n      calldatacopy\n        /* \"--CODEGEN--\":99:100   */\n      0x00\n        /* \"--CODEGEN--\":93:96   */\n      dup2\n        /* \"--CODEGEN--\":85:91   */\n      dup5\n        /* \"--CODEGEN--\":81:97   */\n      add\n        /* \"--CODEGEN--\":74:101   */\n      mstore\n        /* \"--CODEGEN--\":137:141   */\n      0x1f\n        /* \"--CODEGEN--\":133:142   */\n      not\n        /* \"--CODEGEN--\":126:130   */\n      0x1f\n        /* \"--CODEGEN--\":121:124   */\n      dup3\n        /* \"--CODEGEN--\":117:131   */\n      add\n        /* \"--CODEGEN--\":113:143   */\n      and\n        /* \"--CODEGEN--\":106:143   */\n      swap1\n      pop\n        /* \"--CODEGEN--\":169:172   */\n      dup1\n        /* \"--CODEGEN--\":161:167   */\n      dup4\n        /* \"--CODEGEN--\":157:173   */\n      add\n        /* \"--CODEGEN--\":147:173   */\n      swap3\n      pop\n        /* \"MultiSigWallet-2/MultiSigWallet.sol\":4921:5056  _external_call(... */\n      pop\n      pop\n      pop\n      pop\n      pop\n      pop\n        /* \"MultiSigWallet-2/MultiSigWallet.sol\":4921:4935  _external_call */\n      tag_158\n        /* \"MultiSigWallet-2/MultiSigWallet.sol\":4921:5056  _external_call(... */\n      jump\t// in\n    tag_201:\n        /* \"MultiSigWallet-2/MultiSigWallet.sol\":4906:5056  bool success = _external_call(... */\n      swap1\n      pop\n        /* \"MultiSigWallet-2/MultiSigWallet.sol\":5078:5085  success */\n      dup1\n        /* \"MultiSigWallet-2/MultiSigWallet.sol\":5070:5116  require(success, \"Error : Failed Transaction\") */\n      tag_202\n      jumpi\n      mload(0x40)\n      0x08c379a000000000000000000000000000000000000000000000000000000000\n      dup2\n      mstore\n      0x04\n      add\n      tag_203\n      swap1\n      jump(tag_161)\n    tag_203:\n      mload(0x40)\n      dup1\n      swap2\n      sub\n      swap1\n      revert\n    tag_202:\n        /* \"MultiSigWallet-2/MultiSigWallet.sol\":4562:5127  if (_data.length < 1) {... */\n      pop\n    tag_200:\n        /* \"MultiSigWallet-2/MultiSigWallet.sol\":1138:1139  _ */\n      pop\n      pop\n      pop\n        /* \"MultiSigWallet-2/MultiSigWallet.sol\":4364:5133  function submitByMaster(... */\n      pop\n      pop\n      pop\n      pop\n      jump\t// out\n        /* \"MultiSigWallet-2/MultiSigWallet.sol\":2162:2246  function deposit() public payable {... */\n    tag_71:\n        /* \"MultiSigWallet-2/MultiSigWallet.sol\":2214:2218  this */\n      address\n        /* \"MultiSigWallet-2/MultiSigWallet.sol\":2206:2228  address(this).transfer */\n      0xffffffffffffffffffffffffffffffffffffffff\n      and\n        /* \"MultiSigWallet-2/MultiSigWallet.sol\":2206:2239  address(this).transfer(msg.value) */\n      0x08fc\n        /* \"MultiSigWallet-2/MultiSigWallet.sol\":2229:2238  msg.value */\n      callvalue\n        /* \"MultiSigWallet-2/MultiSigWallet.sol\":2206:2239  address(this).transfer(msg.value) */\n      swap1\n      dup2\n      iszero\n      mul\n      swap1\n      mload(0x40)\n      0x00\n      mload(0x40)\n      dup1\n      dup4\n      sub\n      dup2\n      dup6\n      dup9\n      dup9\n      call\n      swap4\n      pop\n      pop\n      pop\n      pop\n      iszero\n        /* \"--CODEGEN--\":8:17   */\n      dup1\n        /* \"--CODEGEN--\":5:7   */\n      iszero\n      tag_205\n      jumpi\n        /* \"--CODEGEN--\":45:61   */\n      returndatasize\n        /* \"--CODEGEN--\":42:43   */\n      0x00\n        /* \"--CODEGEN--\":39:40   */\n      dup1\n        /* \"--CODEGEN--\":24:62   */\n      returndatacopy\n        /* \"--CODEGEN--\":77:93   */\n      returndatasize\n        /* \"--CODEGEN--\":74:75   */\n      0x00\n        /* \"--CODEGEN--\":67:94   */\n      revert\n        /* \"--CODEGEN--\":5:7   */\n    tag_205:\n        /* \"MultiSigWallet-2/MultiSigWallet.sol\":2206:2239  address(this).transfer(msg.value) */\n      pop\n        /* \"MultiSigWallet-2/MultiSigWallet.sol\":2162:2246  function deposit() public payable {... */\n      jump\t// out\n        /* \"MultiSigWallet-2/MultiSigWallet.sol\":5139:5659  function _external_call(... */\n    tag_158:\n        /* \"MultiSigWallet-2/MultiSigWallet.sol\":5294:5298  bool */\n      0x00\n        /* \"MultiSigWallet-2/MultiSigWallet.sol\":5310:5321  bool result */\n      dup1\n        /* \"MultiSigWallet-2/MultiSigWallet.sol\":5369:5373  0x40 */\n      0x40\n        /* \"MultiSigWallet-2/MultiSigWallet.sol\":5363:5374  mload(0x40) */\n      mload\n        /* \"MultiSigWallet-2/MultiSigWallet.sol\":5406:5408  32 */\n      0x20\n        /* \"MultiSigWallet-2/MultiSigWallet.sol\":5400:5404  data */\n      dup5\n        /* \"MultiSigWallet-2/MultiSigWallet.sol\":5396:5409  add(data, 32) */\n      add\n        /* \"MultiSigWallet-2/MultiSigWallet.sol\":5605:5606  0 */\n      0x00\n        /* \"MultiSigWallet-2/MultiSigWallet.sol\":5586:5587  x */\n      dup3\n        /* \"MultiSigWallet-2/MultiSigWallet.sol\":5558:5568  dataLength */\n      dup8\n        /* \"MultiSigWallet-2/MultiSigWallet.sol\":5539:5540  d */\n      dup4\n        /* \"MultiSigWallet-2/MultiSigWallet.sol\":5516:5521  value */\n      dup11\n        /* \"MultiSigWallet-2/MultiSigWallet.sol\":5487:5498  destination */\n      dup13\n        /* \"MultiSigWallet-2/MultiSigWallet.sol\":5463:5468  34710 */\n      0x8796\n        /* \"MultiSigWallet-2/MultiSigWallet.sol\":5458:5461  gas */\n      gas\n        /* \"MultiSigWallet-2/MultiSigWallet.sol\":5454:5469  sub(gas, 34710) */\n      sub\n        /* \"MultiSigWallet-2/MultiSigWallet.sol\":5432:5620  call(... */\n      call\n        /* \"MultiSigWallet-2/MultiSigWallet.sol\":5422:5620  result := call(... */\n      swap3\n      pop\n        /* \"MultiSigWallet-2/MultiSigWallet.sol\":5340:5630  {... */\n      pop\n      pop\n        /* \"MultiSigWallet-2/MultiSigWallet.sol\":5646:5652  result */\n      dup1\n        /* \"MultiSigWallet-2/MultiSigWallet.sol\":5639:5652  return result */\n      swap2\n      pop\n      pop\n        /* \"MultiSigWallet-2/MultiSigWallet.sol\":5139:5659  function _external_call(... */\n      swap5\n      swap4\n      pop\n      pop\n      pop\n      pop\n      jump\t// out\n        /* \"MultiSigWallet-2/MultiSigWallet.sol\":59:6081  contract MultiSigWallet {... */\n    tag_87:\n      dup3\n      dup1\n      sload\n      0x01\n      dup2\n      0x01\n      and\n      iszero\n      0x0100\n      mul\n      sub\n      and\n      0x02\n      swap1\n      div\n      swap1\n      0x00\n      mstore\n      keccak256(0x00, 0x20)\n      swap1\n      0x1f\n      add\n      0x20\n      swap1\n      div\n      dup2\n      add\n      swap3\n      dup3\n      0x1f\n      lt\n      tag_208\n      jumpi\n      dup1\n      mload\n      not(0xff)\n      and\n      dup4\n      dup1\n      add\n      or\n      dup6\n      sstore\n      jump(tag_207)\n    tag_208:\n      dup3\n      dup1\n      add\n      0x01\n      add\n      dup6\n      sstore\n      dup3\n      iszero\n      tag_207\n      jumpi\n      swap2\n      dup3\n      add\n    tag_209:\n      dup3\n      dup2\n      gt\n      iszero\n      tag_210\n      jumpi\n      dup3\n      mload\n      dup3\n      sstore\n      swap2\n      0x20\n      add\n      swap2\n      swap1\n      0x01\n      add\n      swap1\n      jump(tag_209)\n    tag_210:\n    tag_207:\n      pop\n      swap1\n      pop\n      tag_211\n      swap2\n      swap1\n      tag_212\n      jump\t// in\n    tag_211:\n      pop\n      swap1\n      jump\t// out\n    tag_106:\n      pop\n      dup1\n      sload\n      0x01\n      dup2\n      0x01\n      and\n      iszero\n      0x0100\n      mul\n      sub\n      and\n      0x02\n      swap1\n      div\n      0x00\n      dup3\n      sstore\n      dup1\n      0x1f\n      lt\n      tag_214\n      jumpi\n      pop\n      jump(tag_213)\n    tag_214:\n      0x1f\n      add\n      0x20\n      swap1\n      div\n      swap1\n      0x00\n      mstore\n      keccak256(0x00, 0x20)\n      swap1\n      dup2\n      add\n      swap1\n      tag_215\n      swap2\n      swap1\n      tag_212\n      jump\t// in\n    tag_215:\n    tag_213:\n      pop\n      jump\t// out\n    tag_122:\n      mload(0x40)\n      dup1\n      0x80\n      add\n      0x40\n      mstore\n      dup1\n      and(0xffffffffffffffffffffffffffffffffffffffff, 0x00)\n      dup2\n      mstore\n      0x20\n      add\n      0x00\n      dup2\n      mstore\n      0x20\n      add\n      0x60\n      dup2\n      mstore\n      0x20\n      add\n      iszero(iszero(0x00))\n      dup2\n      mstore\n      pop\n      swap1\n      jump\t// out\n    tag_212:\n      tag_216\n      swap2\n      swap1\n    tag_217:\n      dup1\n      dup3\n      gt\n      iszero\n      tag_218\n      jumpi\n      0x00\n      dup2\n      0x00\n      swap1\n      sstore\n      pop\n      0x01\n      add\n      jump(tag_217)\n    tag_218:\n      pop\n      swap1\n      jump\n    tag_216:\n      swap1\n      jump\t// out\n        /* \"--CODEGEN--\":5:135   */\n    tag_220:\n      0x00\n        /* \"--CODEGEN--\":85:91   */\n      dup2\n        /* \"--CODEGEN--\":72:92   */\n      calldataload\n        /* \"--CODEGEN--\":63:92   */\n      swap1\n      pop\n        /* \"--CODEGEN--\":97:130   */\n      tag_221\n        /* \"--CODEGEN--\":124:129   */\n      dup2\n        /* \"--CODEGEN--\":97:130   */\n      jump(tag_222)\n    tag_221:\n        /* \"--CODEGEN--\":57:135   */\n      swap3\n      swap2\n      pop\n      pop\n      jump\n        /* \"--CODEGEN--\":142:288   */\n    tag_223:\n      0x00\n        /* \"--CODEGEN--\":230:236   */\n      dup2\n        /* \"--CODEGEN--\":217:237   */\n      calldataload\n        /* \"--CODEGEN--\":208:237   */\n      swap1\n      pop\n        /* \"--CODEGEN--\":242:283   */\n      tag_224\n        /* \"--CODEGEN--\":277:282   */\n      dup2\n        /* \"--CODEGEN--\":242:283   */\n      jump(tag_225)\n    tag_224:\n        /* \"--CODEGEN--\":202:288   */\n      swap3\n      swap2\n      pop\n      pop\n      jump\n        /* \"--CODEGEN--\":309:645   */\n    tag_226:\n      0x00\n      dup1\n        /* \"--CODEGEN--\":423:426   */\n      dup4\n        /* \"--CODEGEN--\":416:420   */\n      0x1f\n        /* \"--CODEGEN--\":408:414   */\n      dup5\n        /* \"--CODEGEN--\":404:421   */\n      add\n        /* \"--CODEGEN--\":400:427   */\n      slt\n        /* \"--CODEGEN--\":390:392   */\n      tag_227\n      jumpi\n        /* \"--CODEGEN--\":441:442   */\n      0x00\n        /* \"--CODEGEN--\":438:439   */\n      dup1\n        /* \"--CODEGEN--\":431:443   */\n      revert\n        /* \"--CODEGEN--\":390:392   */\n    tag_227:\n        /* \"--CODEGEN--\":474:480   */\n      dup3\n        /* \"--CODEGEN--\":461:481   */\n      calldataload\n        /* \"--CODEGEN--\":451:481   */\n      swap1\n      pop\n        /* \"--CODEGEN--\":501:519   */\n      0xffffffffffffffff\n        /* \"--CODEGEN--\":493:499   */\n      dup2\n        /* \"--CODEGEN--\":490:520   */\n      gt\n        /* \"--CODEGEN--\":487:489   */\n      iszero\n      tag_228\n      jumpi\n        /* \"--CODEGEN--\":533:534   */\n      0x00\n        /* \"--CODEGEN--\":530:531   */\n      dup1\n        /* \"--CODEGEN--\":523:535   */\n      revert\n        /* \"--CODEGEN--\":487:489   */\n    tag_228:\n        /* \"--CODEGEN--\":567:571   */\n      0x20\n        /* \"--CODEGEN--\":559:565   */\n      dup4\n        /* \"--CODEGEN--\":555:572   */\n      add\n        /* \"--CODEGEN--\":543:572   */\n      swap2\n      pop\n        /* \"--CODEGEN--\":618:621   */\n      dup4\n        /* \"--CODEGEN--\":610:614   */\n      0x01\n        /* \"--CODEGEN--\":602:608   */\n      dup3\n        /* \"--CODEGEN--\":598:615   */\n      mul\n        /* \"--CODEGEN--\":588:596   */\n      dup4\n        /* \"--CODEGEN--\":584:616   */\n      add\n        /* \"--CODEGEN--\":581:622   */\n      gt\n        /* \"--CODEGEN--\":578:580   */\n      iszero\n      tag_229\n      jumpi\n        /* \"--CODEGEN--\":635:636   */\n      0x00\n        /* \"--CODEGEN--\":632:633   */\n      dup1\n        /* \"--CODEGEN--\":625:637   */\n      revert\n        /* \"--CODEGEN--\":578:580   */\n    tag_229:\n        /* \"--CODEGEN--\":383:645   */\n      swap3\n      pop\n      swap3\n      swap1\n      pop\n      jump\n        /* \"--CODEGEN--\":653:783   */\n    tag_230:\n      0x00\n        /* \"--CODEGEN--\":733:739   */\n      dup2\n        /* \"--CODEGEN--\":720:740   */\n      calldataload\n        /* \"--CODEGEN--\":711:740   */\n      swap1\n      pop\n        /* \"--CODEGEN--\":745:778   */\n      tag_231\n        /* \"--CODEGEN--\":772:777   */\n      dup2\n        /* \"--CODEGEN--\":745:778   */\n      jump(tag_232)\n    tag_231:\n        /* \"--CODEGEN--\":705:783   */\n      swap3\n      swap2\n      pop\n      pop\n      jump\n        /* \"--CODEGEN--\":790:1031   */\n    tag_35:\n      0x00\n        /* \"--CODEGEN--\":894:896   */\n      0x20\n        /* \"--CODEGEN--\":882:891   */\n      dup3\n        /* \"--CODEGEN--\":873:880   */\n      dup5\n        /* \"--CODEGEN--\":869:892   */\n      sub\n        /* \"--CODEGEN--\":865:897   */\n      slt\n        /* \"--CODEGEN--\":862:864   */\n      iszero\n      tag_233\n      jumpi\n        /* \"--CODEGEN--\":910:911   */\n      0x00\n        /* \"--CODEGEN--\":907:908   */\n      dup1\n        /* \"--CODEGEN--\":900:912   */\n      revert\n        /* \"--CODEGEN--\":862:864   */\n    tag_233:\n        /* \"--CODEGEN--\":945:946   */\n      0x00\n        /* \"--CODEGEN--\":962:1015   */\n      tag_234\n        /* \"--CODEGEN--\":1007:1014   */\n      dup5\n        /* \"--CODEGEN--\":998:1004   */\n      dup3\n        /* \"--CODEGEN--\":987:996   */\n      dup6\n        /* \"--CODEGEN--\":983:1005   */\n      add\n        /* \"--CODEGEN--\":962:1015   */\n      jump(tag_220)\n    tag_234:\n        /* \"--CODEGEN--\":952:1015   */\n      swap2\n      pop\n        /* \"--CODEGEN--\":924:1021   */\n      pop\n        /* \"--CODEGEN--\":856:1031   */\n      swap3\n      swap2\n      pop\n      pop\n      jump\n        /* \"--CODEGEN--\":1038:1669   */\n    tag_20:\n      0x00\n      dup1\n      0x00\n      dup1\n        /* \"--CODEGEN--\":1203:1205   */\n      0x60\n        /* \"--CODEGEN--\":1191:1200   */\n      dup6\n        /* \"--CODEGEN--\":1182:1189   */\n      dup8\n        /* \"--CODEGEN--\":1178:1201   */\n      sub\n        /* \"--CODEGEN--\":1174:1206   */\n      slt\n        /* \"--CODEGEN--\":1171:1173   */\n      iszero\n      tag_235\n      jumpi\n        /* \"--CODEGEN--\":1219:1220   */\n      0x00\n        /* \"--CODEGEN--\":1216:1217   */\n      dup1\n        /* \"--CODEGEN--\":1209:1221   */\n      revert\n        /* \"--CODEGEN--\":1171:1173   */\n    tag_235:\n        /* \"--CODEGEN--\":1254:1255   */\n      0x00\n        /* \"--CODEGEN--\":1271:1332   */\n      tag_236\n        /* \"--CODEGEN--\":1324:1331   */\n      dup8\n        /* \"--CODEGEN--\":1315:1321   */\n      dup3\n        /* \"--CODEGEN--\":1304:1313   */\n      dup9\n        /* \"--CODEGEN--\":1300:1322   */\n      add\n        /* \"--CODEGEN--\":1271:1332   */\n      jump(tag_223)\n    tag_236:\n        /* \"--CODEGEN--\":1261:1332   */\n      swap5\n      pop\n        /* \"--CODEGEN--\":1233:1338   */\n      pop\n        /* \"--CODEGEN--\":1397:1399   */\n      0x20\n        /* \"--CODEGEN--\":1386:1395   */\n      dup6\n        /* \"--CODEGEN--\":1382:1400   */\n      add\n        /* \"--CODEGEN--\":1369:1401   */\n      calldataload\n        /* \"--CODEGEN--\":1421:1439   */\n      0xffffffffffffffff\n        /* \"--CODEGEN--\":1413:1419   */\n      dup2\n        /* \"--CODEGEN--\":1410:1440   */\n      gt\n        /* \"--CODEGEN--\":1407:1409   */\n      iszero\n      tag_237\n      jumpi\n        /* \"--CODEGEN--\":1453:1454   */\n      0x00\n        /* \"--CODEGEN--\":1450:1451   */\n      dup1\n        /* \"--CODEGEN--\":1443:1455   */\n      revert\n        /* \"--CODEGEN--\":1407:1409   */\n    tag_237:\n        /* \"--CODEGEN--\":1481:1545   */\n      tag_238\n        /* \"--CODEGEN--\":1537:1544   */\n      dup8\n        /* \"--CODEGEN--\":1528:1534   */\n      dup3\n        /* \"--CODEGEN--\":1517:1526   */\n      dup9\n        /* \"--CODEGEN--\":1513:1535   */\n      add\n        /* \"--CODEGEN--\":1481:1545   */\n      jump(tag_226)\n    tag_238:\n        /* \"--CODEGEN--\":1471:1545   */\n      swap4\n      pop\n      swap4\n      pop\n        /* \"--CODEGEN--\":1348:1551   */\n      pop\n        /* \"--CODEGEN--\":1582:1584   */\n      0x40\n        /* \"--CODEGEN--\":1600:1653   */\n      tag_239\n        /* \"--CODEGEN--\":1645:1652   */\n      dup8\n        /* \"--CODEGEN--\":1636:1642   */\n      dup3\n        /* \"--CODEGEN--\":1625:1634   */\n      dup9\n        /* \"--CODEGEN--\":1621:1643   */\n      add\n        /* \"--CODEGEN--\":1600:1653   */\n      jump(tag_230)\n    tag_239:\n        /* \"--CODEGEN--\":1590:1653   */\n      swap2\n      pop\n        /* \"--CODEGEN--\":1561:1659   */\n      pop\n        /* \"--CODEGEN--\":1165:1669   */\n      swap3\n      swap6\n      swap2\n      swap5\n      pop\n      swap3\n      pop\n      jump\n        /* \"--CODEGEN--\":1676:1917   */\n    tag_25:\n      0x00\n        /* \"--CODEGEN--\":1780:1782   */\n      0x20\n        /* \"--CODEGEN--\":1768:1777   */\n      dup3\n        /* \"--CODEGEN--\":1759:1766   */\n      dup5\n        /* \"--CODEGEN--\":1755:1778   */\n      sub\n        /* \"--CODEGEN--\":1751:1783   */\n      slt\n        /* \"--CODEGEN--\":1748:1750   */\n      iszero\n      tag_240\n      jumpi\n        /* \"--CODEGEN--\":1796:1797   */\n      0x00\n        /* \"--CODEGEN--\":1793:1794   */\n      dup1\n        /* \"--CODEGEN--\":1786:1798   */\n      revert\n        /* \"--CODEGEN--\":1748:1750   */\n    tag_240:\n        /* \"--CODEGEN--\":1831:1832   */\n      0x00\n        /* \"--CODEGEN--\":1848:1901   */\n      tag_241\n        /* \"--CODEGEN--\":1893:1900   */\n      dup5\n        /* \"--CODEGEN--\":1884:1890   */\n      dup3\n        /* \"--CODEGEN--\":1873:1882   */\n      dup6\n        /* \"--CODEGEN--\":1869:1891   */\n      add\n        /* \"--CODEGEN--\":1848:1901   */\n      jump(tag_230)\n    tag_241:\n        /* \"--CODEGEN--\":1838:1901   */\n      swap2\n      pop\n        /* \"--CODEGEN--\":1810:1907   */\n      pop\n        /* \"--CODEGEN--\":1742:1917   */\n      swap3\n      swap2\n      pop\n      pop\n      jump\n        /* \"--CODEGEN--\":1925:2174   */\n    tag_242:\n      0x00\n        /* \"--CODEGEN--\":2072:2168   */\n      tag_243\n        /* \"--CODEGEN--\":2164:2167   */\n      dup4\n        /* \"--CODEGEN--\":2156:2162   */\n      dup4\n        /* \"--CODEGEN--\":2072:2168   */\n      jump(tag_244)\n    tag_243:\n        /* \"--CODEGEN--\":2058:2168   */\n      swap1\n      pop\n        /* \"--CODEGEN--\":2051:2174   */\n      swap3\n      swap2\n      pop\n      pop\n      jump\n        /* \"--CODEGEN--\":2182:2309   */\n    tag_245:\n        /* \"--CODEGEN--\":2271:2303   */\n      tag_246\n        /* \"--CODEGEN--\":2297:2302   */\n      dup2\n        /* \"--CODEGEN--\":2271:2303   */\n      jump(tag_247)\n    tag_246:\n        /* \"--CODEGEN--\":2266:2269   */\n      dup3\n        /* \"--CODEGEN--\":2259:2304   */\n      mstore\n        /* \"--CODEGEN--\":2253:2309   */\n      pop\n      pop\n      jump\n        /* \"--CODEGEN--\":2316:2453   */\n    tag_248:\n        /* \"--CODEGEN--\":2415:2447   */\n      tag_249\n        /* \"--CODEGEN--\":2441:2446   */\n      dup2\n        /* \"--CODEGEN--\":2415:2447   */\n      jump(tag_247)\n    tag_249:\n        /* \"--CODEGEN--\":2410:2413   */\n      dup3\n        /* \"--CODEGEN--\":2403:2448   */\n      mstore\n        /* \"--CODEGEN--\":2397:2453   */\n      pop\n      pop\n      jump\n        /* \"--CODEGEN--\":2543:3575   */\n    tag_250:\n      0x00\n        /* \"--CODEGEN--\":2734:2811   */\n      tag_251\n        /* \"--CODEGEN--\":2805:2810   */\n      dup3\n        /* \"--CODEGEN--\":2734:2811   */\n      jump(tag_252)\n    tag_251:\n        /* \"--CODEGEN--\":2824:2933   */\n      tag_253\n        /* \"--CODEGEN--\":2926:2932   */\n      dup2\n        /* \"--CODEGEN--\":2921:2924   */\n      dup6\n        /* \"--CODEGEN--\":2824:2933   */\n      jump(tag_254)\n    tag_253:\n        /* \"--CODEGEN--\":2817:2933   */\n      swap4\n      pop\n        /* \"--CODEGEN--\":2956:2959   */\n      dup4\n        /* \"--CODEGEN--\":2998:3002   */\n      0x20\n        /* \"--CODEGEN--\":2990:2996   */\n      dup3\n        /* \"--CODEGEN--\":2986:3003   */\n      mul\n        /* \"--CODEGEN--\":2981:2984   */\n      dup6\n        /* \"--CODEGEN--\":2977:3004   */\n      add\n        /* \"--CODEGEN--\":3025:3104   */\n      tag_255\n        /* \"--CODEGEN--\":3098:3103   */\n      dup6\n        /* \"--CODEGEN--\":3025:3104   */\n      jump(tag_256)\n    tag_255:\n        /* \"--CODEGEN--\":3124:3131   */\n      dup1\n        /* \"--CODEGEN--\":3152:3153   */\n      0x00\n        /* \"--CODEGEN--\":3137:3536   */\n    tag_257:\n        /* \"--CODEGEN--\":3162:3168   */\n      dup6\n        /* \"--CODEGEN--\":3159:3160   */\n      dup2\n        /* \"--CODEGEN--\":3156:3169   */\n      lt\n        /* \"--CODEGEN--\":3137:3536   */\n      iszero\n      tag_259\n      jumpi\n        /* \"--CODEGEN--\":3224:3233   */\n      dup5\n        /* \"--CODEGEN--\":3218:3222   */\n      dup5\n        /* \"--CODEGEN--\":3214:3234   */\n      sub\n        /* \"--CODEGEN--\":3209:3212   */\n      dup10\n        /* \"--CODEGEN--\":3202:3235   */\n      mstore\n        /* \"--CODEGEN--\":3269:3275   */\n      dup2\n        /* \"--CODEGEN--\":3263:3276   */\n      mload\n        /* \"--CODEGEN--\":3291:3401   */\n      tag_260\n        /* \"--CODEGEN--\":3396:3400   */\n      dup6\n        /* \"--CODEGEN--\":3381:3394   */\n      dup3\n        /* \"--CODEGEN--\":3291:3401   */\n      jump(tag_242)\n    tag_260:\n        /* \"--CODEGEN--\":3283:3401   */\n      swap5\n      pop\n        /* \"--CODEGEN--\":3418:3501   */\n      tag_261\n        /* \"--CODEGEN--\":3494:3500   */\n      dup4\n        /* \"--CODEGEN--\":3418:3501   */\n      jump(tag_262)\n    tag_261:\n        /* \"--CODEGEN--\":3408:3501   */\n      swap3\n      pop\n        /* \"--CODEGEN--\":3524:3528   */\n      0x20\n        /* \"--CODEGEN--\":3519:3522   */\n      dup11\n        /* \"--CODEGEN--\":3515:3529   */\n      add\n        /* \"--CODEGEN--\":3508:3529   */\n      swap10\n      pop\n        /* \"--CODEGEN--\":3194:3536   */\n      pop\n        /* \"--CODEGEN--\":3184:3185   */\n      0x01\n        /* \"--CODEGEN--\":3181:3182   */\n      dup2\n        /* \"--CODEGEN--\":3177:3186   */\n      add\n        /* \"--CODEGEN--\":3172:3186   */\n      swap1\n      pop\n        /* \"--CODEGEN--\":3137:3536   */\n      jump(tag_257)\n    tag_259:\n        /* \"--CODEGEN--\":3141:3155   */\n      pop\n        /* \"--CODEGEN--\":3549:3553   */\n      dup3\n        /* \"--CODEGEN--\":3542:3553   */\n      swap8\n      pop\n        /* \"--CODEGEN--\":3566:3569   */\n      dup8\n        /* \"--CODEGEN--\":3559:3569   */\n      swap6\n      pop\n        /* \"--CODEGEN--\":2713:3575   */\n      pop\n      pop\n      pop\n      pop\n      pop\n      swap3\n      swap2\n      pop\n      pop\n      jump\n        /* \"--CODEGEN--\":3583:3677   */\n    tag_263:\n        /* \"--CODEGEN--\":3650:3671   */\n      tag_264\n        /* \"--CODEGEN--\":3665:3670   */\n      dup2\n        /* \"--CODEGEN--\":3650:3671   */\n      jump(tag_265)\n    tag_264:\n        /* \"--CODEGEN--\":3645:3648   */\n      dup3\n        /* \"--CODEGEN--\":3638:3672   */\n      mstore\n        /* \"--CODEGEN--\":3632:3677   */\n      pop\n      pop\n      jump\n        /* \"--CODEGEN--\":3684:3788   */\n    tag_266:\n        /* \"--CODEGEN--\":3761:3782   */\n      tag_267\n        /* \"--CODEGEN--\":3776:3781   */\n      dup2\n        /* \"--CODEGEN--\":3761:3782   */\n      jump(tag_265)\n    tag_267:\n        /* \"--CODEGEN--\":3756:3759   */\n      dup3\n        /* \"--CODEGEN--\":3749:3783   */\n      mstore\n        /* \"--CODEGEN--\":3743:3788   */\n      pop\n      pop\n      jump\n        /* \"--CODEGEN--\":3795:4110   */\n    tag_268:\n      0x00\n        /* \"--CODEGEN--\":3891:3925   */\n      tag_269\n        /* \"--CODEGEN--\":3919:3924   */\n      dup3\n        /* \"--CODEGEN--\":3891:3925   */\n      jump(tag_270)\n    tag_269:\n        /* \"--CODEGEN--\":3937:3997   */\n      tag_271\n        /* \"--CODEGEN--\":3990:3996   */\n      dup2\n        /* \"--CODEGEN--\":3985:3988   */\n      dup6\n        /* \"--CODEGEN--\":3937:3997   */\n      jump(tag_272)\n    tag_271:\n        /* \"--CODEGEN--\":3930:3997   */\n      swap4\n      pop\n        /* \"--CODEGEN--\":4002:4054   */\n      tag_273\n        /* \"--CODEGEN--\":4047:4053   */\n      dup2\n        /* \"--CODEGEN--\":4042:4045   */\n      dup6\n        /* \"--CODEGEN--\":4035:4039   */\n      0x20\n        /* \"--CODEGEN--\":4028:4033   */\n      dup7\n        /* \"--CODEGEN--\":4024:4040   */\n      add\n        /* \"--CODEGEN--\":4002:4054   */\n      jump(tag_274)\n    tag_273:\n        /* \"--CODEGEN--\":4075:4104   */\n      tag_275\n        /* \"--CODEGEN--\":4097:4103   */\n      dup2\n        /* \"--CODEGEN--\":4075:4104   */\n      jump(tag_276)\n    tag_275:\n        /* \"--CODEGEN--\":4070:4073   */\n      dup5\n        /* \"--CODEGEN--\":4066:4105   */\n      add\n        /* \"--CODEGEN--\":4059:4105   */\n      swap2\n      pop\n        /* \"--CODEGEN--\":3871:4110   */\n      pop\n      swap3\n      swap2\n      pop\n      pop\n      jump\n        /* \"--CODEGEN--\":4117:4452   */\n    tag_277:\n      0x00\n        /* \"--CODEGEN--\":4223:4257   */\n      tag_278\n        /* \"--CODEGEN--\":4251:4256   */\n      dup3\n        /* \"--CODEGEN--\":4223:4257   */\n      jump(tag_270)\n    tag_278:\n        /* \"--CODEGEN--\":4269:4339   */\n      tag_279\n        /* \"--CODEGEN--\":4332:4338   */\n      dup2\n        /* \"--CODEGEN--\":4327:4330   */\n      dup6\n        /* \"--CODEGEN--\":4269:4339   */\n      jump(tag_280)\n    tag_279:\n        /* \"--CODEGEN--\":4262:4339   */\n      swap4\n      pop\n        /* \"--CODEGEN--\":4344:4396   */\n      tag_281\n        /* \"--CODEGEN--\":4389:4395   */\n      dup2\n        /* \"--CODEGEN--\":4384:4387   */\n      dup6\n        /* \"--CODEGEN--\":4377:4381   */\n      0x20\n        /* \"--CODEGEN--\":4370:4375   */\n      dup7\n        /* \"--CODEGEN--\":4366:4382   */\n      add\n        /* \"--CODEGEN--\":4344:4396   */\n      jump(tag_274)\n    tag_281:\n        /* \"--CODEGEN--\":4417:4446   */\n      tag_282\n        /* \"--CODEGEN--\":4439:4445   */\n      dup2\n        /* \"--CODEGEN--\":4417:4446   */\n      jump(tag_276)\n    tag_282:\n        /* \"--CODEGEN--\":4412:4415   */\n      dup5\n        /* \"--CODEGEN--\":4408:4447   */\n      add\n        /* \"--CODEGEN--\":4401:4447   */\n      swap2\n      pop\n        /* \"--CODEGEN--\":4203:4452   */\n      pop\n      swap3\n      swap2\n      pop\n      pop\n      jump\n        /* \"--CODEGEN--\":4460:4783   */\n    tag_283:\n      0x00\n        /* \"--CODEGEN--\":4620:4687   */\n      tag_284\n        /* \"--CODEGEN--\":4684:4686   */\n      0x17\n        /* \"--CODEGEN--\":4679:4682   */\n      dup4\n        /* \"--CODEGEN--\":4620:4687   */\n      jump(tag_285)\n    tag_284:\n        /* \"--CODEGEN--\":4613:4687   */\n      swap2\n      pop\n        /* \"--CODEGEN--\":4720:4745   */\n      0x4572726f72203a204e6f7420496e204f776e65724d6170000000000000000000\n        /* \"--CODEGEN--\":4716:4717   */\n      0x00\n        /* \"--CODEGEN--\":4711:4714   */\n      dup4\n        /* \"--CODEGEN--\":4707:4718   */\n      add\n        /* \"--CODEGEN--\":4700:4746   */\n      mstore\n        /* \"--CODEGEN--\":4774:4776   */\n      0x20\n        /* \"--CODEGEN--\":4769:4772   */\n      dup3\n        /* \"--CODEGEN--\":4765:4777   */\n      add\n        /* \"--CODEGEN--\":4758:4777   */\n      swap1\n      pop\n        /* \"--CODEGEN--\":4606:4783   */\n      swap2\n      swap1\n      pop\n      jump\n        /* \"--CODEGEN--\":4792:5115   */\n    tag_286:\n      0x00\n        /* \"--CODEGEN--\":4952:5019   */\n      tag_287\n        /* \"--CODEGEN--\":5016:5018   */\n      0x17\n        /* \"--CODEGEN--\":5011:5014   */\n      dup4\n        /* \"--CODEGEN--\":4952:5019   */\n      jump(tag_285)\n    tag_287:\n        /* \"--CODEGEN--\":4945:5019   */\n      swap2\n      pop\n        /* \"--CODEGEN--\":5052:5077   */\n      0x4572726f72203a204e6f7420456e6f756768204b6c6179000000000000000000\n        /* \"--CODEGEN--\":5048:5049   */\n      0x00\n        /* \"--CODEGEN--\":5043:5046   */\n      dup4\n        /* \"--CODEGEN--\":5039:5050   */\n      add\n        /* \"--CODEGEN--\":5032:5078   */\n      mstore\n        /* \"--CODEGEN--\":5106:5108   */\n      0x20\n        /* \"--CODEGEN--\":5101:5104   */\n      dup3\n        /* \"--CODEGEN--\":5097:5109   */\n      add\n        /* \"--CODEGEN--\":5090:5109   */\n      swap1\n      pop\n        /* \"--CODEGEN--\":4938:5115   */\n      swap2\n      swap1\n      pop\n      jump\n        /* \"--CODEGEN--\":5124:5451   */\n    tag_288:\n      0x00\n        /* \"--CODEGEN--\":5284:5351   */\n      tag_289\n        /* \"--CODEGEN--\":5348:5350   */\n      0x1b\n        /* \"--CODEGEN--\":5343:5346   */\n      dup4\n        /* \"--CODEGEN--\":5284:5351   */\n      jump(tag_285)\n    tag_289:\n        /* \"--CODEGEN--\":5277:5351   */\n      swap2\n      pop\n        /* \"--CODEGEN--\":5384:5413   */\n      0x4572726f72203a20616c726561647920696e204f776e65724d61700000000000\n        /* \"--CODEGEN--\":5380:5381   */\n      0x00\n        /* \"--CODEGEN--\":5375:5378   */\n      dup4\n        /* \"--CODEGEN--\":5371:5382   */\n      add\n        /* \"--CODEGEN--\":5364:5414   */\n      mstore\n        /* \"--CODEGEN--\":5442:5444   */\n      0x20\n        /* \"--CODEGEN--\":5437:5440   */\n      dup3\n        /* \"--CODEGEN--\":5433:5445   */\n      add\n        /* \"--CODEGEN--\":5426:5445   */\n      swap1\n      pop\n        /* \"--CODEGEN--\":5270:5451   */\n      swap2\n      swap1\n      pop\n      jump\n        /* \"--CODEGEN--\":5460:5778   */\n    tag_290:\n      0x00\n        /* \"--CODEGEN--\":5620:5687   */\n      tag_291\n        /* \"--CODEGEN--\":5684:5686   */\n      0x12\n        /* \"--CODEGEN--\":5679:5682   */\n      dup4\n        /* \"--CODEGEN--\":5620:5687   */\n      jump(tag_285)\n    tag_291:\n        /* \"--CODEGEN--\":5613:5687   */\n      swap2\n      pop\n        /* \"--CODEGEN--\":5720:5740   */\n      0x4572726f72203a204e6f74204f776e6572210000000000000000000000000000\n        /* \"--CODEGEN--\":5716:5717   */\n      0x00\n        /* \"--CODEGEN--\":5711:5714   */\n      dup4\n        /* \"--CODEGEN--\":5707:5718   */\n      add\n        /* \"--CODEGEN--\":5700:5741   */\n      mstore\n        /* \"--CODEGEN--\":5769:5771   */\n      0x20\n        /* \"--CODEGEN--\":5764:5767   */\n      dup3\n        /* \"--CODEGEN--\":5760:5772   */\n      add\n        /* \"--CODEGEN--\":5753:5772   */\n      swap1\n      pop\n        /* \"--CODEGEN--\":5606:5778   */\n      swap2\n      swap1\n      pop\n      jump\n        /* \"--CODEGEN--\":5787:6119   */\n    tag_292:\n      0x00\n        /* \"--CODEGEN--\":5947:6014   */\n      tag_293\n        /* \"--CODEGEN--\":6011:6013   */\n      0x20\n        /* \"--CODEGEN--\":6006:6009   */\n      dup4\n        /* \"--CODEGEN--\":5947:6014   */\n      jump(tag_285)\n    tag_293:\n        /* \"--CODEGEN--\":5940:6014   */\n      swap2\n      pop\n        /* \"--CODEGEN--\":6047:6081   */\n      0x4572726f72203a206d73672e73656e646572206973204e6f74204d6173746572\n        /* \"--CODEGEN--\":6043:6044   */\n      0x00\n        /* \"--CODEGEN--\":6038:6041   */\n      dup4\n        /* \"--CODEGEN--\":6034:6045   */\n      add\n        /* \"--CODEGEN--\":6027:6082   */\n      mstore\n        /* \"--CODEGEN--\":6110:6112   */\n      0x20\n        /* \"--CODEGEN--\":6105:6108   */\n      dup3\n        /* \"--CODEGEN--\":6101:6113   */\n      add\n        /* \"--CODEGEN--\":6094:6113   */\n      swap1\n      pop\n        /* \"--CODEGEN--\":5933:6119   */\n      swap2\n      swap1\n      pop\n      jump\n        /* \"--CODEGEN--\":6128:6453   */\n    tag_294:\n      0x00\n        /* \"--CODEGEN--\":6288:6355   */\n      tag_295\n        /* \"--CODEGEN--\":6352:6354   */\n      0x19\n        /* \"--CODEGEN--\":6347:6350   */\n      dup4\n        /* \"--CODEGEN--\":6288:6355   */\n      jump(tag_285)\n    tag_295:\n        /* \"--CODEGEN--\":6281:6355   */\n      swap2\n      pop\n        /* \"--CODEGEN--\":6388:6415   */\n      0x4572726f723a20747820616c7265616479204578637574656400000000000000\n        /* \"--CODEGEN--\":6384:6385   */\n      0x00\n        /* \"--CODEGEN--\":6379:6382   */\n      dup4\n        /* \"--CODEGEN--\":6375:6386   */\n      add\n        /* \"--CODEGEN--\":6368:6416   */\n      mstore\n        /* \"--CODEGEN--\":6444:6446   */\n      0x20\n        /* \"--CODEGEN--\":6439:6442   */\n      dup3\n        /* \"--CODEGEN--\":6435:6447   */\n      add\n        /* \"--CODEGEN--\":6428:6447   */\n      swap1\n      pop\n        /* \"--CODEGEN--\":6274:6453   */\n      swap2\n      swap1\n      pop\n      jump\n        /* \"--CODEGEN--\":6462:6834   */\n    tag_296:\n      0x00\n        /* \"--CODEGEN--\":6622:6689   */\n      tag_297\n        /* \"--CODEGEN--\":6686:6688   */\n      0x23\n        /* \"--CODEGEN--\":6681:6684   */\n      dup4\n        /* \"--CODEGEN--\":6622:6689   */\n      jump(tag_285)\n    tag_297:\n        /* \"--CODEGEN--\":6615:6689   */\n      swap2\n      pop\n        /* \"--CODEGEN--\":6722:6756   */\n      0x4572726f72203a2064657374696e6174696f6e206973205a65726f2041646472\n        /* \"--CODEGEN--\":6718:6719   */\n      0x00\n        /* \"--CODEGEN--\":6713:6716   */\n      dup4\n        /* \"--CODEGEN--\":6709:6720   */\n      add\n        /* \"--CODEGEN--\":6702:6757   */\n      mstore\n        /* \"--CODEGEN--\":6791:6796   */\n      0x6573730000000000000000000000000000000000000000000000000000000000\n        /* \"--CODEGEN--\":6786:6788   */\n      0x20\n        /* \"--CODEGEN--\":6781:6784   */\n      dup4\n        /* \"--CODEGEN--\":6777:6789   */\n      add\n        /* \"--CODEGEN--\":6770:6797   */\n      mstore\n        /* \"--CODEGEN--\":6825:6827   */\n      0x40\n        /* \"--CODEGEN--\":6820:6823   */\n      dup3\n        /* \"--CODEGEN--\":6816:6828   */\n      add\n        /* \"--CODEGEN--\":6809:6828   */\n      swap1\n      pop\n        /* \"--CODEGEN--\":6608:6834   */\n      swap2\n      swap1\n      pop\n      jump\n        /* \"--CODEGEN--\":6843:7175   */\n    tag_298:\n      0x00\n        /* \"--CODEGEN--\":7003:7070   */\n      tag_299\n        /* \"--CODEGEN--\":7067:7069   */\n      0x20\n        /* \"--CODEGEN--\":7062:7065   */\n      dup4\n        /* \"--CODEGEN--\":7003:7070   */\n      jump(tag_285)\n    tag_299:\n        /* \"--CODEGEN--\":6996:7070   */\n      swap2\n      pop\n        /* \"--CODEGEN--\":7103:7137   */\n      0x4572726f72203a205472616e73636174696f6e206973204e6f74204578697374\n        /* \"--CODEGEN--\":7099:7100   */\n      0x00\n        /* \"--CODEGEN--\":7094:7097   */\n      dup4\n        /* \"--CODEGEN--\":7090:7101   */\n      add\n        /* \"--CODEGEN--\":7083:7138   */\n      mstore\n        /* \"--CODEGEN--\":7166:7168   */\n      0x20\n        /* \"--CODEGEN--\":7161:7164   */\n      dup3\n        /* \"--CODEGEN--\":7157:7169   */\n      add\n        /* \"--CODEGEN--\":7150:7169   */\n      swap1\n      pop\n        /* \"--CODEGEN--\":6989:7175   */\n      swap2\n      swap1\n      pop\n      jump\n        /* \"--CODEGEN--\":7184:7510   */\n    tag_300:\n      0x00\n        /* \"--CODEGEN--\":7344:7411   */\n      tag_301\n        /* \"--CODEGEN--\":7408:7410   */\n      0x1a\n        /* \"--CODEGEN--\":7403:7406   */\n      dup4\n        /* \"--CODEGEN--\":7344:7411   */\n      jump(tag_285)\n    tag_301:\n        /* \"--CODEGEN--\":7337:7411   */\n      swap2\n      pop\n        /* \"--CODEGEN--\":7444:7472   */\n      0x4572726f72203a204661696c6564205472616e73616374696f6e000000000000\n        /* \"--CODEGEN--\":7440:7441   */\n      0x00\n        /* \"--CODEGEN--\":7435:7438   */\n      dup4\n        /* \"--CODEGEN--\":7431:7442   */\n      add\n        /* \"--CODEGEN--\":7424:7473   */\n      mstore\n        /* \"--CODEGEN--\":7501:7503   */\n      0x20\n        /* \"--CODEGEN--\":7496:7499   */\n      dup3\n        /* \"--CODEGEN--\":7492:7504   */\n      add\n        /* \"--CODEGEN--\":7485:7504   */\n      swap1\n      pop\n        /* \"--CODEGEN--\":7330:7510   */\n      swap2\n      swap1\n      pop\n      jump\n        /* \"--CODEGEN--\":7519:7908   */\n    tag_302:\n      0x00\n        /* \"--CODEGEN--\":7679:7746   */\n      tag_303\n        /* \"--CODEGEN--\":7743:7745   */\n      0x34\n        /* \"--CODEGEN--\":7738:7741   */\n      dup4\n        /* \"--CODEGEN--\":7679:7746   */\n      jump(tag_285)\n    tag_303:\n        /* \"--CODEGEN--\":7672:7746   */\n      swap2\n      pop\n        /* \"--CODEGEN--\":7779:7813   */\n      0x4572726f72203a207472616e73616374696f6e2069732053656e64206b6c6179\n        /* \"--CODEGEN--\":7775:7776   */\n      0x00\n        /* \"--CODEGEN--\":7770:7773   */\n      dup4\n        /* \"--CODEGEN--\":7766:7777   */\n      add\n        /* \"--CODEGEN--\":7759:7814   */\n      mstore\n        /* \"--CODEGEN--\":7848:7870   */\n      0x2042757420646174612069732045786973746564000000000000000000000000\n        /* \"--CODEGEN--\":7843:7845   */\n      0x20\n        /* \"--CODEGEN--\":7838:7841   */\n      dup4\n        /* \"--CODEGEN--\":7834:7846   */\n      add\n        /* \"--CODEGEN--\":7827:7871   */\n      mstore\n        /* \"--CODEGEN--\":7899:7901   */\n      0x40\n        /* \"--CODEGEN--\":7894:7897   */\n      dup3\n        /* \"--CODEGEN--\":7890:7902   */\n      add\n        /* \"--CODEGEN--\":7883:7902   */\n      swap1\n      pop\n        /* \"--CODEGEN--\":7665:7908   */\n      swap2\n      swap1\n      pop\n      jump\n        /* \"--CODEGEN--\":7917:8244   */\n    tag_304:\n      0x00\n        /* \"--CODEGEN--\":8077:8144   */\n      tag_305\n        /* \"--CODEGEN--\":8141:8143   */\n      0x1b\n        /* \"--CODEGEN--\":8136:8139   */\n      dup4\n        /* \"--CODEGEN--\":8077:8144   */\n      jump(tag_285)\n    tag_305:\n        /* \"--CODEGEN--\":8070:8144   */\n      swap2\n      pop\n        /* \"--CODEGEN--\":8177:8206   */\n      0x4572726f72203a20747820616c726561647920617070726f7665640000000000\n        /* \"--CODEGEN--\":8173:8174   */\n      0x00\n        /* \"--CODEGEN--\":8168:8171   */\n      dup4\n        /* \"--CODEGEN--\":8164:8175   */\n      add\n        /* \"--CODEGEN--\":8157:8207   */\n      mstore\n        /* \"--CODEGEN--\":8235:8237   */\n      0x20\n        /* \"--CODEGEN--\":8230:8233   */\n      dup3\n        /* \"--CODEGEN--\":8226:8238   */\n      add\n        /* \"--CODEGEN--\":8219:8238   */\n      swap1\n      pop\n        /* \"--CODEGEN--\":8063:8244   */\n      swap2\n      swap1\n      pop\n      jump\n        /* \"--CODEGEN--\":8329:9228   */\n    tag_306:\n      0x00\n        /* \"--CODEGEN--\":8484:8488   */\n      0x80\n        /* \"--CODEGEN--\":8479:8482   */\n      dup4\n        /* \"--CODEGEN--\":8475:8489   */\n      add\n        /* \"--CODEGEN--\":8574:8578   */\n      0x00\n        /* \"--CODEGEN--\":8567:8572   */\n      dup4\n        /* \"--CODEGEN--\":8563:8579   */\n      add\n        /* \"--CODEGEN--\":8557:8580   */\n      mload\n        /* \"--CODEGEN--\":8586:8665   */\n      tag_307\n        /* \"--CODEGEN--\":8659:8663   */\n      0x00\n        /* \"--CODEGEN--\":8654:8657   */\n      dup7\n        /* \"--CODEGEN--\":8650:8664   */\n      add\n        /* \"--CODEGEN--\":8636:8648   */\n      dup3\n        /* \"--CODEGEN--\":8586:8665   */\n      jump(tag_245)\n    tag_307:\n        /* \"--CODEGEN--\":8504:8671   */\n      pop\n        /* \"--CODEGEN--\":8745:8749   */\n      0x20\n        /* \"--CODEGEN--\":8738:8743   */\n      dup4\n        /* \"--CODEGEN--\":8734:8750   */\n      add\n        /* \"--CODEGEN--\":8728:8751   */\n      mload\n        /* \"--CODEGEN--\":8757:8820   */\n      tag_308\n        /* \"--CODEGEN--\":8814:8818   */\n      0x20\n        /* \"--CODEGEN--\":8809:8812   */\n      dup7\n        /* \"--CODEGEN--\":8805:8819   */\n      add\n        /* \"--CODEGEN--\":8791:8803   */\n      dup3\n        /* \"--CODEGEN--\":8757:8820   */\n      jump(tag_309)\n    tag_308:\n        /* \"--CODEGEN--\":8681:8826   */\n      pop\n        /* \"--CODEGEN--\":8899:8903   */\n      0x40\n        /* \"--CODEGEN--\":8892:8897   */\n      dup4\n        /* \"--CODEGEN--\":8888:8904   */\n      add\n        /* \"--CODEGEN--\":8882:8905   */\n      mload\n        /* \"--CODEGEN--\":8951:8954   */\n      dup5\n        /* \"--CODEGEN--\":8945:8949   */\n      dup3\n        /* \"--CODEGEN--\":8941:8955   */\n      sub\n        /* \"--CODEGEN--\":8934:8938   */\n      0x40\n        /* \"--CODEGEN--\":8929:8932   */\n      dup7\n        /* \"--CODEGEN--\":8925:8939   */\n      add\n        /* \"--CODEGEN--\":8918:8956   */\n      mstore\n        /* \"--CODEGEN--\":8971:9038   */\n      tag_310\n        /* \"--CODEGEN--\":9033:9037   */\n      dup3\n        /* \"--CODEGEN--\":9019:9031   */\n      dup3\n        /* \"--CODEGEN--\":8971:9038   */\n      jump(tag_268)\n    tag_310:\n        /* \"--CODEGEN--\":8963:9038   */\n      swap2\n      pop\n        /* \"--CODEGEN--\":8836:9050   */\n      pop\n        /* \"--CODEGEN--\":9127:9131   */\n      0x60\n        /* \"--CODEGEN--\":9120:9125   */\n      dup4\n        /* \"--CODEGEN--\":9116:9132   */\n      add\n        /* \"--CODEGEN--\":9110:9133   */\n      mload\n        /* \"--CODEGEN--\":9139:9196   */\n      tag_311\n        /* \"--CODEGEN--\":9190:9194   */\n      0x60\n        /* \"--CODEGEN--\":9185:9188   */\n      dup7\n        /* \"--CODEGEN--\":9181:9195   */\n      add\n        /* \"--CODEGEN--\":9167:9179   */\n      dup3\n        /* \"--CODEGEN--\":9139:9196   */\n      jump(tag_263)\n    tag_311:\n        /* \"--CODEGEN--\":9060:9202   */\n      pop\n        /* \"--CODEGEN--\":9219:9223   */\n      dup1\n        /* \"--CODEGEN--\":9212:9223   */\n      swap2\n      pop\n        /* \"--CODEGEN--\":8457:9228   */\n      pop\n      swap3\n      swap2\n      pop\n      pop\n      jump\n        /* \"--CODEGEN--\":9312:10197   */\n    tag_244:\n      0x00\n        /* \"--CODEGEN--\":9453:9457   */\n      0x80\n        /* \"--CODEGEN--\":9448:9451   */\n      dup4\n        /* \"--CODEGEN--\":9444:9458   */\n      add\n        /* \"--CODEGEN--\":9543:9547   */\n      0x00\n        /* \"--CODEGEN--\":9536:9541   */\n      dup4\n        /* \"--CODEGEN--\":9532:9548   */\n      add\n        /* \"--CODEGEN--\":9526:9549   */\n      mload\n        /* \"--CODEGEN--\":9555:9634   */\n      tag_312\n        /* \"--CODEGEN--\":9628:9632   */\n      0x00\n        /* \"--CODEGEN--\":9623:9626   */\n      dup7\n        /* \"--CODEGEN--\":9619:9633   */\n      add\n        /* \"--CODEGEN--\":9605:9617   */\n      dup3\n        /* \"--CODEGEN--\":9555:9634   */\n      jump(tag_245)\n    tag_312:\n        /* \"--CODEGEN--\":9473:9640   */\n      pop\n        /* \"--CODEGEN--\":9714:9718   */\n      0x20\n        /* \"--CODEGEN--\":9707:9712   */\n      dup4\n        /* \"--CODEGEN--\":9703:9719   */\n      add\n        /* \"--CODEGEN--\":9697:9720   */\n      mload\n        /* \"--CODEGEN--\":9726:9789   */\n      tag_313\n        /* \"--CODEGEN--\":9783:9787   */\n      0x20\n        /* \"--CODEGEN--\":9778:9781   */\n      dup7\n        /* \"--CODEGEN--\":9774:9788   */\n      add\n        /* \"--CODEGEN--\":9760:9772   */\n      dup3\n        /* \"--CODEGEN--\":9726:9789   */\n      jump(tag_309)\n    tag_313:\n        /* \"--CODEGEN--\":9650:9795   */\n      pop\n        /* \"--CODEGEN--\":9868:9872   */\n      0x40\n        /* \"--CODEGEN--\":9861:9866   */\n      dup4\n        /* \"--CODEGEN--\":9857:9873   */\n      add\n        /* \"--CODEGEN--\":9851:9874   */\n      mload\n        /* \"--CODEGEN--\":9920:9923   */\n      dup5\n        /* \"--CODEGEN--\":9914:9918   */\n      dup3\n        /* \"--CODEGEN--\":9910:9924   */\n      sub\n        /* \"--CODEGEN--\":9903:9907   */\n      0x40\n        /* \"--CODEGEN--\":9898:9901   */\n      dup7\n        /* \"--CODEGEN--\":9894:9908   */\n      add\n        /* \"--CODEGEN--\":9887:9925   */\n      mstore\n        /* \"--CODEGEN--\":9940:10007   */\n      tag_314\n        /* \"--CODEGEN--\":10002:10006   */\n      dup3\n        /* \"--CODEGEN--\":9988:10000   */\n      dup3\n        /* \"--CODEGEN--\":9940:10007   */\n      jump(tag_268)\n    tag_314:\n        /* \"--CODEGEN--\":9932:10007   */\n      swap2\n      pop\n        /* \"--CODEGEN--\":9805:10019   */\n      pop\n        /* \"--CODEGEN--\":10096:10100   */\n      0x60\n        /* \"--CODEGEN--\":10089:10094   */\n      dup4\n        /* \"--CODEGEN--\":10085:10101   */\n      add\n        /* \"--CODEGEN--\":10079:10102   */\n      mload\n        /* \"--CODEGEN--\":10108:10165   */\n      tag_315\n        /* \"--CODEGEN--\":10159:10163   */\n      0x60\n        /* \"--CODEGEN--\":10154:10157   */\n      dup7\n        /* \"--CODEGEN--\":10150:10164   */\n      add\n        /* \"--CODEGEN--\":10136:10148   */\n      dup3\n        /* \"--CODEGEN--\":10108:10165   */\n      jump(tag_263)\n    tag_315:\n        /* \"--CODEGEN--\":10029:10171   */\n      pop\n        /* \"--CODEGEN--\":10188:10192   */\n      dup1\n        /* \"--CODEGEN--\":10181:10192   */\n      swap2\n      pop\n        /* \"--CODEGEN--\":9426:10197   */\n      pop\n      swap3\n      swap2\n      pop\n      pop\n      jump\n        /* \"--CODEGEN--\":10204:10307   */\n    tag_309:\n        /* \"--CODEGEN--\":10277:10301   */\n      tag_316\n        /* \"--CODEGEN--\":10295:10300   */\n      dup2\n        /* \"--CODEGEN--\":10277:10301   */\n      jump(tag_317)\n    tag_316:\n        /* \"--CODEGEN--\":10272:10275   */\n      dup3\n        /* \"--CODEGEN--\":10265:10302   */\n      mstore\n        /* \"--CODEGEN--\":10259:10307   */\n      pop\n      pop\n      jump\n        /* \"--CODEGEN--\":10314:10427   */\n    tag_318:\n        /* \"--CODEGEN--\":10397:10421   */\n      tag_319\n        /* \"--CODEGEN--\":10415:10420   */\n      dup2\n        /* \"--CODEGEN--\":10397:10421   */\n      jump(tag_317)\n    tag_319:\n        /* \"--CODEGEN--\":10392:10395   */\n      dup3\n        /* \"--CODEGEN--\":10385:10422   */\n      mstore\n        /* \"--CODEGEN--\":10379:10427   */\n      pop\n      pop\n      jump\n        /* \"--CODEGEN--\":10434:11077   */\n    tag_48:\n      0x00\n        /* \"--CODEGEN--\":10660:10663   */\n      0x80\n        /* \"--CODEGEN--\":10649:10658   */\n      dup3\n        /* \"--CODEGEN--\":10645:10664   */\n      add\n        /* \"--CODEGEN--\":10637:10664   */\n      swap1\n      pop\n        /* \"--CODEGEN--\":10675:10762   */\n      tag_320\n        /* \"--CODEGEN--\":10759:10760   */\n      0x00\n        /* \"--CODEGEN--\":10748:10757   */\n      dup4\n        /* \"--CODEGEN--\":10744:10761   */\n      add\n        /* \"--CODEGEN--\":10735:10741   */\n      dup8\n        /* \"--CODEGEN--\":10675:10762   */\n      jump(tag_248)\n    tag_320:\n        /* \"--CODEGEN--\":10773:10845   */\n      tag_321\n        /* \"--CODEGEN--\":10841:10843   */\n      0x20\n        /* \"--CODEGEN--\":10830:10839   */\n      dup4\n        /* \"--CODEGEN--\":10826:10844   */\n      add\n        /* \"--CODEGEN--\":10817:10823   */\n      dup7\n        /* \"--CODEGEN--\":10773:10845   */\n      jump(tag_318)\n    tag_321:\n        /* \"--CODEGEN--\":10893:10902   */\n      dup2\n        /* \"--CODEGEN--\":10887:10891   */\n      dup2\n        /* \"--CODEGEN--\":10883:10903   */\n      sub\n        /* \"--CODEGEN--\":10878:10880   */\n      0x40\n        /* \"--CODEGEN--\":10867:10876   */\n      dup4\n        /* \"--CODEGEN--\":10863:10881   */\n      add\n        /* \"--CODEGEN--\":10856:10904   */\n      mstore\n        /* \"--CODEGEN--\":10918:10990   */\n      tag_322\n        /* \"--CODEGEN--\":10985:10989   */\n      dup2\n        /* \"--CODEGEN--\":10976:10982   */\n      dup6\n        /* \"--CODEGEN--\":10918:10990   */\n      jump(tag_277)\n    tag_322:\n        /* \"--CODEGEN--\":10910:10990   */\n      swap1\n      pop\n        /* \"--CODEGEN--\":11001:11067   */\n      tag_323\n        /* \"--CODEGEN--\":11063:11065   */\n      0x60\n        /* \"--CODEGEN--\":11052:11061   */\n      dup4\n        /* \"--CODEGEN--\":11048:11066   */\n      add\n        /* \"--CODEGEN--\":11039:11045   */\n      dup5\n        /* \"--CODEGEN--\":11001:11067   */\n      jump(tag_266)\n    tag_323:\n        /* \"--CODEGEN--\":10631:11077   */\n      swap6\n      swap5\n      pop\n      pop\n      pop\n      pop\n      pop\n      jump\n        /* \"--CODEGEN--\":11084:11537   */\n    tag_31:\n      0x00\n        /* \"--CODEGEN--\":11298:11300   */\n      0x20\n        /* \"--CODEGEN--\":11287:11296   */\n      dup3\n        /* \"--CODEGEN--\":11283:11301   */\n      add\n        /* \"--CODEGEN--\":11275:11301   */\n      swap1\n      pop\n        /* \"--CODEGEN--\":11348:11357   */\n      dup2\n        /* \"--CODEGEN--\":11342:11346   */\n      dup2\n        /* \"--CODEGEN--\":11338:11358   */\n      sub\n        /* \"--CODEGEN--\":11334:11335   */\n      0x00\n        /* \"--CODEGEN--\":11323:11332   */\n      dup4\n        /* \"--CODEGEN--\":11319:11336   */\n      add\n        /* \"--CODEGEN--\":11312:11359   */\n      mstore\n        /* \"--CODEGEN--\":11373:11527   */\n      tag_324\n        /* \"--CODEGEN--\":11522:11526   */\n      dup2\n        /* \"--CODEGEN--\":11513:11519   */\n      dup5\n        /* \"--CODEGEN--\":11373:11527   */\n      jump(tag_250)\n    tag_324:\n        /* \"--CODEGEN--\":11365:11527   */\n      swap1\n      pop\n        /* \"--CODEGEN--\":11269:11537   */\n      swap3\n      swap2\n      pop\n      pop\n      jump\n        /* \"--CODEGEN--\":11544:11951   */\n    tag_120:\n      0x00\n        /* \"--CODEGEN--\":11735:11737   */\n      0x20\n        /* \"--CODEGEN--\":11724:11733   */\n      dup3\n        /* \"--CODEGEN--\":11720:11738   */\n      add\n        /* \"--CODEGEN--\":11712:11738   */\n      swap1\n      pop\n        /* \"--CODEGEN--\":11785:11794   */\n      dup2\n        /* \"--CODEGEN--\":11779:11783   */\n      dup2\n        /* \"--CODEGEN--\":11775:11795   */\n      sub\n        /* \"--CODEGEN--\":11771:11772   */\n      0x00\n        /* \"--CODEGEN--\":11760:11769   */\n      dup4\n        /* \"--CODEGEN--\":11756:11773   */\n      add\n        /* \"--CODEGEN--\":11749:11796   */\n      mstore\n        /* \"--CODEGEN--\":11810:11941   */\n      tag_325\n        /* \"--CODEGEN--\":11936:11940   */\n      dup2\n        /* \"--CODEGEN--\":11810:11941   */\n      jump(tag_283)\n    tag_325:\n        /* \"--CODEGEN--\":11802:11941   */\n      swap1\n      pop\n        /* \"--CODEGEN--\":11706:11951   */\n      swap2\n      swap1\n      pop\n      jump\n        /* \"--CODEGEN--\":11958:12365   */\n    tag_151:\n      0x00\n        /* \"--CODEGEN--\":12149:12151   */\n      0x20\n        /* \"--CODEGEN--\":12138:12147   */\n      dup3\n        /* \"--CODEGEN--\":12134:12152   */\n      add\n        /* \"--CODEGEN--\":12126:12152   */\n      swap1\n      pop\n        /* \"--CODEGEN--\":12199:12208   */\n      dup2\n        /* \"--CODEGEN--\":12193:12197   */\n      dup2\n        /* \"--CODEGEN--\":12189:12209   */\n      sub\n        /* \"--CODEGEN--\":12185:12186   */\n      0x00\n        /* \"--CODEGEN--\":12174:12183   */\n      dup4\n        /* \"--CODEGEN--\":12170:12187   */\n      add\n        /* \"--CODEGEN--\":12163:12210   */\n      mstore\n        /* \"--CODEGEN--\":12224:12355   */\n      tag_326\n        /* \"--CODEGEN--\":12350:12354   */\n      dup2\n        /* \"--CODEGEN--\":12224:12355   */\n      jump(tag_286)\n    tag_326:\n        /* \"--CODEGEN--\":12216:12355   */\n      swap1\n      pop\n        /* \"--CODEGEN--\":12120:12365   */\n      swap2\n      swap1\n      pop\n      jump\n        /* \"--CODEGEN--\":12372:12779   */\n    tag_169:\n      0x00\n        /* \"--CODEGEN--\":12563:12565   */\n      0x20\n        /* \"--CODEGEN--\":12552:12561   */\n      dup3\n        /* \"--CODEGEN--\":12548:12566   */\n      add\n        /* \"--CODEGEN--\":12540:12566   */\n      swap1\n      pop\n        /* \"--CODEGEN--\":12613:12622   */\n      dup2\n        /* \"--CODEGEN--\":12607:12611   */\n      dup2\n        /* \"--CODEGEN--\":12603:12623   */\n      sub\n        /* \"--CODEGEN--\":12599:12600   */\n      0x00\n        /* \"--CODEGEN--\":12588:12597   */\n      dup4\n        /* \"--CODEGEN--\":12584:12601   */\n      add\n        /* \"--CODEGEN--\":12577:12624   */\n      mstore\n        /* \"--CODEGEN--\":12638:12769   */\n      tag_327\n        /* \"--CODEGEN--\":12764:12768   */\n      dup2\n        /* \"--CODEGEN--\":12638:12769   */\n      jump(tag_288)\n    tag_327:\n        /* \"--CODEGEN--\":12630:12769   */\n      swap1\n      pop\n        /* \"--CODEGEN--\":12534:12779   */\n      swap2\n      swap1\n      pop\n      jump\n        /* \"--CODEGEN--\":12786:13193   */\n    tag_75:\n      0x00\n        /* \"--CODEGEN--\":12977:12979   */\n      0x20\n        /* \"--CODEGEN--\":12966:12975   */\n      dup3\n        /* \"--CODEGEN--\":12962:12980   */\n      add\n        /* \"--CODEGEN--\":12954:12980   */\n      swap1\n      pop\n        /* \"--CODEGEN--\":13027:13036   */\n      dup2\n        /* \"--CODEGEN--\":13021:13025   */\n      dup2\n        /* \"--CODEGEN--\":13017:13037   */\n      sub\n        /* \"--CODEGEN--\":13013:13014   */\n      0x00\n        /* \"--CODEGEN--\":13002:13011   */\n      dup4\n        /* \"--CODEGEN--\":12998:13015   */\n      add\n        /* \"--CODEGEN--\":12991:13038   */\n      mstore\n        /* \"--CODEGEN--\":13052:13183   */\n      tag_328\n        /* \"--CODEGEN--\":13178:13182   */\n      dup2\n        /* \"--CODEGEN--\":13052:13183   */\n      jump(tag_290)\n    tag_328:\n        /* \"--CODEGEN--\":13044:13183   */\n      swap1\n      pop\n        /* \"--CODEGEN--\":12948:13193   */\n      swap2\n      swap1\n      pop\n      jump\n        /* \"--CODEGEN--\":13200:13607   */\n    tag_101:\n      0x00\n        /* \"--CODEGEN--\":13391:13393   */\n      0x20\n        /* \"--CODEGEN--\":13380:13389   */\n      dup3\n        /* \"--CODEGEN--\":13376:13394   */\n      add\n        /* \"--CODEGEN--\":13368:13394   */\n      swap1\n      pop\n        /* \"--CODEGEN--\":13441:13450   */\n      dup2\n        /* \"--CODEGEN--\":13435:13439   */\n      dup2\n        /* \"--CODEGEN--\":13431:13451   */\n      sub\n        /* \"--CODEGEN--\":13427:13428   */\n      0x00\n        /* \"--CODEGEN--\":13416:13425   */\n      dup4\n        /* \"--CODEGEN--\":13412:13429   */\n      add\n        /* \"--CODEGEN--\":13405:13452   */\n      mstore\n        /* \"--CODEGEN--\":13466:13597   */\n      tag_329\n        /* \"--CODEGEN--\":13592:13596   */\n      dup2\n        /* \"--CODEGEN--\":13466:13597   */\n      jump(tag_292)\n    tag_329:\n        /* \"--CODEGEN--\":13458:13597   */\n      swap1\n      pop\n        /* \"--CODEGEN--\":13362:13607   */\n      swap2\n      swap1\n      pop\n      jump\n        /* \"--CODEGEN--\":13614:14021   */\n    tag_97:\n      0x00\n        /* \"--CODEGEN--\":13805:13807   */\n      0x20\n        /* \"--CODEGEN--\":13794:13803   */\n      dup3\n        /* \"--CODEGEN--\":13790:13808   */\n      add\n        /* \"--CODEGEN--\":13782:13808   */\n      swap1\n      pop\n        /* \"--CODEGEN--\":13855:13864   */\n      dup2\n        /* \"--CODEGEN--\":13849:13853   */\n      dup2\n        /* \"--CODEGEN--\":13845:13865   */\n      sub\n        /* \"--CODEGEN--\":13841:13842   */\n      0x00\n        /* \"--CODEGEN--\":13830:13839   */\n      dup4\n        /* \"--CODEGEN--\":13826:13843   */\n      add\n        /* \"--CODEGEN--\":13819:13866   */\n      mstore\n        /* \"--CODEGEN--\":13880:14011   */\n      tag_330\n        /* \"--CODEGEN--\":14006:14010   */\n      dup2\n        /* \"--CODEGEN--\":13880:14011   */\n      jump(tag_294)\n    tag_330:\n        /* \"--CODEGEN--\":13872:14011   */\n      swap1\n      pop\n        /* \"--CODEGEN--\":13776:14021   */\n      swap2\n      swap1\n      pop\n      jump\n        /* \"--CODEGEN--\":14028:14435   */\n    tag_79:\n      0x00\n        /* \"--CODEGEN--\":14219:14221   */\n      0x20\n        /* \"--CODEGEN--\":14208:14217   */\n      dup3\n        /* \"--CODEGEN--\":14204:14222   */\n      add\n        /* \"--CODEGEN--\":14196:14222   */\n      swap1\n      pop\n        /* \"--CODEGEN--\":14269:14278   */\n      dup2\n        /* \"--CODEGEN--\":14263:14267   */\n      dup2\n        /* \"--CODEGEN--\":14259:14279   */\n      sub\n        /* \"--CODEGEN--\":14255:14256   */\n      0x00\n        /* \"--CODEGEN--\":14244:14253   */\n      dup4\n        /* \"--CODEGEN--\":14240:14257   */\n      add\n        /* \"--CODEGEN--\":14233:14280   */\n      mstore\n        /* \"--CODEGEN--\":14294:14425   */\n      tag_331\n        /* \"--CODEGEN--\":14420:14424   */\n      dup2\n        /* \"--CODEGEN--\":14294:14425   */\n      jump(tag_296)\n    tag_331:\n        /* \"--CODEGEN--\":14286:14425   */\n      swap1\n      pop\n        /* \"--CODEGEN--\":14190:14435   */\n      swap2\n      swap1\n      pop\n      jump\n        /* \"--CODEGEN--\":14442:14849   */\n    tag_91:\n      0x00\n        /* \"--CODEGEN--\":14633:14635   */\n      0x20\n        /* \"--CODEGEN--\":14622:14631   */\n      dup3\n        /* \"--CODEGEN--\":14618:14636   */\n      add\n        /* \"--CODEGEN--\":14610:14636   */\n      swap1\n      pop\n        /* \"--CODEGEN--\":14683:14692   */\n      dup2\n        /* \"--CODEGEN--\":14677:14681   */\n      dup2\n        /* \"--CODEGEN--\":14673:14693   */\n      sub\n        /* \"--CODEGEN--\":14669:14670   */\n      0x00\n        /* \"--CODEGEN--\":14658:14667   */\n      dup4\n        /* \"--CODEGEN--\":14654:14671   */\n      add\n        /* \"--CODEGEN--\":14647:14694   */\n      mstore\n        /* \"--CODEGEN--\":14708:14839   */\n      tag_332\n        /* \"--CODEGEN--\":14834:14838   */\n      dup2\n        /* \"--CODEGEN--\":14708:14839   */\n      jump(tag_298)\n    tag_332:\n        /* \"--CODEGEN--\":14700:14839   */\n      swap1\n      pop\n        /* \"--CODEGEN--\":14604:14849   */\n      swap2\n      swap1\n      pop\n      jump\n        /* \"--CODEGEN--\":14856:15263   */\n    tag_161:\n      0x00\n        /* \"--CODEGEN--\":15047:15049   */\n      0x20\n        /* \"--CODEGEN--\":15036:15045   */\n      dup3\n        /* \"--CODEGEN--\":15032:15050   */\n      add\n        /* \"--CODEGEN--\":15024:15050   */\n      swap1\n      pop\n        /* \"--CODEGEN--\":15097:15106   */\n      dup2\n        /* \"--CODEGEN--\":15091:15095   */\n      dup2\n        /* \"--CODEGEN--\":15087:15107   */\n      sub\n        /* \"--CODEGEN--\":15083:15084   */\n      0x00\n        /* \"--CODEGEN--\":15072:15081   */\n      dup4\n        /* \"--CODEGEN--\":15068:15085   */\n      add\n        /* \"--CODEGEN--\":15061:15108   */\n      mstore\n        /* \"--CODEGEN--\":15122:15253   */\n      tag_333\n        /* \"--CODEGEN--\":15248:15252   */\n      dup2\n        /* \"--CODEGEN--\":15122:15253   */\n      jump(tag_300)\n    tag_333:\n        /* \"--CODEGEN--\":15114:15253   */\n      swap1\n      pop\n        /* \"--CODEGEN--\":15018:15263   */\n      swap2\n      swap1\n      pop\n      jump\n        /* \"--CODEGEN--\":15270:15677   */\n    tag_83:\n      0x00\n        /* \"--CODEGEN--\":15461:15463   */\n      0x20\n        /* \"--CODEGEN--\":15450:15459   */\n      dup3\n        /* \"--CODEGEN--\":15446:15464   */\n      add\n        /* \"--CODEGEN--\":15438:15464   */\n      swap1\n      pop\n        /* \"--CODEGEN--\":15511:15520   */\n      dup2\n        /* \"--CODEGEN--\":15505:15509   */\n      dup2\n        /* \"--CODEGEN--\":15501:15521   */\n      sub\n        /* \"--CODEGEN--\":15497:15498   */\n      0x00\n        /* \"--CODEGEN--\":15486:15495   */\n      dup4\n        /* \"--CODEGEN--\":15482:15499   */\n      add\n        /* \"--CODEGEN--\":15475:15522   */\n      mstore\n        /* \"--CODEGEN--\":15536:15667   */\n      tag_334\n        /* \"--CODEGEN--\":15662:15666   */\n      dup2\n        /* \"--CODEGEN--\":15536:15667   */\n      jump(tag_302)\n    tag_334:\n        /* \"--CODEGEN--\":15528:15667   */\n      swap1\n      pop\n        /* \"--CODEGEN--\":15432:15677   */\n      swap2\n      swap1\n      pop\n      jump\n        /* \"--CODEGEN--\":15684:16091   */\n    tag_179:\n      0x00\n        /* \"--CODEGEN--\":15875:15877   */\n      0x20\n        /* \"--CODEGEN--\":15864:15873   */\n      dup3\n        /* \"--CODEGEN--\":15860:15878   */\n      add\n        /* \"--CODEGEN--\":15852:15878   */\n      swap1\n      pop\n        /* \"--CODEGEN--\":15925:15934   */\n      dup2\n        /* \"--CODEGEN--\":15919:15923   */\n      dup2\n        /* \"--CODEGEN--\":15915:15935   */\n      sub\n        /* \"--CODEGEN--\":15911:15912   */\n      0x00\n        /* \"--CODEGEN--\":15900:15909   */\n      dup4\n        /* \"--CODEGEN--\":15896:15913   */\n      add\n        /* \"--CODEGEN--\":15889:15936   */\n      mstore\n        /* \"--CODEGEN--\":15950:16081   */\n      tag_335\n        /* \"--CODEGEN--\":16076:16080   */\n      dup2\n        /* \"--CODEGEN--\":15950:16081   */\n      jump(tag_304)\n    tag_335:\n        /* \"--CODEGEN--\":15942:16081   */\n      swap1\n      pop\n        /* \"--CODEGEN--\":15846:16091   */\n      swap2\n      swap1\n      pop\n      jump\n        /* \"--CODEGEN--\":16098:16467   */\n    tag_42:\n      0x00\n        /* \"--CODEGEN--\":16270:16272   */\n      0x20\n        /* \"--CODEGEN--\":16259:16268   */\n      dup3\n        /* \"--CODEGEN--\":16255:16273   */\n      add\n        /* \"--CODEGEN--\":16247:16273   */\n      swap1\n      pop\n        /* \"--CODEGEN--\":16320:16329   */\n      dup2\n        /* \"--CODEGEN--\":16314:16318   */\n      dup2\n        /* \"--CODEGEN--\":16310:16330   */\n      sub\n        /* \"--CODEGEN--\":16306:16307   */\n      0x00\n        /* \"--CODEGEN--\":16295:16304   */\n      dup4\n        /* \"--CODEGEN--\":16291:16308   */\n      add\n        /* \"--CODEGEN--\":16284:16331   */\n      mstore\n        /* \"--CODEGEN--\":16345:16457   */\n      tag_336\n        /* \"--CODEGEN--\":16452:16456   */\n      dup2\n        /* \"--CODEGEN--\":16443:16449   */\n      dup5\n        /* \"--CODEGEN--\":16345:16457   */\n      jump(tag_306)\n    tag_336:\n        /* \"--CODEGEN--\":16337:16457   */\n      swap1\n      pop\n        /* \"--CODEGEN--\":16241:16467   */\n      swap3\n      swap2\n      pop\n      pop\n      jump\n        /* \"--CODEGEN--\":16474:16687   */\n    tag_57:\n      0x00\n        /* \"--CODEGEN--\":16592:16594   */\n      0x20\n        /* \"--CODEGEN--\":16581:16590   */\n      dup3\n        /* \"--CODEGEN--\":16577:16595   */\n      add\n        /* \"--CODEGEN--\":16569:16595   */\n      swap1\n      pop\n        /* \"--CODEGEN--\":16606:16677   */\n      tag_337\n        /* \"--CODEGEN--\":16674:16675   */\n      0x00\n        /* \"--CODEGEN--\":16663:16672   */\n      dup4\n        /* \"--CODEGEN--\":16659:16676   */\n      add\n        /* \"--CODEGEN--\":16650:16656   */\n      dup5\n        /* \"--CODEGEN--\":16606:16677   */\n      jump(tag_318)\n    tag_337:\n        /* \"--CODEGEN--\":16563:16687   */\n      swap3\n      swap2\n      pop\n      pop\n      jump\n        /* \"--CODEGEN--\":16694:16868   */\n    tag_256:\n      0x00\n        /* \"--CODEGEN--\":16803:16806   */\n      dup2\n        /* \"--CODEGEN--\":16795:16806   */\n      swap1\n      pop\n        /* \"--CODEGEN--\":16841:16845   */\n      0x20\n        /* \"--CODEGEN--\":16836:16839   */\n      dup3\n        /* \"--CODEGEN--\":16832:16846   */\n      add\n        /* \"--CODEGEN--\":16824:16846   */\n      swap1\n      pop\n        /* \"--CODEGEN--\":16789:16868   */\n      swap2\n      swap1\n      pop\n      jump\n        /* \"--CODEGEN--\":16875:17035   */\n    tag_252:\n      0x00\n        /* \"--CODEGEN--\":17007:17012   */\n      dup2\n        /* \"--CODEGEN--\":17001:17013   */\n      mload\n        /* \"--CODEGEN--\":16991:17013   */\n      swap1\n      pop\n        /* \"--CODEGEN--\":16972:17035   */\n      swap2\n      swap1\n      pop\n      jump\n        /* \"--CODEGEN--\":17042:17159   */\n    tag_270:\n      0x00\n        /* \"--CODEGEN--\":17131:17136   */\n      dup2\n        /* \"--CODEGEN--\":17125:17137   */\n      mload\n        /* \"--CODEGEN--\":17115:17137   */\n      swap1\n      pop\n        /* \"--CODEGEN--\":17096:17159   */\n      swap2\n      swap1\n      pop\n      jump\n        /* \"--CODEGEN--\":17166:17297   */\n    tag_262:\n      0x00\n        /* \"--CODEGEN--\":17287:17291   */\n      0x20\n        /* \"--CODEGEN--\":17282:17285   */\n      dup3\n        /* \"--CODEGEN--\":17278:17292   */\n      add\n        /* \"--CODEGEN--\":17270:17292   */\n      swap1\n      pop\n        /* \"--CODEGEN--\":17264:17297   */\n      swap2\n      swap1\n      pop\n      jump\n        /* \"--CODEGEN--\":17305:17506   */\n    tag_254:\n      0x00\n        /* \"--CODEGEN--\":17458:17464   */\n      dup3\n        /* \"--CODEGEN--\":17453:17456   */\n      dup3\n        /* \"--CODEGEN--\":17446:17465   */\n      mstore\n        /* \"--CODEGEN--\":17495:17499   */\n      0x20\n        /* \"--CODEGEN--\":17490:17493   */\n      dup3\n        /* \"--CODEGEN--\":17486:17500   */\n      add\n        /* \"--CODEGEN--\":17471:17500   */\n      swap1\n      pop\n        /* \"--CODEGEN--\":17439:17506   */\n      swap3\n      swap2\n      pop\n      pop\n      jump\n        /* \"--CODEGEN--\":17515:17667   */\n    tag_272:\n      0x00\n        /* \"--CODEGEN--\":17619:17625   */\n      dup3\n        /* \"--CODEGEN--\":17614:17617   */\n      dup3\n        /* \"--CODEGEN--\":17607:17626   */\n      mstore\n        /* \"--CODEGEN--\":17656:17660   */\n      0x20\n        /* \"--CODEGEN--\":17651:17654   */\n      dup3\n        /* \"--CODEGEN--\":17647:17661   */\n      add\n        /* \"--CODEGEN--\":17632:17661   */\n      swap1\n      pop\n        /* \"--CODEGEN--\":17600:17667   */\n      swap3\n      swap2\n      pop\n      pop\n      jump\n        /* \"--CODEGEN--\":17676:17838   */\n    tag_280:\n      0x00\n        /* \"--CODEGEN--\":17790:17796   */\n      dup3\n        /* \"--CODEGEN--\":17785:17788   */\n      dup3\n        /* \"--CODEGEN--\":17778:17797   */\n      mstore\n        /* \"--CODEGEN--\":17827:17831   */\n      0x20\n        /* \"--CODEGEN--\":17822:17825   */\n      dup3\n        /* \"--CODEGEN--\":17818:17832   */\n      add\n        /* \"--CODEGEN--\":17803:17832   */\n      swap1\n      pop\n        /* \"--CODEGEN--\":17771:17838   */\n      swap3\n      swap2\n      pop\n      pop\n      jump\n        /* \"--CODEGEN--\":17847:18010   */\n    tag_285:\n      0x00\n        /* \"--CODEGEN--\":17962:17968   */\n      dup3\n        /* \"--CODEGEN--\":17957:17960   */\n      dup3\n        /* \"--CODEGEN--\":17950:17969   */\n      mstore\n        /* \"--CODEGEN--\":17999:18003   */\n      0x20\n        /* \"--CODEGEN--\":17994:17997   */\n      dup3\n        /* \"--CODEGEN--\":17990:18004   */\n      add\n        /* \"--CODEGEN--\":17975:18004   */\n      swap1\n      pop\n        /* \"--CODEGEN--\":17943:18010   */\n      swap3\n      swap2\n      pop\n      pop\n      jump\n        /* \"--CODEGEN--\":18018:18109   */\n    tag_338:\n      0x00\n        /* \"--CODEGEN--\":18080:18104   */\n      tag_339\n        /* \"--CODEGEN--\":18098:18103   */\n      dup3\n        /* \"--CODEGEN--\":18080:18104   */\n      jump(tag_340)\n    tag_339:\n        /* \"--CODEGEN--\":18069:18104   */\n      swap1\n      pop\n        /* \"--CODEGEN--\":18063:18109   */\n      swap2\n      swap1\n      pop\n      jump\n        /* \"--CODEGEN--\":18116:18215   */\n    tag_247:\n      0x00\n        /* \"--CODEGEN--\":18186:18210   */\n      tag_341\n        /* \"--CODEGEN--\":18204:18209   */\n      dup3\n        /* \"--CODEGEN--\":18186:18210   */\n      jump(tag_340)\n    tag_341:\n        /* \"--CODEGEN--\":18175:18210   */\n      swap1\n      pop\n        /* \"--CODEGEN--\":18169:18215   */\n      swap2\n      swap1\n      pop\n      jump\n        /* \"--CODEGEN--\":18222:18307   */\n    tag_265:\n      0x00\n        /* \"--CODEGEN--\":18295:18300   */\n      dup2\n        /* \"--CODEGEN--\":18288:18301   */\n      iszero\n        /* \"--CODEGEN--\":18281:18302   */\n      iszero\n        /* \"--CODEGEN--\":18270:18302   */\n      swap1\n      pop\n        /* \"--CODEGEN--\":18264:18307   */\n      swap2\n      swap1\n      pop\n      jump\n        /* \"--CODEGEN--\":18314:18435   */\n    tag_340:\n      0x00\n        /* \"--CODEGEN--\":18387:18429   */\n      0xffffffffffffffffffffffffffffffffffffffff\n        /* \"--CODEGEN--\":18380:18385   */\n      dup3\n        /* \"--CODEGEN--\":18376:18430   */\n      and\n        /* \"--CODEGEN--\":18365:18430   */\n      swap1\n      pop\n        /* \"--CODEGEN--\":18359:18435   */\n      swap2\n      swap1\n      pop\n      jump\n        /* \"--CODEGEN--\":18442:18514   */\n    tag_317:\n      0x00\n        /* \"--CODEGEN--\":18504:18509   */\n      dup2\n        /* \"--CODEGEN--\":18493:18509   */\n      swap1\n      pop\n        /* \"--CODEGEN--\":18487:18514   */\n      swap2\n      swap1\n      pop\n      jump\n        /* \"--CODEGEN--\":18522:18790   */\n    tag_274:\n        /* \"--CODEGEN--\":18587:18588   */\n      0x00\n        /* \"--CODEGEN--\":18594:18695   */\n    tag_342:\n        /* \"--CODEGEN--\":18608:18614   */\n      dup4\n        /* \"--CODEGEN--\":18605:18606   */\n      dup2\n        /* \"--CODEGEN--\":18602:18615   */\n      lt\n        /* \"--CODEGEN--\":18594:18695   */\n      iszero\n      tag_344\n      jumpi\n        /* \"--CODEGEN--\":18684:18685   */\n      dup1\n        /* \"--CODEGEN--\":18679:18682   */\n      dup3\n        /* \"--CODEGEN--\":18675:18686   */\n      add\n        /* \"--CODEGEN--\":18669:18687   */\n      mload\n        /* \"--CODEGEN--\":18665:18666   */\n      dup2\n        /* \"--CODEGEN--\":18660:18663   */\n      dup5\n        /* \"--CODEGEN--\":18656:18667   */\n      add\n        /* \"--CODEGEN--\":18649:18688   */\n      mstore\n        /* \"--CODEGEN--\":18630:18632   */\n      0x20\n        /* \"--CODEGEN--\":18627:18628   */\n      dup2\n        /* \"--CODEGEN--\":18623:18633   */\n      add\n        /* \"--CODEGEN--\":18618:18633   */\n      swap1\n      pop\n        /* \"--CODEGEN--\":18594:18695   */\n      jump(tag_342)\n    tag_344:\n        /* \"--CODEGEN--\":18710:18716   */\n      dup4\n        /* \"--CODEGEN--\":18707:18708   */\n      dup2\n        /* \"--CODEGEN--\":18704:18717   */\n      gt\n        /* \"--CODEGEN--\":18701:18703   */\n      iszero\n      tag_345\n      jumpi\n        /* \"--CODEGEN--\":18775:18776   */\n      0x00\n        /* \"--CODEGEN--\":18766:18772   */\n      dup5\n        /* \"--CODEGEN--\":18761:18764   */\n      dup5\n        /* \"--CODEGEN--\":18757:18773   */\n      add\n        /* \"--CODEGEN--\":18750:18777   */\n      mstore\n        /* \"--CODEGEN--\":18701:18703   */\n    tag_345:\n        /* \"--CODEGEN--\":18571:18790   */\n      pop\n      pop\n      pop\n      pop\n      jump\n        /* \"--CODEGEN--\":18798:18895   */\n    tag_276:\n      0x00\n        /* \"--CODEGEN--\":18886:18888   */\n      0x1f\n        /* \"--CODEGEN--\":18882:18889   */\n      not\n        /* \"--CODEGEN--\":18877:18879   */\n      0x1f\n        /* \"--CODEGEN--\":18870:18875   */\n      dup4\n        /* \"--CODEGEN--\":18866:18880   */\n      add\n        /* \"--CODEGEN--\":18862:18890   */\n      and\n        /* \"--CODEGEN--\":18852:18890   */\n      swap1\n      pop\n        /* \"--CODEGEN--\":18846:18895   */\n      swap2\n      swap1\n      pop\n      jump\n        /* \"--CODEGEN--\":18903:19020   */\n    tag_222:\n        /* \"--CODEGEN--\":18972:18996   */\n      tag_346\n        /* \"--CODEGEN--\":18990:18995   */\n      dup2\n        /* \"--CODEGEN--\":18972:18996   */\n      jump(tag_338)\n    tag_346:\n        /* \"--CODEGEN--\":18965:18970   */\n      dup2\n        /* \"--CODEGEN--\":18962:18997   */\n      eq\n        /* \"--CODEGEN--\":18952:18954   */\n      tag_347\n      jumpi\n        /* \"--CODEGEN--\":19011:19012   */\n      0x00\n        /* \"--CODEGEN--\":19008:19009   */\n      dup1\n        /* \"--CODEGEN--\":19001:19013   */\n      revert\n        /* \"--CODEGEN--\":18952:18954   */\n    tag_347:\n        /* \"--CODEGEN--\":18946:19020   */\n      pop\n      jump\n        /* \"--CODEGEN--\":19027:19160   */\n    tag_225:\n        /* \"--CODEGEN--\":19104:19136   */\n      tag_348\n        /* \"--CODEGEN--\":19130:19135   */\n      dup2\n        /* \"--CODEGEN--\":19104:19136   */\n      jump(tag_247)\n    tag_348:\n        /* \"--CODEGEN--\":19097:19102   */\n      dup2\n        /* \"--CODEGEN--\":19094:19137   */\n      eq\n        /* \"--CODEGEN--\":19084:19086   */\n      tag_349\n      jumpi\n        /* \"--CODEGEN--\":19151:19152   */\n      0x00\n        /* \"--CODEGEN--\":19148:19149   */\n      dup1\n        /* \"--CODEGEN--\":19141:19153   */\n      revert\n        /* \"--CODEGEN--\":19084:19086   */\n    tag_349:\n        /* \"--CODEGEN--\":19078:19160   */\n      pop\n      jump\n        /* \"--CODEGEN--\":19167:19284   */\n    tag_232:\n        /* \"--CODEGEN--\":19236:19260   */\n      tag_350\n        /* \"--CODEGEN--\":19254:19259   */\n      dup2\n        /* \"--CODEGEN--\":19236:19260   */\n      jump(tag_317)\n    tag_350:\n        /* \"--CODEGEN--\":19229:19234   */\n      dup2\n        /* \"--CODEGEN--\":19226:19261   */\n      eq\n        /* \"--CODEGEN--\":19216:19218   */\n      tag_351\n      jumpi\n        /* \"--CODEGEN--\":19275:19276   */\n      0x00\n        /* \"--CODEGEN--\":19272:19273   */\n      dup1\n        /* \"--CODEGEN--\":19265:19277   */\n      revert\n        /* \"--CODEGEN--\":19216:19218   */\n    tag_351:\n        /* \"--CODEGEN--\":19210:19284   */\n      pop\n      jump\n\n    auxdata: 0xa365627a7a7231582053dfbeb643acccf9bd935f0a23bd0155da7ad2a5008b49596d238cb5efc3ba7f6c6578706572696d656e74616cf564736f6c63430005110040\n}\n",
				"bytecode": {
					"linkReferences": {},
					"object": "60806040523480156200001157600080fd5b50604051620027623803806200276283398181016040526200003791908101906200038c565b60008090505b8151811015620001b1576000808383815181106200005757fe5b602002602001015173ffffffffffffffffffffffffffffffffffffffff1673ffffffffffffffffffffffffffffffffffffffff16815260200190815260200160002060009054906101000a900460ff16158015620000f65750600073ffffffffffffffffffffffffffffffffffffffff16828281518110620000d557fe5b602002602001015173ffffffffffffffffffffffffffffffffffffffff1614155b62000138576040517f08c379a00000000000000000000000000000000000000000000000000000000081526004016200012f9062000413565b60405180910390fd5b60016000808484815181106200014a57fe5b602002602001015173ffffffffffffffffffffffffffffffffffffffff1673ffffffffffffffffffffffffffffffffffffffff16815260200190815260200160002060006101000a81548160ff02191690831515021790555080806001019150506200003d565b508060029080519060200190620001ca92919062000213565b5033600360006101000a81548173ffffffffffffffffffffffffffffffffffffffff021916908373ffffffffffffffffffffffffffffffffffffffff16021790555050620004eb565b8280548282559060005260206000209081019282156200028f579160200282015b828111156200028e5782518260006101000a81548173ffffffffffffffffffffffffffffffffffffffff021916908373ffffffffffffffffffffffffffffffffffffffff1602179055509160200191906001019062000234565b5b5090506200029e9190620002a2565b5090565b620002e591905b80821115620002e157600081816101000a81549073ffffffffffffffffffffffffffffffffffffffff021916905550600101620002a9565b5090565b90565b600081519050620002f981620004d1565b92915050565b600082601f8301126200031157600080fd5b815162000328620003228262000463565b62000435565b915081818352602084019350602081019050838560208402820111156200034e57600080fd5b60005b83811015620003825781620003678882620002e8565b84526020840193506020830192505060018101905062000351565b5050505092915050565b6000602082840312156200039f57600080fd5b600082015167ffffffffffffffff811115620003ba57600080fd5b620003c884828501620002ff565b91505092915050565b6000620003e06017836200048c565b91507f4572726f72203a206f776e65724c697374204572726f720000000000000000006000830152602082019050919050565b600060208201905081810360008301526200042e81620003d1565b9050919050565b6000604051905081810181811067ffffffffffffffff821117156200045957600080fd5b8060405250919050565b600067ffffffffffffffff8211156200047b57600080fd5b602082029050602081019050919050565b600082825260208201905092915050565b6000620004aa82620004b1565b9050919050565b600073ffffffffffffffffffffffffffffffffffffffff82169050919050565b620004dc816200049d565b8114620004e857600080fd5b50565b61226780620004fb6000396000f3fe6080604052600436106100a75760003560e01c8063a96c065b11610064578063a96c065b146101cc578063af61ed3d146101f5578063b03cd41814610220578063b759f95414610249578063bbc0751214610272578063d0e30db01461029b576100a7565b80630b5917e2146100a9578063380496d6146100d257806345673c11146100fb5780636f2d1bcb146101265780638916d12c1461014f5780639ace38c21461018c575b005b3480156100b557600080fd5b506100d060048036036100cb9190810190611903565b6102a5565b005b3480156100de57600080fd5b506100f960048036036100f4919081019061196f565b61057a565b005b34801561010757600080fd5b50610110610735565b60405161011d9190611f0b565b60405180910390f35b34801561013257600080fd5b5061014d600480360361014891908101906118da565b6108b1565b005b34801561015b57600080fd5b506101766004803603610171919081019061196f565b610a26565b604051610183919061208d565b60405180910390f35b34801561019857600080fd5b506101b360048036036101ae919081019061196f565b610b78565b6040516101c39493929190611ebf565b60405180910390f35b3480156101d857600080fd5b506101f360048036036101ee919081019061196f565b610c7a565b005b34801561020157600080fd5b5061020a611011565b60405161021791906120af565b60405180910390f35b34801561022c57600080fd5b50610247600480360361024291908101906118da565b611019565b005b34801561025557600080fd5b50610270600480360361026b919081019061196f565b61118f565b005b34801561027e57600080fd5b5061029960048036036102949190810190611903565b6113dc565b005b6102a36116b4565b005b6000803373ffffffffffffffffffffffffffffffffffffffff1673ffffffffffffffffffffffffffffffffffffffff16815260200190815260200160002060009054906101000a900460ff16610330576040517f08c379a000000000000000000000000000000000000000000000000000000000815260040161032790611f8d565b60405180910390fd5b8383838080601f016020809104026020016040519081016040528093929190818152602001838380828437600081840152601f19601f8201169050808301925050505050505082600073ffffffffffffffffffffffffffffffffffffffff168373ffffffffffffffffffffffffffffffffffffffff1614156103e7576040517f08c379a00000000000000000000000000000000000000000000000000000000081526004016103de90611fed565b60405180910390fd5b6001825110156104355760018111610434576040517f08c379a000000000000000000000000000000000000000000000000000000000815260040161042b9061204d565b60405180910390fd5b5b600460405180608001604052808973ffffffffffffffffffffffffffffffffffffffff16815260200186815260200188888080601f016020809104026020016040519081016040528093929190818152602001838380828437600081840152601f19601f820116905080830192505050505050508152602001600015158152509080600181540180825580915050906001820390600052602060002090600402016000909192909190915060008201518160000160006101000a81548173ffffffffffffffffffffffffffffffffffffffff021916908373ffffffffffffffffffffffffffffffffffffffff16021790555060208201518160010155604082015181600201908051906020019061054d929190611724565b5060608201518160030160006101000a81548160ff02191690831515021790555050505050505050505050565b8060048054905081106105c2576040517f08c379a00000000000000000000000000000000000000000000000000000000081526004016105b99061200d565b60405180910390fd5b81600481815481106105d057fe5b906000526020600020906004020160030160009054906101000a900460ff161561062f576040517f08c379a000000000000000000000000000000000000000000000000000000000815260040161062690611fcd565b60405180910390fd5b600360009054906101000a900473ffffffffffffffffffffffffffffffffffffffff1673ffffffffffffffffffffffffffffffffffffffff163373ffffffffffffffffffffffffffffffffffffffff16146106bf576040517f08c379a00000000000000000000000000000000000000000000000000000000081526004016106b690611fad565b60405180910390fd5b600483815481106106cc57fe5b9060005260206000209060040201600080820160006101000a81549073ffffffffffffffffffffffffffffffffffffffff0219169055600182016000905560028201600061071a91906117a4565b6003820160006101000a81549060ff02191690555050505050565b60606004805480602002602001604051908101604052809291908181526020016000905b828210156108a857838290600052602060002090600402016040518060800160405290816000820160009054906101000a900473ffffffffffffffffffffffffffffffffffffffff1673ffffffffffffffffffffffffffffffffffffffff1673ffffffffffffffffffffffffffffffffffffffff16815260200160018201548152602001600282018054600181600116156101000203166002900480601f0160208091040260200160405190810160405280929190818152602001828054600181600116156101000203166002900480156108755780601f1061084a57610100808354040283529160200191610875565b820191906000526020600020905b81548152906001019060200180831161085857829003601f168201915b505050505081526020016003820160009054906101000a900460ff16151515158152505081526020019060010190610759565b50505050905090565b600360009054906101000a900473ffffffffffffffffffffffffffffffffffffffff1673ffffffffffffffffffffffffffffffffffffffff163373ffffffffffffffffffffffffffffffffffffffff1614610941576040517f08c379a000000000000000000000000000000000000000000000000000000000815260040161093890611fad565b60405180910390fd5b6000808273ffffffffffffffffffffffffffffffffffffffff1673ffffffffffffffffffffffffffffffffffffffff16815260200190815260200160002060009054906101000a900460ff166109cc576040517f08c379a00000000000000000000000000000000000000000000000000000000081526004016109c390611f2d565b60405180910390fd5b60008060008373ffffffffffffffffffffffffffffffffffffffff1673ffffffffffffffffffffffffffffffffffffffff16815260200190815260200160002060006101000a81548160ff02191690831515021790555050565b610a2e6117ec565b60048281548110610a3b57fe5b90600052602060002090600402016040518060800160405290816000820160009054906101000a900473ffffffffffffffffffffffffffffffffffffffff1673ffffffffffffffffffffffffffffffffffffffff1673ffffffffffffffffffffffffffffffffffffffff16815260200160018201548152602001600282018054600181600116156101000203166002900480601f016020809104026020016040519081016040528092919081815260200182805460018160011615610100020316600290048015610b4d5780601f10610b2257610100808354040283529160200191610b4d565b820191906000526020600020905b815481529060010190602001808311610b3057829003601f168201915b505050505081526020016003820160009054906101000a900460ff1615151515815250509050919050565b60048181548110610b8557fe5b90600052602060002090600402016000915090508060000160009054906101000a900473ffffffffffffffffffffffffffffffffffffffff1690806001015490806002018054600181600116156101000203166002900480601f016020809104026020016040519081016040528092919081815260200182805460018160011615610100020316600290048015610c5d5780601f10610c3257610100808354040283529160200191610c5d565b820191906000526020600020905b815481529060010190602001808311610c4057829003601f168201915b5050505050908060030160009054906101000a900460ff16905084565b806004805490508110610cc2576040517f08c379a0000000000000000000000000000000000000000000000000000000008152600401610cb99061200d565b60405180910390fd5b8160048181548110610cd057fe5b906000526020600020906004020160030160009054906101000a900460ff1615610d2f576040517f08c379a0000000000000000000000000000000000000000000000000000000008152600401610d2690611fcd565b60405180910390fd5b600360009054906101000a900473ffffffffffffffffffffffffffffffffffffffff1673ffffffffffffffffffffffffffffffffffffffff163373ffffffffffffffffffffffffffffffffffffffff1614610dbf576040517f08c379a0000000000000000000000000000000000000000000000000000000008152600401610db690611fad565b60405180910390fd5b600060048481548110610dce57fe5b906000526020600020906004020190506001816002018054600181600116156101000203166002900490501015610ec05760004790508160010154811015610e4b576040517f08c379a0000000000000000000000000000000000000000000000000000000008152600401610e4290611f4d565b60405180910390fd5b8160000160009054906101000a900473ffffffffffffffffffffffffffffffffffffffff1673ffffffffffffffffffffffffffffffffffffffff166108fc83600101549081150290604051600060405180830381858888f19350505050158015610eb9573d6000803e3d6000fd5b5050610fee565b6000610faa8260000160009054906101000a900473ffffffffffffffffffffffffffffffffffffffff16836001015484600201805460018160011615610100020316600290049050856002018054600181600116156101000203166002900480601f016020809104026020016040519081016040528092919081815260200182805460018160011615610100020316600290048015610fa05780601f10610f7557610100808354040283529160200191610fa0565b820191906000526020600020905b815481529060010190602001808311610f8357829003601f168201915b50505050506116fd565b905080610fec576040517f08c379a0000000000000000000000000000000000000000000000000000000008152600401610fe39061202d565b60405180910390fd5b505b60018160030160006101000a81548160ff02191690831515021790555050505050565b600047905090565b600360009054906101000a900473ffffffffffffffffffffffffffffffffffffffff1673ffffffffffffffffffffffffffffffffffffffff163373ffffffffffffffffffffffffffffffffffffffff16146110a9576040517f08c379a00000000000000000000000000000000000000000000000000000000081526004016110a090611fad565b60405180910390fd5b6000808273ffffffffffffffffffffffffffffffffffffffff1673ffffffffffffffffffffffffffffffffffffffff16815260200190815260200160002060009054906101000a900460ff1615611135576040517f08c379a000000000000000000000000000000000000000000000000000000000815260040161112c90611f6d565b60405180910390fd5b60016000808373ffffffffffffffffffffffffffffffffffffffff1673ffffffffffffffffffffffffffffffffffffffff16815260200190815260200160002060006101000a81548160ff02191690831515021790555050565b6000803373ffffffffffffffffffffffffffffffffffffffff1673ffffffffffffffffffffffffffffffffffffffff16815260200190815260200160002060009054906101000a900460ff1661121a576040517f08c379a000000000000000000000000000000000000000000000000000000000815260040161121190611f8d565b60405180910390fd5b806004805490508110611262576040517f08c379a00000000000000000000000000000000000000000000000000000000081526004016112599061200d565b60405180910390fd5b816001600082815260200190815260200160002060003373ffffffffffffffffffffffffffffffffffffffff1673ffffffffffffffffffffffffffffffffffffffff16815260200190815260200160002060009054906101000a900460ff1615611301576040517f08c379a00000000000000000000000000000000000000000000000000000000081526004016112f89061206d565b60405180910390fd5b826004818154811061130f57fe5b906000526020600020906004020160030160009054906101000a900460ff161561136e576040517f08c379a000000000000000000000000000000000000000000000000000000000815260040161136590611fcd565b60405180910390fd5b600180600086815260200190815260200160002060003373ffffffffffffffffffffffffffffffffffffffff1673ffffffffffffffffffffffffffffffffffffffff16815260200190815260200160002060006101000a81548160ff02191690831515021790555050505050565b600360009054906101000a900473ffffffffffffffffffffffffffffffffffffffff1673ffffffffffffffffffffffffffffffffffffffff163373ffffffffffffffffffffffffffffffffffffffff161461146c576040517f08c379a000000000000000000000000000000000000000000000000000000000815260040161146390611fad565b60405180910390fd5b8383838080601f016020809104026020016040519081016040528093929190818152602001838380828437600081840152601f19601f8201169050808301925050505050505082600073ffffffffffffffffffffffffffffffffffffffff168373ffffffffffffffffffffffffffffffffffffffff161415611523576040517f08c379a000000000000000000000000000000000000000000000000000000000815260040161151a90611fed565b60405180910390fd5b6001825110156115715760018111611570576040517f08c379a00000000000000000000000000000000000000000000000000000000081526004016115679061204d565b60405180910390fd5b5b6001868690501015611612576000479050848110156115c5576040517f08c379a00000000000000000000000000000000000000000000000000000000081526004016115bc90611f4d565b60405180910390fd5b8773ffffffffffffffffffffffffffffffffffffffff166108fc869081150290604051600060405180830381858888f1935050505015801561160b573d6000803e3d6000fd5b50506116ab565b60006116678886898990508a8a8080601f016020809104026020016040519081016040528093929190818152602001838380828437600081840152601f19601f820116905080830192505050505050506116fd565b9050806116a9576040517f08c379a00000000000000000000000000000000000000000000000000000000081526004016116a09061202d565b60405180910390fd5b505b50505050505050565b3073ffffffffffffffffffffffffffffffffffffffff166108fc349081150290604051600060405180830381858888f193505050501580156116fa573d6000803e3d6000fd5b50565b6000806040516020840160008287838a8c6187965a03f19250505080915050949350505050565b828054600181600116156101000203166002900490600052602060002090601f016020900481019282601f1061176557805160ff1916838001178555611793565b82800160010185558215611793579182015b82811115611792578251825591602001919060010190611777565b5b5090506117a0919061182c565b5090565b50805460018160011615610100020316600290046000825580601f106117ca57506117e9565b601f0160209004906000526020600020908101906117e8919061182c565b5b50565b6040518060800160405280600073ffffffffffffffffffffffffffffffffffffffff16815260200160008152602001606081526020016000151581525090565b61184e91905b8082111561184a576000816000905550600101611832565b5090565b90565b600081359050611860816121df565b92915050565b600081359050611875816121f6565b92915050565b60008083601f84011261188d57600080fd5b8235905067ffffffffffffffff8111156118a657600080fd5b6020830191508360018202830111156118be57600080fd5b9250929050565b6000813590506118d48161220d565b92915050565b6000602082840312156118ec57600080fd5b60006118fa84828501611851565b91505092915050565b6000806000806060858703121561191957600080fd5b600061192787828801611866565b945050602085013567ffffffffffffffff81111561194457600080fd5b6119508782880161187b565b93509350506040611963878288016118c5565b91505092959194509250565b60006020828403121561198157600080fd5b600061198f848285016118c5565b91505092915050565b60006119a48383611e3e565b905092915050565b6119b581612153565b82525050565b6119c481612153565b82525050565b60006119d5826120da565b6119df81856120fd565b9350836020820285016119f1856120ca565b8060005b85811015611a2d5784840389528151611a0e8582611998565b9450611a19836120f0565b925060208a019950506001810190506119f5565b50829750879550505050505092915050565b611a4881612165565b82525050565b611a5781612165565b82525050565b6000611a68826120e5565b611a72818561210e565b9350611a8281856020860161219b565b611a8b816121ce565b840191505092915050565b6000611aa1826120e5565b611aab818561211f565b9350611abb81856020860161219b565b611ac4816121ce565b840191505092915050565b6000611adc601783612130565b91507f4572726f72203a204e6f7420496e204f776e65724d61700000000000000000006000830152602082019050919050565b6000611b1c601783612130565b91507f4572726f72203a204e6f7420456e6f756768204b6c61790000000000000000006000830152602082019050919050565b6000611b5c601b83612130565b91507f4572726f72203a20616c726561647920696e204f776e65724d617000000000006000830152602082019050919050565b6000611b9c601283612130565b91507f4572726f72203a204e6f74204f776e65722100000000000000000000000000006000830152602082019050919050565b6000611bdc602083612130565b91507f4572726f72203a206d73672e73656e646572206973204e6f74204d61737465726000830152602082019050919050565b6000611c1c601983612130565b91507f4572726f723a20747820616c72656164792045786375746564000000000000006000830152602082019050919050565b6000611c5c602383612130565b91507f4572726f72203a2064657374696e6174696f6e206973205a65726f204164647260008301527f65737300000000000000000000000000000000000000000000000000000000006020830152604082019050919050565b6000611cc2602083612130565b91507f4572726f72203a205472616e73636174696f6e206973204e6f742045786973746000830152602082019050919050565b6000611d02601a83612130565b91507f4572726f72203a204661696c6564205472616e73616374696f6e0000000000006000830152602082019050919050565b6000611d42603483612130565b91507f4572726f72203a207472616e73616374696f6e2069732053656e64206b6c617960008301527f20427574206461746120697320457869737465640000000000000000000000006020830152604082019050919050565b6000611da8601b83612130565b91507f4572726f72203a20747820616c726561647920617070726f76656400000000006000830152602082019050919050565b6000608083016000830151611df360008601826119ac565b506020830151611e066020860182611ea1565b5060408301518482036040860152611e1e8282611a5d565b9150506060830151611e336060860182611a3f565b508091505092915050565b6000608083016000830151611e5660008601826119ac565b506020830151611e696020860182611ea1565b5060408301518482036040860152611e818282611a5d565b9150506060830151611e966060860182611a3f565b508091505092915050565b611eaa81612191565b82525050565b611eb981612191565b82525050565b6000608082019050611ed460008301876119bb565b611ee16020830186611eb0565b8181036040830152611ef38185611a96565b9050611f026060830184611a4e565b95945050505050565b60006020820190508181036000830152611f2581846119ca565b905092915050565b60006020820190508181036000830152611f4681611acf565b9050919050565b60006020820190508181036000830152611f6681611b0f565b9050919050565b60006020820190508181036000830152611f8681611b4f565b9050919050565b60006020820190508181036000830152611fa681611b8f565b9050919050565b60006020820190508181036000830152611fc681611bcf565b9050919050565b60006020820190508181036000830152611fe681611c0f565b9050919050565b6000602082019050818103600083015261200681611c4f565b9050919050565b6000602082019050818103600083015261202681611cb5565b9050919050565b6000602082019050818103600083015261204681611cf5565b9050919050565b6000602082019050818103600083015261206681611d35565b9050919050565b6000602082019050818103600083015261208681611d9b565b9050919050565b600060208201905081810360008301526120a78184611ddb565b905092915050565b60006020820190506120c46000830184611eb0565b92915050565b6000819050602082019050919050565b600081519050919050565b600081519050919050565b6000602082019050919050565b600082825260208201905092915050565b600082825260208201905092915050565b600082825260208201905092915050565b600082825260208201905092915050565b600061214c82612171565b9050919050565b600061215e82612171565b9050919050565b60008115159050919050565b600073ffffffffffffffffffffffffffffffffffffffff82169050919050565b6000819050919050565b60005b838110156121b957808201518184015260208101905061219e565b838111156121c8576000848401525b50505050565b6000601f19601f8301169050919050565b6121e881612141565b81146121f357600080fd5b50565b6121ff81612153565b811461220a57600080fd5b50565b61221681612191565b811461222157600080fd5b5056fea365627a7a7231582053dfbeb643acccf9bd935f0a23bd0155da7ad2a5008b49596d238cb5efc3ba7f6c6578706572696d656e74616cf564736f6c63430005110040",
					"opcodes": "PUSH1 0x80 PUSH1 0x40 MSTORE CALLVALUE DUP1 ISZERO PUSH3 0x11 JUMPI PUSH1 0x0 DUP1 REVERT JUMPDEST POP PUSH1 0x40 MLOAD PUSH3 0x2762 CODESIZE SUB DUP1 PUSH3 0x2762 DUP4 CODECOPY DUP2 DUP2 ADD PUSH1 0x40 MSTORE PUSH3 0x37 SWAP2 SWAP1 DUP2 ADD SWAP1 PUSH3 0x38C JUMP JUMPDEST PUSH1 0x0 DUP1 SWAP1 POP JUMPDEST DUP2 MLOAD DUP2 LT ISZERO PUSH3 0x1B1 JUMPI PUSH1 0x0 DUP1 DUP4 DUP4 DUP2 MLOAD DUP2 LT PUSH3 0x57 JUMPI INVALID JUMPDEST PUSH1 0x20 MUL PUSH1 0x20 ADD ADD MLOAD PUSH20 0xFFFFFFFFFFFFFFFFFFFFFFFFFFFFFFFFFFFFFFFF AND PUSH20 0xFFFFFFFFFFFFFFFFFFFFFFFFFFFFFFFFFFFFFFFF AND DUP2 MSTORE PUSH1 0x20 ADD SWAP1 DUP2 MSTORE PUSH1 0x20 ADD PUSH1 0x0 KECCAK256 PUSH1 0x0 SWAP1 SLOAD SWAP1 PUSH2 0x100 EXP SWAP1 DIV PUSH1 0xFF AND ISZERO DUP1 ISZERO PUSH3 0xF6 JUMPI POP PUSH1 0x0 PUSH20 0xFFFFFFFFFFFFFFFFFFFFFFFFFFFFFFFFFFFFFFFF AND DUP3 DUP3 DUP2 MLOAD DUP2 LT PUSH3 0xD5 JUMPI INVALID JUMPDEST PUSH1 0x20 MUL PUSH1 0x20 ADD ADD MLOAD PUSH20 0xFFFFFFFFFFFFFFFFFFFFFFFFFFFFFFFFFFFFFFFF AND EQ ISZERO JUMPDEST PUSH3 0x138 JUMPI PUSH1 0x40 MLOAD PUSH32 0x8C379A000000000000000000000000000000000000000000000000000000000 DUP2 MSTORE PUSH1 0x4 ADD PUSH3 0x12F SWAP1 PUSH3 0x413 JUMP JUMPDEST PUSH1 0x40 MLOAD DUP1 SWAP2 SUB SWAP1 REVERT JUMPDEST PUSH1 0x1 PUSH1 0x0 DUP1 DUP5 DUP5 DUP2 MLOAD DUP2 LT PUSH3 0x14A JUMPI INVALID JUMPDEST PUSH1 0x20 MUL PUSH1 0x20 ADD ADD MLOAD PUSH20 0xFFFFFFFFFFFFFFFFFFFFFFFFFFFFFFFFFFFFFFFF AND PUSH20 0xFFFFFFFFFFFFFFFFFFFFFFFFFFFFFFFFFFFFFFFF AND DUP2 MSTORE PUSH1 0x20 ADD SWAP1 DUP2 MSTORE PUSH1 0x20 ADD PUSH1 0x0 KECCAK256 PUSH1 0x0 PUSH2 0x100 EXP DUP2 SLOAD DUP2 PUSH1 0xFF MUL NOT AND SWAP1 DUP4 ISZERO ISZERO MUL OR SWAP1 SSTORE POP DUP1 DUP1 PUSH1 0x1 ADD SWAP2 POP POP PUSH3 0x3D JUMP JUMPDEST POP DUP1 PUSH1 0x2 SWAP1 DUP1 MLOAD SWAP1 PUSH1 0x20 ADD SWAP1 PUSH3 0x1CA SWAP3 SWAP2 SWAP1 PUSH3 0x213 JUMP JUMPDEST POP CALLER PUSH1 0x3 PUSH1 0x0 PUSH2 0x100 EXP DUP2 SLOAD DUP2 PUSH20 0xFFFFFFFFFFFFFFFFFFFFFFFFFFFFFFFFFFFFFFFF MUL NOT AND SWAP1 DUP4 PUSH20 0xFFFFFFFFFFFFFFFFFFFFFFFFFFFFFFFFFFFFFFFF AND MUL OR SWAP1 SSTORE POP POP PUSH3 0x4EB JUMP JUMPDEST DUP3 DUP1 SLOAD DUP3 DUP3 SSTORE SWAP1 PUSH1 0x0 MSTORE PUSH1 0x20 PUSH1 0x0 KECCAK256 SWAP1 DUP2 ADD SWAP3 DUP3 ISZERO PUSH3 0x28F JUMPI SWAP2 PUSH1 0x20 MUL DUP3 ADD JUMPDEST DUP3 DUP2 GT ISZERO PUSH3 0x28E JUMPI DUP3 MLOAD DUP3 PUSH1 0x0 PUSH2 0x100 EXP DUP2 SLOAD DUP2 PUSH20 0xFFFFFFFFFFFFFFFFFFFFFFFFFFFFFFFFFFFFFFFF MUL NOT AND SWAP1 DUP4 PUSH20 0xFFFFFFFFFFFFFFFFFFFFFFFFFFFFFFFFFFFFFFFF AND MUL OR SWAP1 SSTORE POP SWAP2 PUSH1 0x20 ADD SWAP2 SWAP1 PUSH1 0x1 ADD SWAP1 PUSH3 0x234 JUMP JUMPDEST JUMPDEST POP SWAP1 POP PUSH3 0x29E SWAP2 SWAP1 PUSH3 0x2A2 JUMP JUMPDEST POP SWAP1 JUMP JUMPDEST PUSH3 0x2E5 SWAP2 SWAP1 JUMPDEST DUP1 DUP3 GT ISZERO PUSH3 0x2E1 JUMPI PUSH1 0x0 DUP2 DUP2 PUSH2 0x100 EXP DUP2 SLOAD SWAP1 PUSH20 0xFFFFFFFFFFFFFFFFFFFFFFFFFFFFFFFFFFFFFFFF MUL NOT AND SWAP1 SSTORE POP PUSH1 0x1 ADD PUSH3 0x2A9 JUMP JUMPDEST POP SWAP1 JUMP JUMPDEST SWAP1 JUMP JUMPDEST PUSH1 0x0 DUP2 MLOAD SWAP1 POP PUSH3 0x2F9 DUP2 PUSH3 0x4D1 JUMP JUMPDEST SWAP3 SWAP2 POP POP JUMP JUMPDEST PUSH1 0x0 DUP3 PUSH1 0x1F DUP4 ADD SLT PUSH3 0x311 JUMPI PUSH1 0x0 DUP1 REVERT JUMPDEST DUP2 MLOAD PUSH3 0x328 PUSH3 0x322 DUP3 PUSH3 0x463 JUMP JUMPDEST PUSH3 0x435 JUMP JUMPDEST SWAP2 POP DUP2 DUP2 DUP4 MSTORE PUSH1 0x20 DUP5 ADD SWAP4 POP PUSH1 0x20 DUP2 ADD SWAP1 POP DUP4 DUP6 PUSH1 0x20 DUP5 MUL DUP3 ADD GT ISZERO PUSH3 0x34E JUMPI PUSH1 0x0 DUP1 REVERT JUMPDEST PUSH1 0x0 JUMPDEST DUP4 DUP2 LT ISZERO PUSH3 0x382 JUMPI DUP2 PUSH3 0x367 DUP9 DUP3 PUSH3 0x2E8 JUMP JUMPDEST DUP5 MSTORE PUSH1 0x20 DUP5 ADD SWAP4 POP PUSH1 0x20 DUP4 ADD SWAP3 POP POP PUSH1 0x1 DUP2 ADD SWAP1 POP PUSH3 0x351 JUMP JUMPDEST POP POP POP POP SWAP3 SWAP2 POP POP JUMP JUMPDEST PUSH1 0x0 PUSH1 0x20 DUP3 DUP5 SUB SLT ISZERO PUSH3 0x39F JUMPI PUSH1 0x0 DUP1 REVERT JUMPDEST PUSH1 0x0 DUP3 ADD MLOAD PUSH8 0xFFFFFFFFFFFFFFFF DUP2 GT ISZERO PUSH3 0x3BA JUMPI PUSH1 0x0 DUP1 REVERT JUMPDEST PUSH3 0x3C8 DUP5 DUP3 DUP6 ADD PUSH3 0x2FF JUMP JUMPDEST SWAP2 POP POP SWAP3 SWAP2 POP POP JUMP JUMPDEST PUSH1 0x0 PUSH3 0x3E0 PUSH1 0x17 DUP4 PUSH3 0x48C JUMP JUMPDEST SWAP2 POP PUSH32 0x4572726F72203A206F776E65724C697374204572726F72000000000000000000 PUSH1 0x0 DUP4 ADD MSTORE PUSH1 0x20 DUP3 ADD SWAP1 POP SWAP2 SWAP1 POP JUMP JUMPDEST PUSH1 0x0 PUSH1 0x20 DUP3 ADD SWAP1 POP DUP2 DUP2 SUB PUSH1 0x0 DUP4 ADD MSTORE PUSH3 0x42E DUP2 PUSH3 0x3D1 JUMP JUMPDEST SWAP1 POP SWAP2 SWAP1 POP JUMP JUMPDEST PUSH1 0x0 PUSH1 0x40 MLOAD SWAP1 POP DUP2 DUP2 ADD DUP2 DUP2 LT PUSH8 0xFFFFFFFFFFFFFFFF DUP3 GT OR ISZERO PUSH3 0x459 JUMPI PUSH1 0x0 DUP1 REVERT JUMPDEST DUP1 PUSH1 0x40 MSTORE POP SWAP2 SWAP1 POP JUMP JUMPDEST PUSH1 0x0 PUSH8 0xFFFFFFFFFFFFFFFF DUP3 GT ISZERO PUSH3 0x47B JUMPI PUSH1 0x0 DUP1 REVERT JUMPDEST PUSH1 0x20 DUP3 MUL SWAP1 POP PUSH1 0x20 DUP2 ADD SWAP1 POP SWAP2 SWAP1 POP JUMP JUMPDEST PUSH1 0x0 DUP3 DUP3 MSTORE PUSH1 0x20 DUP3 ADD SWAP1 POP SWAP3 SWAP2 POP POP JUMP JUMPDEST PUSH1 0x0 PUSH3 0x4AA DUP3 PUSH3 0x4B1 JUMP JUMPDEST SWAP1 POP SWAP2 SWAP1 POP JUMP JUMPDEST PUSH1 0x0 PUSH20 0xFFFFFFFFFFFFFFFFFFFFFFFFFFFFFFFFFFFFFFFF DUP3 AND SWAP1 POP SWAP2 SWAP1 POP JUMP JUMPDEST PUSH3 0x4DC DUP2 PUSH3 0x49D JUMP JUMPDEST DUP2 EQ PUSH3 0x4E8 JUMPI PUSH1 0x0 DUP1 REVERT JUMPDEST POP JUMP JUMPDEST PUSH2 0x2267 DUP1 PUSH3 0x4FB PUSH1 0x0 CODECOPY PUSH1 0x0 RETURN INVALID PUSH1 0x80 PUSH1 0x40 MSTORE PUSH1 0x4 CALLDATASIZE LT PUSH2 0xA7 JUMPI PUSH1 0x0 CALLDATALOAD PUSH1 0xE0 SHR DUP1 PUSH4 0xA96C065B GT PUSH2 0x64 JUMPI DUP1 PUSH4 0xA96C065B EQ PUSH2 0x1CC JUMPI DUP1 PUSH4 0xAF61ED3D EQ PUSH2 0x1F5 JUMPI DUP1 PUSH4 0xB03CD418 EQ PUSH2 0x220 JUMPI DUP1 PUSH4 0xB759F954 EQ PUSH2 0x249 JUMPI DUP1 PUSH4 0xBBC07512 EQ PUSH2 0x272 JUMPI DUP1 PUSH4 0xD0E30DB0 EQ PUSH2 0x29B JUMPI PUSH2 0xA7 JUMP JUMPDEST DUP1 PUSH4 0xB5917E2 EQ PUSH2 0xA9 JUMPI DUP1 PUSH4 0x380496D6 EQ PUSH2 0xD2 JUMPI DUP1 PUSH4 0x45673C11 EQ PUSH2 0xFB JUMPI DUP1 PUSH4 0x6F2D1BCB EQ PUSH2 0x126 JUMPI DUP1 PUSH4 0x8916D12C EQ PUSH2 0x14F JUMPI DUP1 PUSH4 0x9ACE38C2 EQ PUSH2 0x18C JUMPI JUMPDEST STOP JUMPDEST CALLVALUE DUP1 ISZERO PUSH2 0xB5 JUMPI PUSH1 0x0 DUP1 REVERT JUMPDEST POP PUSH2 0xD0 PUSH1 0x4 DUP1 CALLDATASIZE SUB PUSH2 0xCB SWAP2 SWAP1 DUP2 ADD SWAP1 PUSH2 0x1903 JUMP JUMPDEST PUSH2 0x2A5 JUMP JUMPDEST STOP JUMPDEST CALLVALUE DUP1 ISZERO PUSH2 0xDE JUMPI PUSH1 0x0 DUP1 REVERT JUMPDEST POP PUSH2 0xF9 PUSH1 0x4 DUP1 CALLDATASIZE SUB PUSH2 0xF4 SWAP2 SWAP1 DUP2 ADD SWAP1 PUSH2 0x196F JUMP JUMPDEST PUSH2 0x57A JUMP JUMPDEST STOP JUMPDEST CALLVALUE DUP1 ISZERO PUSH2 0x107 JUMPI PUSH1 0x0 DUP1 REVERT JUMPDEST POP PUSH2 0x110 PUSH2 0x735 JUMP JUMPDEST PUSH1 0x40 MLOAD PUSH2 0x11D SWAP2 SWAP1 PUSH2 0x1F0B JUMP JUMPDEST PUSH1 0x40 MLOAD DUP1 SWAP2 SUB SWAP1 RETURN JUMPDEST CALLVALUE DUP1 ISZERO PUSH2 0x132 JUMPI PUSH1 0x0 DUP1 REVERT JUMPDEST POP PUSH2 0x14D PUSH1 0x4 DUP1 CALLDATASIZE SUB PUSH2 0x148 SWAP2 SWAP1 DUP2 ADD SWAP1 PUSH2 0x18DA JUMP JUMPDEST PUSH2 0x8B1 JUMP JUMPDEST STOP JUMPDEST CALLVALUE DUP1 ISZERO PUSH2 0x15B JUMPI PUSH1 0x0 DUP1 REVERT JUMPDEST POP PUSH2 0x176 PUSH1 0x4 DUP1 CALLDATASIZE SUB PUSH2 0x171 SWAP2 SWAP1 DUP2 ADD SWAP1 PUSH2 0x196F JUMP JUMPDEST PUSH2 0xA26 JUMP JUMPDEST PUSH1 0x40 MLOAD PUSH2 0x183 SWAP2 SWAP1 PUSH2 0x208D JUMP JUMPDEST PUSH1 0x40 MLOAD DUP1 SWAP2 SUB SWAP1 RETURN JUMPDEST CALLVALUE DUP1 ISZERO PUSH2 0x198 JUMPI PUSH1 0x0 DUP1 REVERT JUMPDEST POP PUSH2 0x1B3 PUSH1 0x4 DUP1 CALLDATASIZE SUB PUSH2 0x1AE SWAP2 SWAP1 DUP2 ADD SWAP1 PUSH2 0x196F JUMP JUMPDEST PUSH2 0xB78 JUMP JUMPDEST PUSH1 0x40 MLOAD PUSH2 0x1C3 SWAP5 SWAP4 SWAP3 SWAP2 SWAP1 PUSH2 0x1EBF JUMP JUMPDEST PUSH1 0x40 MLOAD DUP1 SWAP2 SUB SWAP1 RETURN JUMPDEST CALLVALUE DUP1 ISZERO PUSH2 0x1D8 JUMPI PUSH1 0x0 DUP1 REVERT JUMPDEST POP PUSH2 0x1F3 PUSH1 0x4 DUP1 CALLDATASIZE SUB PUSH2 0x1EE SWAP2 SWAP1 DUP2 ADD SWAP1 PUSH2 0x196F JUMP JUMPDEST PUSH2 0xC7A JUMP JUMPDEST STOP JUMPDEST CALLVALUE DUP1 ISZERO PUSH2 0x201 JUMPI PUSH1 0x0 DUP1 REVERT JUMPDEST POP PUSH2 0x20A PUSH2 0x1011 JUMP JUMPDEST PUSH1 0x40 MLOAD PUSH2 0x217 SWAP2 SWAP1 PUSH2 0x20AF JUMP JUMPDEST PUSH1 0x40 MLOAD DUP1 SWAP2 SUB SWAP1 RETURN JUMPDEST CALLVALUE DUP1 ISZERO PUSH2 0x22C JUMPI PUSH1 0x0 DUP1 REVERT JUMPDEST POP PUSH2 0x247 PUSH1 0x4 DUP1 CALLDATASIZE SUB PUSH2 0x242 SWAP2 SWAP1 DUP2 ADD SWAP1 PUSH2 0x18DA JUMP JUMPDEST PUSH2 0x1019 JUMP JUMPDEST STOP JUMPDEST CALLVALUE DUP1 ISZERO PUSH2 0x255 JUMPI PUSH1 0x0 DUP1 REVERT JUMPDEST POP PUSH2 0x270 PUSH1 0x4 DUP1 CALLDATASIZE SUB PUSH2 0x26B SWAP2 SWAP1 DUP2 ADD SWAP1 PUSH2 0x196F JUMP JUMPDEST PUSH2 0x118F JUMP JUMPDEST STOP JUMPDEST CALLVALUE DUP1 ISZERO PUSH2 0x27E JUMPI PUSH1 0x0 DUP1 REVERT JUMPDEST POP PUSH2 0x299 PUSH1 0x4 DUP1 CALLDATASIZE SUB PUSH2 0x294 SWAP2 SWAP1 DUP2 ADD SWAP1 PUSH2 0x1903 JUMP JUMPDEST PUSH2 0x13DC JUMP JUMPDEST STOP JUMPDEST PUSH2 0x2A3 PUSH2 0x16B4 JUMP JUMPDEST STOP JUMPDEST PUSH1 0x0 DUP1 CALLER PUSH20 0xFFFFFFFFFFFFFFFFFFFFFFFFFFFFFFFFFFFFFFFF AND PUSH20 0xFFFFFFFFFFFFFFFFFFFFFFFFFFFFFFFFFFFFFFFF AND DUP2 MSTORE PUSH1 0x20 ADD SWAP1 DUP2 MSTORE PUSH1 0x20 ADD PUSH1 0x0 KECCAK256 PUSH1 0x0 SWAP1 SLOAD SWAP1 PUSH2 0x100 EXP SWAP1 DIV PUSH1 0xFF AND PUSH2 0x330 JUMPI PUSH1 0x40 MLOAD PUSH32 0x8C379A000000000000000000000000000000000000000000000000000000000 DUP2 MSTORE PUSH1 0x4 ADD PUSH2 0x327 SWAP1 PUSH2 0x1F8D JUMP JUMPDEST PUSH1 0x40 MLOAD DUP1 SWAP2 SUB SWAP1 REVERT JUMPDEST DUP4 DUP4 DUP4 DUP1 DUP1 PUSH1 0x1F ADD PUSH1 0x20 DUP1 SWAP2 DIV MUL PUSH1 0x20 ADD PUSH1 0x40 MLOAD SWAP1 DUP2 ADD PUSH1 0x40 MSTORE DUP1 SWAP4 SWAP3 SWAP2 SWAP1 DUP2 DUP2 MSTORE PUSH1 0x20 ADD DUP4 DUP4 DUP1 DUP3 DUP5 CALLDATACOPY PUSH1 0x0 DUP2 DUP5 ADD MSTORE PUSH1 0x1F NOT PUSH1 0x1F DUP3 ADD AND SWAP1 POP DUP1 DUP4 ADD SWAP3 POP POP POP POP POP POP POP DUP3 PUSH1 0x0 PUSH20 0xFFFFFFFFFFFFFFFFFFFFFFFFFFFFFFFFFFFFFFFF AND DUP4 PUSH20 0xFFFFFFFFFFFFFFFFFFFFFFFFFFFFFFFFFFFFFFFF AND EQ ISZERO PUSH2 0x3E7 JUMPI PUSH1 0x40 MLOAD PUSH32 0x8C379A000000000000000000000000000000000000000000000000000000000 DUP2 MSTORE PUSH1 0x4 ADD PUSH2 0x3DE SWAP1 PUSH2 0x1FED JUMP JUMPDEST PUSH1 0x40 MLOAD DUP1 SWAP2 SUB SWAP1 REVERT JUMPDEST PUSH1 0x1 DUP3 MLOAD LT ISZERO PUSH2 0x435 JUMPI PUSH1 0x1 DUP2 GT PUSH2 0x434 JUMPI PUSH1 0x40 MLOAD PUSH32 0x8C379A000000000000000000000000000000000000000000000000000000000 DUP2 MSTORE PUSH1 0x4 ADD PUSH2 0x42B SWAP1 PUSH2 0x204D JUMP JUMPDEST PUSH1 0x40 MLOAD DUP1 SWAP2 SUB SWAP1 REVERT JUMPDEST JUMPDEST PUSH1 0x4 PUSH1 0x40 MLOAD DUP1 PUSH1 0x80 ADD PUSH1 0x40 MSTORE DUP1 DUP10 PUSH20 0xFFFFFFFFFFFFFFFFFFFFFFFFFFFFFFFFFFFFFFFF AND DUP2 MSTORE PUSH1 0x20 ADD DUP7 DUP2 MSTORE PUSH1 0x20 ADD DUP9 DUP9 DUP1 DUP1 PUSH1 0x1F ADD PUSH1 0x20 DUP1 SWAP2 DIV MUL PUSH1 0x20 ADD PUSH1 0x40 MLOAD SWAP1 DUP2 ADD PUSH1 0x40 MSTORE DUP1 SWAP4 SWAP3 SWAP2 SWAP1 DUP2 DUP2 MSTORE PUSH1 0x20 ADD DUP4 DUP4 DUP1 DUP3 DUP5 CALLDATACOPY PUSH1 0x0 DUP2 DUP5 ADD MSTORE PUSH1 0x1F NOT PUSH1 0x1F DUP3 ADD AND SWAP1 POP DUP1 DUP4 ADD SWAP3 POP POP POP POP POP POP POP DUP2 MSTORE PUSH1 0x20 ADD PUSH1 0x0 ISZERO ISZERO DUP2 MSTORE POP SWAP1 DUP1 PUSH1 0x1 DUP2 SLOAD ADD DUP1 DUP3 SSTORE DUP1 SWAP2 POP POP SWAP1 PUSH1 0x1 DUP3 SUB SWAP1 PUSH1 0x0 MSTORE PUSH1 0x20 PUSH1 0x0 KECCAK256 SWAP1 PUSH1 0x4 MUL ADD PUSH1 0x0 SWAP1 SWAP2 SWAP3 SWAP1 SWAP2 SWAP1 SWAP2 POP PUSH1 0x0 DUP3 ADD MLOAD DUP2 PUSH1 0x0 ADD PUSH1 0x0 PUSH2 0x100 EXP DUP2 SLOAD DUP2 PUSH20 0xFFFFFFFFFFFFFFFFFFFFFFFFFFFFFFFFFFFFFFFF MUL NOT AND SWAP1 DUP4 PUSH20 0xFFFFFFFFFFFFFFFFFFFFFFFFFFFFFFFFFFFFFFFF AND MUL OR SWAP1 SSTORE POP PUSH1 0x20 DUP3 ADD MLOAD DUP2 PUSH1 0x1 ADD SSTORE PUSH1 0x40 DUP3 ADD MLOAD DUP2 PUSH1 0x2 ADD SWAP1 DUP1 MLOAD SWAP1 PUSH1 0x20 ADD SWAP1 PUSH2 0x54D SWAP3 SWAP2 SWAP1 PUSH2 0x1724 JUMP JUMPDEST POP PUSH1 0x60 DUP3 ADD MLOAD DUP2 PUSH1 0x3 ADD PUSH1 0x0 PUSH2 0x100 EXP DUP2 SLOAD DUP2 PUSH1 0xFF MUL NOT AND SWAP1 DUP4 ISZERO ISZERO MUL OR SWAP1 SSTORE POP POP POP POP POP POP POP POP POP POP POP JUMP JUMPDEST DUP1 PUSH1 0x4 DUP1 SLOAD SWAP1 POP DUP2 LT PUSH2 0x5C2 JUMPI PUSH1 0x40 MLOAD PUSH32 0x8C379A000000000000000000000000000000000000000000000000000000000 DUP2 MSTORE PUSH1 0x4 ADD PUSH2 0x5B9 SWAP1 PUSH2 0x200D JUMP JUMPDEST PUSH1 0x40 MLOAD DUP1 SWAP2 SUB SWAP1 REVERT JUMPDEST DUP2 PUSH1 0x4 DUP2 DUP2 SLOAD DUP2 LT PUSH2 0x5D0 JUMPI INVALID JUMPDEST SWAP1 PUSH1 0x0 MSTORE PUSH1 0x20 PUSH1 0x0 KECCAK256 SWAP1 PUSH1 0x4 MUL ADD PUSH1 0x3 ADD PUSH1 0x0 SWAP1 SLOAD SWAP1 PUSH2 0x100 EXP SWAP1 DIV PUSH1 0xFF AND ISZERO PUSH2 0x62F JUMPI PUSH1 0x40 MLOAD PUSH32 0x8C379A000000000000000000000000000000000000000000000000000000000 DUP2 MSTORE PUSH1 0x4 ADD PUSH2 0x626 SWAP1 PUSH2 0x1FCD JUMP JUMPDEST PUSH1 0x40 MLOAD DUP1 SWAP2 SUB SWAP1 REVERT JUMPDEST PUSH1 0x3 PUSH1 0x0 SWAP1 SLOAD SWAP1 PUSH2 0x100 EXP SWAP1 DIV PUSH20 0xFFFFFFFFFFFFFFFFFFFFFFFFFFFFFFFFFFFFFFFF AND PUSH20 0xFFFFFFFFFFFFFFFFFFFFFFFFFFFFFFFFFFFFFFFF AND CALLER PUSH20 0xFFFFFFFFFFFFFFFFFFFFFFFFFFFFFFFFFFFFFFFF AND EQ PUSH2 0x6BF JUMPI PUSH1 0x40 MLOAD PUSH32 0x8C379A000000000000000000000000000000000000000000000000000000000 DUP2 MSTORE PUSH1 0x4 ADD PUSH2 0x6B6 SWAP1 PUSH2 0x1FAD JUMP JUMPDEST PUSH1 0x40 MLOAD DUP1 SWAP2 SUB SWAP1 REVERT JUMPDEST PUSH1 0x4 DUP4 DUP2 SLOAD DUP2 LT PUSH2 0x6CC JUMPI INVALID JUMPDEST SWAP1 PUSH1 0x0 MSTORE PUSH1 0x20 PUSH1 0x0 KECCAK256 SWAP1 PUSH1 0x4 MUL ADD PUSH1 0x0 DUP1 DUP3 ADD PUSH1 0x0 PUSH2 0x100 EXP DUP2 SLOAD SWAP1 PUSH20 0xFFFFFFFFFFFFFFFFFFFFFFFFFFFFFFFFFFFFFFFF MUL NOT AND SWAP1 SSTORE PUSH1 0x1 DUP3 ADD PUSH1 0x0 SWAP1 SSTORE PUSH1 0x2 DUP3 ADD PUSH1 0x0 PUSH2 0x71A SWAP2 SWAP1 PUSH2 0x17A4 JUMP JUMPDEST PUSH1 0x3 DUP3 ADD PUSH1 0x0 PUSH2 0x100 EXP DUP2 SLOAD SWAP1 PUSH1 0xFF MUL NOT AND SWAP1 SSTORE POP POP POP POP POP JUMP JUMPDEST PUSH1 0x60 PUSH1 0x4 DUP1 SLOAD DUP1 PUSH1 0x20 MUL PUSH1 0x20 ADD PUSH1 0x40 MLOAD SWAP1 DUP2 ADD PUSH1 0x40 MSTORE DUP1 SWAP3 SWAP2 SWAP1 DUP2 DUP2 MSTORE PUSH1 0x20 ADD PUSH1 0x0 SWAP1 JUMPDEST DUP3 DUP3 LT ISZERO PUSH2 0x8A8 JUMPI DUP4 DUP3 SWAP1 PUSH1 0x0 MSTORE PUSH1 0x20 PUSH1 0x0 KECCAK256 SWAP1 PUSH1 0x4 MUL ADD PUSH1 0x40 MLOAD DUP1 PUSH1 0x80 ADD PUSH1 0x40 MSTORE SWAP1 DUP2 PUSH1 0x0 DUP3 ADD PUSH1 0x0 SWAP1 SLOAD SWAP1 PUSH2 0x100 EXP SWAP1 DIV PUSH20 0xFFFFFFFFFFFFFFFFFFFFFFFFFFFFFFFFFFFFFFFF AND PUSH20 0xFFFFFFFFFFFFFFFFFFFFFFFFFFFFFFFFFFFFFFFF AND PUSH20 0xFFFFFFFFFFFFFFFFFFFFFFFFFFFFFFFFFFFFFFFF AND DUP2 MSTORE PUSH1 0x20 ADD PUSH1 0x1 DUP3 ADD SLOAD DUP2 MSTORE PUSH1 0x20 ADD PUSH1 0x2 DUP3 ADD DUP1 SLOAD PUSH1 0x1 DUP2 PUSH1 0x1 AND ISZERO PUSH2 0x100 MUL SUB AND PUSH1 0x2 SWAP1 DIV DUP1 PUSH1 0x1F ADD PUSH1 0x20 DUP1 SWAP2 DIV MUL PUSH1 0x20 ADD PUSH1 0x40 MLOAD SWAP1 DUP2 ADD PUSH1 0x40 MSTORE DUP1 SWAP3 SWAP2 SWAP1 DUP2 DUP2 MSTORE PUSH1 0x20 ADD DUP3 DUP1 SLOAD PUSH1 0x1 DUP2 PUSH1 0x1 AND ISZERO PUSH2 0x100 MUL SUB AND PUSH1 0x2 SWAP1 DIV DUP1 ISZERO PUSH2 0x875 JUMPI DUP1 PUSH1 0x1F LT PUSH2 0x84A JUMPI PUSH2 0x100 DUP1 DUP4 SLOAD DIV MUL DUP4 MSTORE SWAP2 PUSH1 0x20 ADD SWAP2 PUSH2 0x875 JUMP JUMPDEST DUP3 ADD SWAP2 SWAP1 PUSH1 0x0 MSTORE PUSH1 0x20 PUSH1 0x0 KECCAK256 SWAP1 JUMPDEST DUP2 SLOAD DUP2 MSTORE SWAP1 PUSH1 0x1 ADD SWAP1 PUSH1 0x20 ADD DUP1 DUP4 GT PUSH2 0x858 JUMPI DUP3 SWAP1 SUB PUSH1 0x1F AND DUP3 ADD SWAP2 JUMPDEST POP POP POP POP POP DUP2 MSTORE PUSH1 0x20 ADD PUSH1 0x3 DUP3 ADD PUSH1 0x0 SWAP1 SLOAD SWAP1 PUSH2 0x100 EXP SWAP1 DIV PUSH1 0xFF AND ISZERO ISZERO ISZERO ISZERO DUP2 MSTORE POP POP DUP2 MSTORE PUSH1 0x20 ADD SWAP1 PUSH1 0x1 ADD SWAP1 PUSH2 0x759 JUMP JUMPDEST POP POP POP POP SWAP1 POP SWAP1 JUMP JUMPDEST PUSH1 0x3 PUSH1 0x0 SWAP1 SLOAD SWAP1 PUSH2 0x100 EXP SWAP1 DIV PUSH20 0xFFFFFFFFFFFFFFFFFFFFFFFFFFFFFFFFFFFFFFFF AND PUSH20 0xFFFFFFFFFFFFFFFFFFFFFFFFFFFFFFFFFFFFFFFF AND CALLER PUSH20 0xFFFFFFFFFFFFFFFFFFFFFFFFFFFFFFFFFFFFFFFF AND EQ PUSH2 0x941 JUMPI PUSH1 0x40 MLOAD PUSH32 0x8C379A000000000000000000000000000000000000000000000000000000000 DUP2 MSTORE PUSH1 0x4 ADD PUSH2 0x938 SWAP1 PUSH2 0x1FAD JUMP JUMPDEST PUSH1 0x40 MLOAD DUP1 SWAP2 SUB SWAP1 REVERT JUMPDEST PUSH1 0x0 DUP1 DUP3 PUSH20 0xFFFFFFFFFFFFFFFFFFFFFFFFFFFFFFFFFFFFFFFF AND PUSH20 0xFFFFFFFFFFFFFFFFFFFFFFFFFFFFFFFFFFFFFFFF AND DUP2 MSTORE PUSH1 0x20 ADD SWAP1 DUP2 MSTORE PUSH1 0x20 ADD PUSH1 0x0 KECCAK256 PUSH1 0x0 SWAP1 SLOAD SWAP1 PUSH2 0x100 EXP SWAP1 DIV PUSH1 0xFF AND PUSH2 0x9CC JUMPI PUSH1 0x40 MLOAD PUSH32 0x8C379A000000000000000000000000000000000000000000000000000000000 DUP2 MSTORE PUSH1 0x4 ADD PUSH2 0x9C3 SWAP1 PUSH2 0x1F2D JUMP JUMPDEST PUSH1 0x40 MLOAD DUP1 SWAP2 SUB SWAP1 REVERT JUMPDEST PUSH1 0x0 DUP1 PUSH1 0x0 DUP4 PUSH20 0xFFFFFFFFFFFFFFFFFFFFFFFFFFFFFFFFFFFFFFFF AND PUSH20 0xFFFFFFFFFFFFFFFFFFFFFFFFFFFFFFFFFFFFFFFF AND DUP2 MSTORE PUSH1 0x20 ADD SWAP1 DUP2 MSTORE PUSH1 0x20 ADD PUSH1 0x0 KECCAK256 PUSH1 0x0 PUSH2 0x100 EXP DUP2 SLOAD DUP2 PUSH1 0xFF MUL NOT AND SWAP1 DUP4 ISZERO ISZERO MUL OR SWAP1 SSTORE POP POP JUMP JUMPDEST PUSH2 0xA2E PUSH2 0x17EC JUMP JUMPDEST PUSH1 0x4 DUP3 DUP2 SLOAD DUP2 LT PUSH2 0xA3B JUMPI INVALID JUMPDEST SWAP1 PUSH1 0x0 MSTORE PUSH1 0x20 PUSH1 0x0 KECCAK256 SWAP1 PUSH1 0x4 MUL ADD PUSH1 0x40 MLOAD DUP1 PUSH1 0x80 ADD PUSH1 0x40 MSTORE SWAP1 DUP2 PUSH1 0x0 DUP3 ADD PUSH1 0x0 SWAP1 SLOAD SWAP1 PUSH2 0x100 EXP SWAP1 DIV PUSH20 0xFFFFFFFFFFFFFFFFFFFFFFFFFFFFFFFFFFFFFFFF AND PUSH20 0xFFFFFFFFFFFFFFFFFFFFFFFFFFFFFFFFFFFFFFFF AND PUSH20 0xFFFFFFFFFFFFFFFFFFFFFFFFFFFFFFFFFFFFFFFF AND DUP2 MSTORE PUSH1 0x20 ADD PUSH1 0x1 DUP3 ADD SLOAD DUP2 MSTORE PUSH1 0x20 ADD PUSH1 0x2 DUP3 ADD DUP1 SLOAD PUSH1 0x1 DUP2 PUSH1 0x1 AND ISZERO PUSH2 0x100 MUL SUB AND PUSH1 0x2 SWAP1 DIV DUP1 PUSH1 0x1F ADD PUSH1 0x20 DUP1 SWAP2 DIV MUL PUSH1 0x20 ADD PUSH1 0x40 MLOAD SWAP1 DUP2 ADD PUSH1 0x40 MSTORE DUP1 SWAP3 SWAP2 SWAP1 DUP2 DUP2 MSTORE PUSH1 0x20 ADD DUP3 DUP1 SLOAD PUSH1 0x1 DUP2 PUSH1 0x1 AND ISZERO PUSH2 0x100 MUL SUB AND PUSH1 0x2 SWAP1 DIV DUP1 ISZERO PUSH2 0xB4D JUMPI DUP1 PUSH1 0x1F LT PUSH2 0xB22 JUMPI PUSH2 0x100 DUP1 DUP4 SLOAD DIV MUL DUP4 MSTORE SWAP2 PUSH1 0x20 ADD SWAP2 PUSH2 0xB4D JUMP JUMPDEST DUP3 ADD SWAP2 SWAP1 PUSH1 0x0 MSTORE PUSH1 0x20 PUSH1 0x0 KECCAK256 SWAP1 JUMPDEST DUP2 SLOAD DUP2 MSTORE SWAP1 PUSH1 0x1 ADD SWAP1 PUSH1 0x20 ADD DUP1 DUP4 GT PUSH2 0xB30 JUMPI DUP3 SWAP1 SUB PUSH1 0x1F AND DUP3 ADD SWAP2 JUMPDEST POP POP POP POP POP DUP2 MSTORE PUSH1 0x20 ADD PUSH1 0x3 DUP3 ADD PUSH1 0x0 SWAP1 SLOAD SWAP1 PUSH2 0x100 EXP SWAP1 DIV PUSH1 0xFF AND ISZERO ISZERO ISZERO ISZERO DUP2 MSTORE POP POP SWAP1 POP SWAP2 SWAP1 POP JUMP JUMPDEST PUSH1 0x4 DUP2 DUP2 SLOAD DUP2 LT PUSH2 0xB85 JUMPI INVALID JUMPDEST SWAP1 PUSH1 0x0 MSTORE PUSH1 0x20 PUSH1 0x0 KECCAK256 SWAP1 PUSH1 0x4 MUL ADD PUSH1 0x0 SWAP2 POP SWAP1 POP DUP1 PUSH1 0x0 ADD PUSH1 0x0 SWAP1 SLOAD SWAP1 PUSH2 0x100 EXP SWAP1 DIV PUSH20 0xFFFFFFFFFFFFFFFFFFFFFFFFFFFFFFFFFFFFFFFF AND SWAP1 DUP1 PUSH1 0x1 ADD SLOAD SWAP1 DUP1 PUSH1 0x2 ADD DUP1 SLOAD PUSH1 0x1 DUP2 PUSH1 0x1 AND ISZERO PUSH2 0x100 MUL SUB AND PUSH1 0x2 SWAP1 DIV DUP1 PUSH1 0x1F ADD PUSH1 0x20 DUP1 SWAP2 DIV MUL PUSH1 0x20 ADD PUSH1 0x40 MLOAD SWAP1 DUP2 ADD PUSH1 0x40 MSTORE DUP1 SWAP3 SWAP2 SWAP1 DUP2 DUP2 MSTORE PUSH1 0x20 ADD DUP3 DUP1 SLOAD PUSH1 0x1 DUP2 PUSH1 0x1 AND ISZERO PUSH2 0x100 MUL SUB AND PUSH1 0x2 SWAP1 DIV DUP1 ISZERO PUSH2 0xC5D JUMPI DUP1 PUSH1 0x1F LT PUSH2 0xC32 JUMPI PUSH2 0x100 DUP1 DUP4 SLOAD DIV MUL DUP4 MSTORE SWAP2 PUSH1 0x20 ADD SWAP2 PUSH2 0xC5D JUMP JUMPDEST DUP3 ADD SWAP2 SWAP1 PUSH1 0x0 MSTORE PUSH1 0x20 PUSH1 0x0 KECCAK256 SWAP1 JUMPDEST DUP2 SLOAD DUP2 MSTORE SWAP1 PUSH1 0x1 ADD SWAP1 PUSH1 0x20 ADD DUP1 DUP4 GT PUSH2 0xC40 JUMPI DUP3 SWAP1 SUB PUSH1 0x1F AND DUP3 ADD SWAP2 JUMPDEST POP POP POP POP POP SWAP1 DUP1 PUSH1 0x3 ADD PUSH1 0x0 SWAP1 SLOAD SWAP1 PUSH2 0x100 EXP SWAP1 DIV PUSH1 0xFF AND SWAP1 POP DUP5 JUMP JUMPDEST DUP1 PUSH1 0x4 DUP1 SLOAD SWAP1 POP DUP2 LT PUSH2 0xCC2 JUMPI PUSH1 0x40 MLOAD PUSH32 0x8C379A000000000000000000000000000000000000000000000000000000000 DUP2 MSTORE PUSH1 0x4 ADD PUSH2 0xCB9 SWAP1 PUSH2 0x200D JUMP JUMPDEST PUSH1 0x40 MLOAD DUP1 SWAP2 SUB SWAP1 REVERT JUMPDEST DUP2 PUSH1 0x4 DUP2 DUP2 SLOAD DUP2 LT PUSH2 0xCD0 JUMPI INVALID JUMPDEST SWAP1 PUSH1 0x0 MSTORE PUSH1 0x20 PUSH1 0x0 KECCAK256 SWAP1 PUSH1 0x4 MUL ADD PUSH1 0x3 ADD PUSH1 0x0 SWAP1 SLOAD SWAP1 PUSH2 0x100 EXP SWAP1 DIV PUSH1 0xFF AND ISZERO PUSH2 0xD2F JUMPI PUSH1 0x40 MLOAD PUSH32 0x8C379A000000000000000000000000000000000000000000000000000000000 DUP2 MSTORE PUSH1 0x4 ADD PUSH2 0xD26 SWAP1 PUSH2 0x1FCD JUMP JUMPDEST PUSH1 0x40 MLOAD DUP1 SWAP2 SUB SWAP1 REVERT JUMPDEST PUSH1 0x3 PUSH1 0x0 SWAP1 SLOAD SWAP1 PUSH2 0x100 EXP SWAP1 DIV PUSH20 0xFFFFFFFFFFFFFFFFFFFFFFFFFFFFFFFFFFFFFFFF AND PUSH20 0xFFFFFFFFFFFFFFFFFFFFFFFFFFFFFFFFFFFFFFFF AND CALLER PUSH20 0xFFFFFFFFFFFFFFFFFFFFFFFFFFFFFFFFFFFFFFFF AND EQ PUSH2 0xDBF JUMPI PUSH1 0x40 MLOAD PUSH32 0x8C379A000000000000000000000000000000000000000000000000000000000 DUP2 MSTORE PUSH1 0x4 ADD PUSH2 0xDB6 SWAP1 PUSH2 0x1FAD JUMP JUMPDEST PUSH1 0x40 MLOAD DUP1 SWAP2 SUB SWAP1 REVERT JUMPDEST PUSH1 0x0 PUSH1 0x4 DUP5 DUP2 SLOAD DUP2 LT PUSH2 0xDCE JUMPI INVALID JUMPDEST SWAP1 PUSH1 0x0 MSTORE PUSH1 0x20 PUSH1 0x0 KECCAK256 SWAP1 PUSH1 0x4 MUL ADD SWAP1 POP PUSH1 0x1 DUP2 PUSH1 0x2 ADD DUP1 SLOAD PUSH1 0x1 DUP2 PUSH1 0x1 AND ISZERO PUSH2 0x100 MUL SUB AND PUSH1 0x2 SWAP1 DIV SWAP1 POP LT ISZERO PUSH2 0xEC0 JUMPI PUSH1 0x0 SELFBALANCE SWAP1 POP DUP2 PUSH1 0x1 ADD SLOAD DUP2 LT ISZERO PUSH2 0xE4B JUMPI PUSH1 0x40 MLOAD PUSH32 0x8C379A000000000000000000000000000000000000000000000000000000000 DUP2 MSTORE PUSH1 0x4 ADD PUSH2 0xE42 SWAP1 PUSH2 0x1F4D JUMP JUMPDEST PUSH1 0x40 MLOAD DUP1 SWAP2 SUB SWAP1 REVERT JUMPDEST DUP2 PUSH1 0x0 ADD PUSH1 0x0 SWAP1 SLOAD SWAP1 PUSH2 0x100 EXP SWAP1 DIV PUSH20 0xFFFFFFFFFFFFFFFFFFFFFFFFFFFFFFFFFFFFFFFF AND PUSH20 0xFFFFFFFFFFFFFFFFFFFFFFFFFFFFFFFFFFFFFFFF AND PUSH2 0x8FC DUP4 PUSH1 0x1 ADD SLOAD SWAP1 DUP2 ISZERO MUL SWAP1 PUSH1 0x40 MLOAD PUSH1 0x0 PUSH1 0x40 MLOAD DUP1 DUP4 SUB DUP2 DUP6 DUP9 DUP9 CALL SWAP4 POP POP POP POP ISZERO DUP1 ISZERO PUSH2 0xEB9 JUMPI RETURNDATASIZE PUSH1 0x0 DUP1 RETURNDATACOPY RETURNDATASIZE PUSH1 0x0 REVERT JUMPDEST POP POP PUSH2 0xFEE JUMP JUMPDEST PUSH1 0x0 PUSH2 0xFAA DUP3 PUSH1 0x0 ADD PUSH1 0x0 SWAP1 SLOAD SWAP1 PUSH2 0x100 EXP SWAP1 DIV PUSH20 0xFFFFFFFFFFFFFFFFFFFFFFFFFFFFFFFFFFFFFFFF AND DUP4 PUSH1 0x1 ADD SLOAD DUP5 PUSH1 0x2 ADD DUP1 SLOAD PUSH1 0x1 DUP2 PUSH1 0x1 AND ISZERO PUSH2 0x100 MUL SUB AND PUSH1 0x2 SWAP1 DIV SWAP1 POP DUP6 PUSH1 0x2 ADD DUP1 SLOAD PUSH1 0x1 DUP2 PUSH1 0x1 AND ISZERO PUSH2 0x100 MUL SUB AND PUSH1 0x2 SWAP1 DIV DUP1 PUSH1 0x1F ADD PUSH1 0x20 DUP1 SWAP2 DIV MUL PUSH1 0x20 ADD PUSH1 0x40 MLOAD SWAP1 DUP2 ADD PUSH1 0x40 MSTORE DUP1 SWAP3 SWAP2 SWAP1 DUP2 DUP2 MSTORE PUSH1 0x20 ADD DUP3 DUP1 SLOAD PUSH1 0x1 DUP2 PUSH1 0x1 AND ISZERO PUSH2 0x100 MUL SUB AND PUSH1 0x2 SWAP1 DIV DUP1 ISZERO PUSH2 0xFA0 JUMPI DUP1 PUSH1 0x1F LT PUSH2 0xF75 JUMPI PUSH2 0x100 DUP1 DUP4 SLOAD DIV MUL DUP4 MSTORE SWAP2 PUSH1 0x20 ADD SWAP2 PUSH2 0xFA0 JUMP JUMPDEST DUP3 ADD SWAP2 SWAP1 PUSH1 0x0 MSTORE PUSH1 0x20 PUSH1 0x0 KECCAK256 SWAP1 JUMPDEST DUP2 SLOAD DUP2 MSTORE SWAP1 PUSH1 0x1 ADD SWAP1 PUSH1 0x20 ADD DUP1 DUP4 GT PUSH2 0xF83 JUMPI DUP3 SWAP1 SUB PUSH1 0x1F AND DUP3 ADD SWAP2 JUMPDEST POP POP POP POP POP PUSH2 0x16FD JUMP JUMPDEST SWAP1 POP DUP1 PUSH2 0xFEC JUMPI PUSH1 0x40 MLOAD PUSH32 0x8C379A000000000000000000000000000000000000000000000000000000000 DUP2 MSTORE PUSH1 0x4 ADD PUSH2 0xFE3 SWAP1 PUSH2 0x202D JUMP JUMPDEST PUSH1 0x40 MLOAD DUP1 SWAP2 SUB SWAP1 REVERT JUMPDEST POP JUMPDEST PUSH1 0x1 DUP2 PUSH1 0x3 ADD PUSH1 0x0 PUSH2 0x100 EXP DUP2 SLOAD DUP2 PUSH1 0xFF MUL NOT AND SWAP1 DUP4 ISZERO ISZERO MUL OR SWAP1 SSTORE POP POP POP POP POP JUMP JUMPDEST PUSH1 0x0 SELFBALANCE SWAP1 POP SWAP1 JUMP JUMPDEST PUSH1 0x3 PUSH1 0x0 SWAP1 SLOAD SWAP1 PUSH2 0x100 EXP SWAP1 DIV PUSH20 0xFFFFFFFFFFFFFFFFFFFFFFFFFFFFFFFFFFFFFFFF AND PUSH20 0xFFFFFFFFFFFFFFFFFFFFFFFFFFFFFFFFFFFFFFFF AND CALLER PUSH20 0xFFFFFFFFFFFFFFFFFFFFFFFFFFFFFFFFFFFFFFFF AND EQ PUSH2 0x10A9 JUMPI PUSH1 0x40 MLOAD PUSH32 0x8C379A000000000000000000000000000000000000000000000000000000000 DUP2 MSTORE PUSH1 0x4 ADD PUSH2 0x10A0 SWAP1 PUSH2 0x1FAD JUMP JUMPDEST PUSH1 0x40 MLOAD DUP1 SWAP2 SUB SWAP1 REVERT JUMPDEST PUSH1 0x0 DUP1 DUP3 PUSH20 0xFFFFFFFFFFFFFFFFFFFFFFFFFFFFFFFFFFFFFFFF AND PUSH20 0xFFFFFFFFFFFFFFFFFFFFFFFFFFFFFFFFFFFFFFFF AND DUP2 MSTORE PUSH1 0x20 ADD SWAP1 DUP2 MSTORE PUSH1 0x20 ADD PUSH1 0x0 KECCAK256 PUSH1 0x0 SWAP1 SLOAD SWAP1 PUSH2 0x100 EXP SWAP1 DIV PUSH1 0xFF AND ISZERO PUSH2 0x1135 JUMPI PUSH1 0x40 MLOAD PUSH32 0x8C379A000000000000000000000000000000000000000000000000000000000 DUP2 MSTORE PUSH1 0x4 ADD PUSH2 0x112C SWAP1 PUSH2 0x1F6D JUMP JUMPDEST PUSH1 0x40 MLOAD DUP1 SWAP2 SUB SWAP1 REVERT JUMPDEST PUSH1 0x1 PUSH1 0x0 DUP1 DUP4 PUSH20 0xFFFFFFFFFFFFFFFFFFFFFFFFFFFFFFFFFFFFFFFF AND PUSH20 0xFFFFFFFFFFFFFFFFFFFFFFFFFFFFFFFFFFFFFFFF AND DUP2 MSTORE PUSH1 0x20 ADD SWAP1 DUP2 MSTORE PUSH1 0x20 ADD PUSH1 0x0 KECCAK256 PUSH1 0x0 PUSH2 0x100 EXP DUP2 SLOAD DUP2 PUSH1 0xFF MUL NOT AND SWAP1 DUP4 ISZERO ISZERO MUL OR SWAP1 SSTORE POP POP JUMP JUMPDEST PUSH1 0x0 DUP1 CALLER PUSH20 0xFFFFFFFFFFFFFFFFFFFFFFFFFFFFFFFFFFFFFFFF AND PUSH20 0xFFFFFFFFFFFFFFFFFFFFFFFFFFFFFFFFFFFFFFFF AND DUP2 MSTORE PUSH1 0x20 ADD SWAP1 DUP2 MSTORE PUSH1 0x20 ADD PUSH1 0x0 KECCAK256 PUSH1 0x0 SWAP1 SLOAD SWAP1 PUSH2 0x100 EXP SWAP1 DIV PUSH1 0xFF AND PUSH2 0x121A JUMPI PUSH1 0x40 MLOAD PUSH32 0x8C379A000000000000000000000000000000000000000000000000000000000 DUP2 MSTORE PUSH1 0x4 ADD PUSH2 0x1211 SWAP1 PUSH2 0x1F8D JUMP JUMPDEST PUSH1 0x40 MLOAD DUP1 SWAP2 SUB SWAP1 REVERT JUMPDEST DUP1 PUSH1 0x4 DUP1 SLOAD SWAP1 POP DUP2 LT PUSH2 0x1262 JUMPI PUSH1 0x40 MLOAD PUSH32 0x8C379A000000000000000000000000000000000000000000000000000000000 DUP2 MSTORE PUSH1 0x4 ADD PUSH2 0x1259 SWAP1 PUSH2 0x200D JUMP JUMPDEST PUSH1 0x40 MLOAD DUP1 SWAP2 SUB SWAP1 REVERT JUMPDEST DUP2 PUSH1 0x1 PUSH1 0x0 DUP3 DUP2 MSTORE PUSH1 0x20 ADD SWAP1 DUP2 MSTORE PUSH1 0x20 ADD PUSH1 0x0 KECCAK256 PUSH1 0x0 CALLER PUSH20 0xFFFFFFFFFFFFFFFFFFFFFFFFFFFFFFFFFFFFFFFF AND PUSH20 0xFFFFFFFFFFFFFFFFFFFFFFFFFFFFFFFFFFFFFFFF AND DUP2 MSTORE PUSH1 0x20 ADD SWAP1 DUP2 MSTORE PUSH1 0x20 ADD PUSH1 0x0 KECCAK256 PUSH1 0x0 SWAP1 SLOAD SWAP1 PUSH2 0x100 EXP SWAP1 DIV PUSH1 0xFF AND ISZERO PUSH2 0x1301 JUMPI PUSH1 0x40 MLOAD PUSH32 0x8C379A000000000000000000000000000000000000000000000000000000000 DUP2 MSTORE PUSH1 0x4 ADD PUSH2 0x12F8 SWAP1 PUSH2 0x206D JUMP JUMPDEST PUSH1 0x40 MLOAD DUP1 SWAP2 SUB SWAP1 REVERT JUMPDEST DUP3 PUSH1 0x4 DUP2 DUP2 SLOAD DUP2 LT PUSH2 0x130F JUMPI INVALID JUMPDEST SWAP1 PUSH1 0x0 MSTORE PUSH1 0x20 PUSH1 0x0 KECCAK256 SWAP1 PUSH1 0x4 MUL ADD PUSH1 0x3 ADD PUSH1 0x0 SWAP1 SLOAD SWAP1 PUSH2 0x100 EXP SWAP1 DIV PUSH1 0xFF AND ISZERO PUSH2 0x136E JUMPI PUSH1 0x40 MLOAD PUSH32 0x8C379A000000000000000000000000000000000000000000000000000000000 DUP2 MSTORE PUSH1 0x4 ADD PUSH2 0x1365 SWAP1 PUSH2 0x1FCD JUMP JUMPDEST PUSH1 0x40 MLOAD DUP1 SWAP2 SUB SWAP1 REVERT JUMPDEST PUSH1 0x1 DUP1 PUSH1 0x0 DUP7 DUP2 MSTORE PUSH1 0x20 ADD SWAP1 DUP2 MSTORE PUSH1 0x20 ADD PUSH1 0x0 KECCAK256 PUSH1 0x0 CALLER PUSH20 0xFFFFFFFFFFFFFFFFFFFFFFFFFFFFFFFFFFFFFFFF AND PUSH20 0xFFFFFFFFFFFFFFFFFFFFFFFFFFFFFFFFFFFFFFFF AND DUP2 MSTORE PUSH1 0x20 ADD SWAP1 DUP2 MSTORE PUSH1 0x20 ADD PUSH1 0x0 KECCAK256 PUSH1 0x0 PUSH2 0x100 EXP DUP2 SLOAD DUP2 PUSH1 0xFF MUL NOT AND SWAP1 DUP4 ISZERO ISZERO MUL OR SWAP1 SSTORE POP POP POP POP POP JUMP JUMPDEST PUSH1 0x3 PUSH1 0x0 SWAP1 SLOAD SWAP1 PUSH2 0x100 EXP SWAP1 DIV PUSH20 0xFFFFFFFFFFFFFFFFFFFFFFFFFFFFFFFFFFFFFFFF AND PUSH20 0xFFFFFFFFFFFFFFFFFFFFFFFFFFFFFFFFFFFFFFFF AND CALLER PUSH20 0xFFFFFFFFFFFFFFFFFFFFFFFFFFFFFFFFFFFFFFFF AND EQ PUSH2 0x146C JUMPI PUSH1 0x40 MLOAD PUSH32 0x8C379A000000000000000000000000000000000000000000000000000000000 DUP2 MSTORE PUSH1 0x4 ADD PUSH2 0x1463 SWAP1 PUSH2 0x1FAD JUMP JUMPDEST PUSH1 0x40 MLOAD DUP1 SWAP2 SUB SWAP1 REVERT JUMPDEST DUP4 DUP4 DUP4 DUP1 DUP1 PUSH1 0x1F ADD PUSH1 0x20 DUP1 SWAP2 DIV MUL PUSH1 0x20 ADD PUSH1 0x40 MLOAD SWAP1 DUP2 ADD PUSH1 0x40 MSTORE DUP1 SWAP4 SWAP3 SWAP2 SWAP1 DUP2 DUP2 MSTORE PUSH1 0x20 ADD DUP4 DUP4 DUP1 DUP3 DUP5 CALLDATACOPY PUSH1 0x0 DUP2 DUP5 ADD MSTORE PUSH1 0x1F NOT PUSH1 0x1F DUP3 ADD AND SWAP1 POP DUP1 DUP4 ADD SWAP3 POP POP POP POP POP POP POP DUP3 PUSH1 0x0 PUSH20 0xFFFFFFFFFFFFFFFFFFFFFFFFFFFFFFFFFFFFFFFF AND DUP4 PUSH20 0xFFFFFFFFFFFFFFFFFFFFFFFFFFFFFFFFFFFFFFFF AND EQ ISZERO PUSH2 0x1523 JUMPI PUSH1 0x40 MLOAD PUSH32 0x8C379A000000000000000000000000000000000000000000000000000000000 DUP2 MSTORE PUSH1 0x4 ADD PUSH2 0x151A SWAP1 PUSH2 0x1FED JUMP JUMPDEST PUSH1 0x40 MLOAD DUP1 SWAP2 SUB SWAP1 REVERT JUMPDEST PUSH1 0x1 DUP3 MLOAD LT ISZERO PUSH2 0x1571 JUMPI PUSH1 0x1 DUP2 GT PUSH2 0x1570 JUMPI PUSH1 0x40 MLOAD PUSH32 0x8C379A000000000000000000000000000000000000000000000000000000000 DUP2 MSTORE PUSH1 0x4 ADD PUSH2 0x1567 SWAP1 PUSH2 0x204D JUMP JUMPDEST PUSH1 0x40 MLOAD DUP1 SWAP2 SUB SWAP1 REVERT JUMPDEST JUMPDEST PUSH1 0x1 DUP7 DUP7 SWAP1 POP LT ISZERO PUSH2 0x1612 JUMPI PUSH1 0x0 SELFBALANCE SWAP1 POP DUP5 DUP2 LT ISZERO PUSH2 0x15C5 JUMPI PUSH1 0x40 MLOAD PUSH32 0x8C379A000000000000000000000000000000000000000000000000000000000 DUP2 MSTORE PUSH1 0x4 ADD PUSH2 0x15BC SWAP1 PUSH2 0x1F4D JUMP JUMPDEST PUSH1 0x40 MLOAD DUP1 SWAP2 SUB SWAP1 REVERT JUMPDEST DUP8 PUSH20 0xFFFFFFFFFFFFFFFFFFFFFFFFFFFFFFFFFFFFFFFF AND PUSH2 0x8FC DUP7 SWAP1 DUP2 ISZERO MUL SWAP1 PUSH1 0x40 MLOAD PUSH1 0x0 PUSH1 0x40 MLOAD DUP1 DUP4 SUB DUP2 DUP6 DUP9 DUP9 CALL SWAP4 POP POP POP POP ISZERO DUP1 ISZERO PUSH2 0x160B JUMPI RETURNDATASIZE PUSH1 0x0 DUP1 RETURNDATACOPY RETURNDATASIZE PUSH1 0x0 REVERT JUMPDEST POP POP PUSH2 0x16AB JUMP JUMPDEST PUSH1 0x0 PUSH2 0x1667 DUP9 DUP7 DUP10 DUP10 SWAP1 POP DUP11 DUP11 DUP1 DUP1 PUSH1 0x1F ADD PUSH1 0x20 DUP1 SWAP2 DIV MUL PUSH1 0x20 ADD PUSH1 0x40 MLOAD SWAP1 DUP2 ADD PUSH1 0x40 MSTORE DUP1 SWAP4 SWAP3 SWAP2 SWAP1 DUP2 DUP2 MSTORE PUSH1 0x20 ADD DUP4 DUP4 DUP1 DUP3 DUP5 CALLDATACOPY PUSH1 0x0 DUP2 DUP5 ADD MSTORE PUSH1 0x1F NOT PUSH1 0x1F DUP3 ADD AND SWAP1 POP DUP1 DUP4 ADD SWAP3 POP POP POP POP POP POP POP PUSH2 0x16FD JUMP JUMPDEST SWAP1 POP DUP1 PUSH2 0x16A9 JUMPI PUSH1 0x40 MLOAD PUSH32 0x8C379A000000000000000000000000000000000000000000000000000000000 DUP2 MSTORE PUSH1 0x4 ADD PUSH2 0x16A0 SWAP1 PUSH2 0x202D JUMP JUMPDEST PUSH1 0x40 MLOAD DUP1 SWAP2 SUB SWAP1 REVERT JUMPDEST POP JUMPDEST POP POP POP POP POP POP POP JUMP JUMPDEST ADDRESS PUSH20 0xFFFFFFFFFFFFFFFFFFFFFFFFFFFFFFFFFFFFFFFF AND PUSH2 0x8FC CALLVALUE SWAP1 DUP2 ISZERO MUL SWAP1 PUSH1 0x40 MLOAD PUSH1 0x0 PUSH1 0x40 MLOAD DUP1 DUP4 SUB DUP2 DUP6 DUP9 DUP9 CALL SWAP4 POP POP POP POP ISZERO DUP1 ISZERO PUSH2 0x16FA JUMPI RETURNDATASIZE PUSH1 0x0 DUP1 RETURNDATACOPY RETURNDATASIZE PUSH1 0x0 REVERT JUMPDEST POP JUMP JUMPDEST PUSH1 0x0 DUP1 PUSH1 0x40 MLOAD PUSH1 0x20 DUP5 ADD PUSH1 0x0 DUP3 DUP8 DUP4 DUP11 DUP13 PUSH2 0x8796 GAS SUB CALL SWAP3 POP POP POP DUP1 SWAP2 POP POP SWAP5 SWAP4 POP POP POP POP JUMP JUMPDEST DUP3 DUP1 SLOAD PUSH1 0x1 DUP2 PUSH1 0x1 AND ISZERO PUSH2 0x100 MUL SUB AND PUSH1 0x2 SWAP1 DIV SWAP1 PUSH1 0x0 MSTORE PUSH1 0x20 PUSH1 0x0 KECCAK256 SWAP1 PUSH1 0x1F ADD PUSH1 0x20 SWAP1 DIV DUP2 ADD SWAP3 DUP3 PUSH1 0x1F LT PUSH2 0x1765 JUMPI DUP1 MLOAD PUSH1 0xFF NOT AND DUP4 DUP1 ADD OR DUP6 SSTORE PUSH2 0x1793 JUMP JUMPDEST DUP3 DUP1 ADD PUSH1 0x1 ADD DUP6 SSTORE DUP3 ISZERO PUSH2 0x1793 JUMPI SWAP2 DUP3 ADD JUMPDEST DUP3 DUP2 GT ISZERO PUSH2 0x1792 JUMPI DUP3 MLOAD DUP3 SSTORE SWAP2 PUSH1 0x20 ADD SWAP2 SWAP1 PUSH1 0x1 ADD SWAP1 PUSH2 0x1777 JUMP JUMPDEST JUMPDEST POP SWAP1 POP PUSH2 0x17A0 SWAP2 SWAP1 PUSH2 0x182C JUMP JUMPDEST POP SWAP1 JUMP JUMPDEST POP DUP1 SLOAD PUSH1 0x1 DUP2 PUSH1 0x1 AND ISZERO PUSH2 0x100 MUL SUB AND PUSH1 0x2 SWAP1 DIV PUSH1 0x0 DUP3 SSTORE DUP1 PUSH1 0x1F LT PUSH2 0x17CA JUMPI POP PUSH2 0x17E9 JUMP JUMPDEST PUSH1 0x1F ADD PUSH1 0x20 SWAP1 DIV SWAP1 PUSH1 0x0 MSTORE PUSH1 0x20 PUSH1 0x0 KECCAK256 SWAP1 DUP2 ADD SWAP1 PUSH2 0x17E8 SWAP2 SWAP1 PUSH2 0x182C JUMP JUMPDEST JUMPDEST POP JUMP JUMPDEST PUSH1 0x40 MLOAD DUP1 PUSH1 0x80 ADD PUSH1 0x40 MSTORE DUP1 PUSH1 0x0 PUSH20 0xFFFFFFFFFFFFFFFFFFFFFFFFFFFFFFFFFFFFFFFF AND DUP2 MSTORE PUSH1 0x20 ADD PUSH1 0x0 DUP2 MSTORE PUSH1 0x20 ADD PUSH1 0x60 DUP2 MSTORE PUSH1 0x20 ADD PUSH1 0x0 ISZERO ISZERO DUP2 MSTORE POP SWAP1 JUMP JUMPDEST PUSH2 0x184E SWAP2 SWAP1 JUMPDEST DUP1 DUP3 GT ISZERO PUSH2 0x184A JUMPI PUSH1 0x0 DUP2 PUSH1 0x0 SWAP1 SSTORE POP PUSH1 0x1 ADD PUSH2 0x1832 JUMP JUMPDEST POP SWAP1 JUMP JUMPDEST SWAP1 JUMP JUMPDEST PUSH1 0x0 DUP2 CALLDATALOAD SWAP1 POP PUSH2 0x1860 DUP2 PUSH2 0x21DF JUMP JUMPDEST SWAP3 SWAP2 POP POP JUMP JUMPDEST PUSH1 0x0 DUP2 CALLDATALOAD SWAP1 POP PUSH2 0x1875 DUP2 PUSH2 0x21F6 JUMP JUMPDEST SWAP3 SWAP2 POP POP JUMP JUMPDEST PUSH1 0x0 DUP1 DUP4 PUSH1 0x1F DUP5 ADD SLT PUSH2 0x188D JUMPI PUSH1 0x0 DUP1 REVERT JUMPDEST DUP3 CALLDATALOAD SWAP1 POP PUSH8 0xFFFFFFFFFFFFFFFF DUP2 GT ISZERO PUSH2 0x18A6 JUMPI PUSH1 0x0 DUP1 REVERT JUMPDEST PUSH1 0x20 DUP4 ADD SWAP2 POP DUP4 PUSH1 0x1 DUP3 MUL DUP4 ADD GT ISZERO PUSH2 0x18BE JUMPI PUSH1 0x0 DUP1 REVERT JUMPDEST SWAP3 POP SWAP3 SWAP1 POP JUMP JUMPDEST PUSH1 0x0 DUP2 CALLDATALOAD SWAP1 POP PUSH2 0x18D4 DUP2 PUSH2 0x220D JUMP JUMPDEST SWAP3 SWAP2 POP POP JUMP JUMPDEST PUSH1 0x0 PUSH1 0x20 DUP3 DUP5 SUB SLT ISZERO PUSH2 0x18EC JUMPI PUSH1 0x0 DUP1 REVERT JUMPDEST PUSH1 0x0 PUSH2 0x18FA DUP5 DUP3 DUP6 ADD PUSH2 0x1851 JUMP JUMPDEST SWAP2 POP POP SWAP3 SWAP2 POP POP JUMP JUMPDEST PUSH1 0x0 DUP1 PUSH1 0x0 DUP1 PUSH1 0x60 DUP6 DUP8 SUB SLT ISZERO PUSH2 0x1919 JUMPI PUSH1 0x0 DUP1 REVERT JUMPDEST PUSH1 0x0 PUSH2 0x1927 DUP8 DUP3 DUP9 ADD PUSH2 0x1866 JUMP JUMPDEST SWAP5 POP POP PUSH1 0x20 DUP6 ADD CALLDATALOAD PUSH8 0xFFFFFFFFFFFFFFFF DUP2 GT ISZERO PUSH2 0x1944 JUMPI PUSH1 0x0 DUP1 REVERT JUMPDEST PUSH2 0x1950 DUP8 DUP3 DUP9 ADD PUSH2 0x187B JUMP JUMPDEST SWAP4 POP SWAP4 POP POP PUSH1 0x40 PUSH2 0x1963 DUP8 DUP3 DUP9 ADD PUSH2 0x18C5 JUMP JUMPDEST SWAP2 POP POP SWAP3 SWAP6 SWAP2 SWAP5 POP SWAP3 POP JUMP JUMPDEST PUSH1 0x0 PUSH1 0x20 DUP3 DUP5 SUB SLT ISZERO PUSH2 0x1981 JUMPI PUSH1 0x0 DUP1 REVERT JUMPDEST PUSH1 0x0 PUSH2 0x198F DUP5 DUP3 DUP6 ADD PUSH2 0x18C5 JUMP JUMPDEST SWAP2 POP POP SWAP3 SWAP2 POP POP JUMP JUMPDEST PUSH1 0x0 PUSH2 0x19A4 DUP4 DUP4 PUSH2 0x1E3E JUMP JUMPDEST SWAP1 POP SWAP3 SWAP2 POP POP JUMP JUMPDEST PUSH2 0x19B5 DUP2 PUSH2 0x2153 JUMP JUMPDEST DUP3 MSTORE POP POP JUMP JUMPDEST PUSH2 0x19C4 DUP2 PUSH2 0x2153 JUMP JUMPDEST DUP3 MSTORE POP POP JUMP JUMPDEST PUSH1 0x0 PUSH2 0x19D5 DUP3 PUSH2 0x20DA JUMP JUMPDEST PUSH2 0x19DF DUP2 DUP6 PUSH2 0x20FD JUMP JUMPDEST SWAP4 POP DUP4 PUSH1 0x20 DUP3 MUL DUP6 ADD PUSH2 0x19F1 DUP6 PUSH2 0x20CA JUMP JUMPDEST DUP1 PUSH1 0x0 JUMPDEST DUP6 DUP2 LT ISZERO PUSH2 0x1A2D JUMPI DUP5 DUP5 SUB DUP10 MSTORE DUP2 MLOAD PUSH2 0x1A0E DUP6 DUP3 PUSH2 0x1998 JUMP JUMPDEST SWAP5 POP PUSH2 0x1A19 DUP4 PUSH2 0x20F0 JUMP JUMPDEST SWAP3 POP PUSH1 0x20 DUP11 ADD SWAP10 POP POP PUSH1 0x1 DUP2 ADD SWAP1 POP PUSH2 0x19F5 JUMP JUMPDEST POP DUP3 SWAP8 POP DUP8 SWAP6 POP POP POP POP POP POP SWAP3 SWAP2 POP POP JUMP JUMPDEST PUSH2 0x1A48 DUP2 PUSH2 0x2165 JUMP JUMPDEST DUP3 MSTORE POP POP JUMP JUMPDEST PUSH2 0x1A57 DUP2 PUSH2 0x2165 JUMP JUMPDEST DUP3 MSTORE POP POP JUMP JUMPDEST PUSH1 0x0 PUSH2 0x1A68 DUP3 PUSH2 0x20E5 JUMP JUMPDEST PUSH2 0x1A72 DUP2 DUP6 PUSH2 0x210E JUMP JUMPDEST SWAP4 POP PUSH2 0x1A82 DUP2 DUP6 PUSH1 0x20 DUP7 ADD PUSH2 0x219B JUMP JUMPDEST PUSH2 0x1A8B DUP2 PUSH2 0x21CE JUMP JUMPDEST DUP5 ADD SWAP2 POP POP SWAP3 SWAP2 POP POP JUMP JUMPDEST PUSH1 0x0 PUSH2 0x1AA1 DUP3 PUSH2 0x20E5 JUMP JUMPDEST PUSH2 0x1AAB DUP2 DUP6 PUSH2 0x211F JUMP JUMPDEST SWAP4 POP PUSH2 0x1ABB DUP2 DUP6 PUSH1 0x20 DUP7 ADD PUSH2 0x219B JUMP JUMPDEST PUSH2 0x1AC4 DUP2 PUSH2 0x21CE JUMP JUMPDEST DUP5 ADD SWAP2 POP POP SWAP3 SWAP2 POP POP JUMP JUMPDEST PUSH1 0x0 PUSH2 0x1ADC PUSH1 0x17 DUP4 PUSH2 0x2130 JUMP JUMPDEST SWAP2 POP PUSH32 0x4572726F72203A204E6F7420496E204F776E65724D6170000000000000000000 PUSH1 0x0 DUP4 ADD MSTORE PUSH1 0x20 DUP3 ADD SWAP1 POP SWAP2 SWAP1 POP JUMP JUMPDEST PUSH1 0x0 PUSH2 0x1B1C PUSH1 0x17 DUP4 PUSH2 0x2130 JUMP JUMPDEST SWAP2 POP PUSH32 0x4572726F72203A204E6F7420456E6F756768204B6C6179000000000000000000 PUSH1 0x0 DUP4 ADD MSTORE PUSH1 0x20 DUP3 ADD SWAP1 POP SWAP2 SWAP1 POP JUMP JUMPDEST PUSH1 0x0 PUSH2 0x1B5C PUSH1 0x1B DUP4 PUSH2 0x2130 JUMP JUMPDEST SWAP2 POP PUSH32 0x4572726F72203A20616C726561647920696E204F776E65724D61700000000000 PUSH1 0x0 DUP4 ADD MSTORE PUSH1 0x20 DUP3 ADD SWAP1 POP SWAP2 SWAP1 POP JUMP JUMPDEST PUSH1 0x0 PUSH2 0x1B9C PUSH1 0x12 DUP4 PUSH2 0x2130 JUMP JUMPDEST SWAP2 POP PUSH32 0x4572726F72203A204E6F74204F776E6572210000000000000000000000000000 PUSH1 0x0 DUP4 ADD MSTORE PUSH1 0x20 DUP3 ADD SWAP1 POP SWAP2 SWAP1 POP JUMP JUMPDEST PUSH1 0x0 PUSH2 0x1BDC PUSH1 0x20 DUP4 PUSH2 0x2130 JUMP JUMPDEST SWAP2 POP PUSH32 0x4572726F72203A206D73672E73656E646572206973204E6F74204D6173746572 PUSH1 0x0 DUP4 ADD MSTORE PUSH1 0x20 DUP3 ADD SWAP1 POP SWAP2 SWAP1 POP JUMP JUMPDEST PUSH1 0x0 PUSH2 0x1C1C PUSH1 0x19 DUP4 PUSH2 0x2130 JUMP JUMPDEST SWAP2 POP PUSH32 0x4572726F723A20747820616C7265616479204578637574656400000000000000 PUSH1 0x0 DUP4 ADD MSTORE PUSH1 0x20 DUP3 ADD SWAP1 POP SWAP2 SWAP1 POP JUMP JUMPDEST PUSH1 0x0 PUSH2 0x1C5C PUSH1 0x23 DUP4 PUSH2 0x2130 JUMP JUMPDEST SWAP2 POP PUSH32 0x4572726F72203A2064657374696E6174696F6E206973205A65726F2041646472 PUSH1 0x0 DUP4 ADD MSTORE PUSH32 0x6573730000000000000000000000000000000000000000000000000000000000 PUSH1 0x20 DUP4 ADD MSTORE PUSH1 0x40 DUP3 ADD SWAP1 POP SWAP2 SWAP1 POP JUMP JUMPDEST PUSH1 0x0 PUSH2 0x1CC2 PUSH1 0x20 DUP4 PUSH2 0x2130 JUMP JUMPDEST SWAP2 POP PUSH32 0x4572726F72203A205472616E73636174696F6E206973204E6F74204578697374 PUSH1 0x0 DUP4 ADD MSTORE PUSH1 0x20 DUP3 ADD SWAP1 POP SWAP2 SWAP1 POP JUMP JUMPDEST PUSH1 0x0 PUSH2 0x1D02 PUSH1 0x1A DUP4 PUSH2 0x2130 JUMP JUMPDEST SWAP2 POP PUSH32 0x4572726F72203A204661696C6564205472616E73616374696F6E000000000000 PUSH1 0x0 DUP4 ADD MSTORE PUSH1 0x20 DUP3 ADD SWAP1 POP SWAP2 SWAP1 POP JUMP JUMPDEST PUSH1 0x0 PUSH2 0x1D42 PUSH1 0x34 DUP4 PUSH2 0x2130 JUMP JUMPDEST SWAP2 POP PUSH32 0x4572726F72203A207472616E73616374696F6E2069732053656E64206B6C6179 PUSH1 0x0 DUP4 ADD MSTORE PUSH32 0x2042757420646174612069732045786973746564000000000000000000000000 PUSH1 0x20 DUP4 ADD MSTORE PUSH1 0x40 DUP3 ADD SWAP1 POP SWAP2 SWAP1 POP JUMP JUMPDEST PUSH1 0x0 PUSH2 0x1DA8 PUSH1 0x1B DUP4 PUSH2 0x2130 JUMP JUMPDEST SWAP2 POP PUSH32 0x4572726F72203A20747820616C726561647920617070726F7665640000000000 PUSH1 0x0 DUP4 ADD MSTORE PUSH1 0x20 DUP3 ADD SWAP1 POP SWAP2 SWAP1 POP JUMP JUMPDEST PUSH1 0x0 PUSH1 0x80 DUP4 ADD PUSH1 0x0 DUP4 ADD MLOAD PUSH2 0x1DF3 PUSH1 0x0 DUP7 ADD DUP3 PUSH2 0x19AC JUMP JUMPDEST POP PUSH1 0x20 DUP4 ADD MLOAD PUSH2 0x1E06 PUSH1 0x20 DUP7 ADD DUP3 PUSH2 0x1EA1 JUMP JUMPDEST POP PUSH1 0x40 DUP4 ADD MLOAD DUP5 DUP3 SUB PUSH1 0x40 DUP7 ADD MSTORE PUSH2 0x1E1E DUP3 DUP3 PUSH2 0x1A5D JUMP JUMPDEST SWAP2 POP POP PUSH1 0x60 DUP4 ADD MLOAD PUSH2 0x1E33 PUSH1 0x60 DUP7 ADD DUP3 PUSH2 0x1A3F JUMP JUMPDEST POP DUP1 SWAP2 POP POP SWAP3 SWAP2 POP POP JUMP JUMPDEST PUSH1 0x0 PUSH1 0x80 DUP4 ADD PUSH1 0x0 DUP4 ADD MLOAD PUSH2 0x1E56 PUSH1 0x0 DUP7 ADD DUP3 PUSH2 0x19AC JUMP JUMPDEST POP PUSH1 0x20 DUP4 ADD MLOAD PUSH2 0x1E69 PUSH1 0x20 DUP7 ADD DUP3 PUSH2 0x1EA1 JUMP JUMPDEST POP PUSH1 0x40 DUP4 ADD MLOAD DUP5 DUP3 SUB PUSH1 0x40 DUP7 ADD MSTORE PUSH2 0x1E81 DUP3 DUP3 PUSH2 0x1A5D JUMP JUMPDEST SWAP2 POP POP PUSH1 0x60 DUP4 ADD MLOAD PUSH2 0x1E96 PUSH1 0x60 DUP7 ADD DUP3 PUSH2 0x1A3F JUMP JUMPDEST POP DUP1 SWAP2 POP POP SWAP3 SWAP2 POP POP JUMP JUMPDEST PUSH2 0x1EAA DUP2 PUSH2 0x2191 JUMP JUMPDEST DUP3 MSTORE POP POP JUMP JUMPDEST PUSH2 0x1EB9 DUP2 PUSH2 0x2191 JUMP JUMPDEST DUP3 MSTORE POP POP JUMP JUMPDEST PUSH1 0x0 PUSH1 0x80 DUP3 ADD SWAP1 POP PUSH2 0x1ED4 PUSH1 0x0 DUP4 ADD DUP8 PUSH2 0x19BB JUMP JUMPDEST PUSH2 0x1EE1 PUSH1 0x20 DUP4 ADD DUP7 PUSH2 0x1EB0 JUMP JUMPDEST DUP2 DUP2 SUB PUSH1 0x40 DUP4 ADD MSTORE PUSH2 0x1EF3 DUP2 DUP6 PUSH2 0x1A96 JUMP JUMPDEST SWAP1 POP PUSH2 0x1F02 PUSH1 0x60 DUP4 ADD DUP5 PUSH2 0x1A4E JUMP JUMPDEST SWAP6 SWAP5 POP POP POP POP POP JUMP JUMPDEST PUSH1 0x0 PUSH1 0x20 DUP3 ADD SWAP1 POP DUP2 DUP2 SUB PUSH1 0x0 DUP4 ADD MSTORE PUSH2 0x1F25 DUP2 DUP5 PUSH2 0x19CA JUMP JUMPDEST SWAP1 POP SWAP3 SWAP2 POP POP JUMP JUMPDEST PUSH1 0x0 PUSH1 0x20 DUP3 ADD SWAP1 POP DUP2 DUP2 SUB PUSH1 0x0 DUP4 ADD MSTORE PUSH2 0x1F46 DUP2 PUSH2 0x1ACF JUMP JUMPDEST SWAP1 POP SWAP2 SWAP1 POP JUMP JUMPDEST PUSH1 0x0 PUSH1 0x20 DUP3 ADD SWAP1 POP DUP2 DUP2 SUB PUSH1 0x0 DUP4 ADD MSTORE PUSH2 0x1F66 DUP2 PUSH2 0x1B0F JUMP JUMPDEST SWAP1 POP SWAP2 SWAP1 POP JUMP JUMPDEST PUSH1 0x0 PUSH1 0x20 DUP3 ADD SWAP1 POP DUP2 DUP2 SUB PUSH1 0x0 DUP4 ADD MSTORE PUSH2 0x1F86 DUP2 PUSH2 0x1B4F JUMP JUMPDEST SWAP1 POP SWAP2 SWAP1 POP JUMP JUMPDEST PUSH1 0x0 PUSH1 0x20 DUP3 ADD SWAP1 POP DUP2 DUP2 SUB PUSH1 0x0 DUP4 ADD MSTORE PUSH2 0x1FA6 DUP2 PUSH2 0x1B8F JUMP JUMPDEST SWAP1 POP SWAP2 SWAP1 POP JUMP JUMPDEST PUSH1 0x0 PUSH1 0x20 DUP3 ADD SWAP1 POP DUP2 DUP2 SUB PUSH1 0x0 DUP4 ADD MSTORE PUSH2 0x1FC6 DUP2 PUSH2 0x1BCF JUMP JUMPDEST SWAP1 POP SWAP2 SWAP1 POP JUMP JUMPDEST PUSH1 0x0 PUSH1 0x20 DUP3 ADD SWAP1 POP DUP2 DUP2 SUB PUSH1 0x0 DUP4 ADD MSTORE PUSH2 0x1FE6 DUP2 PUSH2 0x1C0F JUMP JUMPDEST SWAP1 POP SWAP2 SWAP1 POP JUMP JUMPDEST PUSH1 0x0 PUSH1 0x20 DUP3 ADD SWAP1 POP DUP2 DUP2 SUB PUSH1 0x0 DUP4 ADD MSTORE PUSH2 0x2006 DUP2 PUSH2 0x1C4F JUMP JUMPDEST SWAP1 POP SWAP2 SWAP1 POP JUMP JUMPDEST PUSH1 0x0 PUSH1 0x20 DUP3 ADD SWAP1 POP DUP2 DUP2 SUB PUSH1 0x0 DUP4 ADD MSTORE PUSH2 0x2026 DUP2 PUSH2 0x1CB5 JUMP JUMPDEST SWAP1 POP SWAP2 SWAP1 POP JUMP JUMPDEST PUSH1 0x0 PUSH1 0x20 DUP3 ADD SWAP1 POP DUP2 DUP2 SUB PUSH1 0x0 DUP4 ADD MSTORE PUSH2 0x2046 DUP2 PUSH2 0x1CF5 JUMP JUMPDEST SWAP1 POP SWAP2 SWAP1 POP JUMP JUMPDEST PUSH1 0x0 PUSH1 0x20 DUP3 ADD SWAP1 POP DUP2 DUP2 SUB PUSH1 0x0 DUP4 ADD MSTORE PUSH2 0x2066 DUP2 PUSH2 0x1D35 JUMP JUMPDEST SWAP1 POP SWAP2 SWAP1 POP JUMP JUMPDEST PUSH1 0x0 PUSH1 0x20 DUP3 ADD SWAP1 POP DUP2 DUP2 SUB PUSH1 0x0 DUP4 ADD MSTORE PUSH2 0x2086 DUP2 PUSH2 0x1D9B JUMP JUMPDEST SWAP1 POP SWAP2 SWAP1 POP JUMP JUMPDEST PUSH1 0x0 PUSH1 0x20 DUP3 ADD SWAP1 POP DUP2 DUP2 SUB PUSH1 0x0 DUP4 ADD MSTORE PUSH2 0x20A7 DUP2 DUP5 PUSH2 0x1DDB JUMP JUMPDEST SWAP1 POP SWAP3 SWAP2 POP POP JUMP JUMPDEST PUSH1 0x0 PUSH1 0x20 DUP3 ADD SWAP1 POP PUSH2 0x20C4 PUSH1 0x0 DUP4 ADD DUP5 PUSH2 0x1EB0 JUMP JUMPDEST SWAP3 SWAP2 POP POP JUMP JUMPDEST PUSH1 0x0 DUP2 SWAP1 POP PUSH1 0x20 DUP3 ADD SWAP1 POP SWAP2 SWAP1 POP JUMP JUMPDEST PUSH1 0x0 DUP2 MLOAD SWAP1 POP SWAP2 SWAP1 POP JUMP JUMPDEST PUSH1 0x0 DUP2 MLOAD SWAP1 POP SWAP2 SWAP1 POP JUMP JUMPDEST PUSH1 0x0 PUSH1 0x20 DUP3 ADD SWAP1 POP SWAP2 SWAP1 POP JUMP JUMPDEST PUSH1 0x0 DUP3 DUP3 MSTORE PUSH1 0x20 DUP3 ADD SWAP1 POP SWAP3 SWAP2 POP POP JUMP JUMPDEST PUSH1 0x0 DUP3 DUP3 MSTORE PUSH1 0x20 DUP3 ADD SWAP1 POP SWAP3 SWAP2 POP POP JUMP JUMPDEST PUSH1 0x0 DUP3 DUP3 MSTORE PUSH1 0x20 DUP3 ADD SWAP1 POP SWAP3 SWAP2 POP POP JUMP JUMPDEST PUSH1 0x0 DUP3 DUP3 MSTORE PUSH1 0x20 DUP3 ADD SWAP1 POP SWAP3 SWAP2 POP POP JUMP JUMPDEST PUSH1 0x0 PUSH2 0x214C DUP3 PUSH2 0x2171 JUMP JUMPDEST SWAP1 POP SWAP2 SWAP1 POP JUMP JUMPDEST PUSH1 0x0 PUSH2 0x215E DUP3 PUSH2 0x2171 JUMP JUMPDEST SWAP1 POP SWAP2 SWAP1 POP JUMP JUMPDEST PUSH1 0x0 DUP2 ISZERO ISZERO SWAP1 POP SWAP2 SWAP1 POP JUMP JUMPDEST PUSH1 0x0 PUSH20 0xFFFFFFFFFFFFFFFFFFFFFFFFFFFFFFFFFFFFFFFF DUP3 AND SWAP1 POP SWAP2 SWAP1 POP JUMP JUMPDEST PUSH1 0x0 DUP2 SWAP1 POP SWAP2 SWAP1 POP JUMP JUMPDEST PUSH1 0x0 JUMPDEST DUP4 DUP2 LT ISZERO PUSH2 0x21B9 JUMPI DUP1 DUP3 ADD MLOAD DUP2 DUP5 ADD MSTORE PUSH1 0x20 DUP2 ADD SWAP1 POP PUSH2 0x219E JUMP JUMPDEST DUP4 DUP2 GT ISZERO PUSH2 0x21C8 JUMPI PUSH1 0x0 DUP5 DUP5 ADD MSTORE JUMPDEST POP POP POP POP JUMP JUMPDEST PUSH1 0x0 PUSH1 0x1F NOT PUSH1 0x1F DUP4 ADD AND SWAP1 POP SWAP2 SWAP1 POP JUMP JUMPDEST PUSH2 0x21E8 DUP2 PUSH2 0x2141 JUMP JUMPDEST DUP2 EQ PUSH2 0x21F3 JUMPI PUSH1 0x0 DUP1 REVERT JUMPDEST POP JUMP JUMPDEST PUSH2 0x21FF DUP2 PUSH2 0x2153 JUMP JUMPDEST DUP2 EQ PUSH2 0x220A JUMPI PUSH1 0x0 DUP1 REVERT JUMPDEST POP JUMP JUMPDEST PUSH2 0x2216 DUP2 PUSH2 0x2191 JUMP JUMPDEST DUP2 EQ PUSH2 0x2221 JUMPI PUSH1 0x0 DUP1 REVERT JUMPDEST POP JUMP INVALID LOG3 PUSH6 0x627A7A723158 KECCAK256 MSTORE8 0xDF 0xBE 0xB6 NUMBER 0xAC 0xCC 0xF9 0xBD SWAP4 0x5F EXP 0x23 0xBD ADD SSTORE 0xDA PUSH27 0xD2A5008B49596D238CB5EFC3BA7F6C6578706572696D656E74616C CREATE2 PUSH5 0x736F6C6343 STOP SDIV GT STOP BLOCKHASH "
				},
				"gasEstimates": {
					"creation": {
						"codeDepositCost": "1761400",
						"executionCost": "infinite",
						"totalCost": "infinite"
					},
					"external": {
						"": "207",
						"addProposer(address)": "23272",
						"approve(uint256)": "26070",
						"deleteProposer(address)": "23292",
						"deposit()": "infinite",
						"excute(uint256)": "infinite",
						"putToDeath(uint256)": "infinite",
						"submit(address,bytes,uint256)": "infinite",
						"submitByMaster(address,bytes,uint256)": "infinite",
						"transactions(uint256)": "infinite",
						"viewTotalTransactions()": "infinite",
						"viewTransaction(uint256)": "infinite",
						"viewbalance()": "361"
					},
					"internal": {
						"_external_call(address,uint256,uint256,bytes memory)": "infinite"
					}
				},
				"methodIdentifiers": {
					"addProposer(address)": "b03cd418",
					"approve(uint256)": "b759f954",
					"deleteProposer(address)": "6f2d1bcb",
					"deposit()": "d0e30db0",
					"excute(uint256)": "a96c065b",
					"putToDeath(uint256)": "380496d6",
					"submit(address,bytes,uint256)": "0b5917e2",
					"submitByMaster(address,bytes,uint256)": "bbc07512",
					"transactions(uint256)": "9ace38c2",
					"viewTotalTransactions()": "45673c11",
					"viewTransaction(uint256)": "8916d12c",
					"viewbalance()": "af61ed3d"
				}
			},
			"storageLayout": {
				"storage": [
					{
						"astId": 6,
						"contract": "MultiSigWallet-2/MultiSigWallet.sol:MultiSigWallet",
						"label": "proposer",
						"offset": 0,
						"slot": "0",
						"type": "t_mapping(t_address,t_bool)"
					},
					{
						"astId": 12,
						"contract": "MultiSigWallet-2/MultiSigWallet.sol:MultiSigWallet",
						"label": "confirmations",
						"offset": 0,
						"slot": "1",
						"type": "t_mapping(t_uint256,t_mapping(t_address,t_bool))"
					},
					{
						"astId": 15,
						"contract": "MultiSigWallet-2/MultiSigWallet.sol:MultiSigWallet",
						"label": "totalProposer",
						"offset": 0,
						"slot": "2",
						"type": "t_array(t_address)dyn_storage"
					},
					{
						"astId": 17,
						"contract": "MultiSigWallet-2/MultiSigWallet.sol:MultiSigWallet",
						"label": "master",
						"offset": 0,
						"slot": "3",
						"type": "t_address_payable"
					},
					{
						"astId": 29,
						"contract": "MultiSigWallet-2/MultiSigWallet.sol:MultiSigWallet",
						"label": "transactions",
						"offset": 0,
						"slot": "4",
						"type": "t_array(t_struct(Transaction)26_storage)dyn_storage"
					}
				],
				"types": {
					"t_address": {
						"encoding": "inplace",
						"label": "address",
						"numberOfBytes": "20"
					},
					"t_address_payable": {
						"encoding": "inplace",
						"label": "address payable",
						"numberOfBytes": "20"
					},
					"t_array(t_address)dyn_storage": {
						"base": "t_address",
						"encoding": "dynamic_array",
						"label": "address[]",
						"numberOfBytes": "32"
					},
					"t_array(t_struct(Transaction)26_storage)dyn_storage": {
						"base": "t_struct(Transaction)26_storage",
						"encoding": "dynamic_array",
						"label": "struct MultiSigWallet.Transaction[]",
						"numberOfBytes": "32"
					},
					"t_bool": {
						"encoding": "inplace",
						"label": "bool",
						"numberOfBytes": "1"
					},
					"t_bytes_storage": {
						"encoding": "bytes",
						"label": "bytes",
						"numberOfBytes": "32"
					},
					"t_mapping(t_address,t_bool)": {
						"encoding": "mapping",
						"key": "t_address",
						"label": "mapping(address => bool)",
						"numberOfBytes": "32",
						"value": "t_bool"
					},
					"t_mapping(t_uint256,t_mapping(t_address,t_bool))": {
						"encoding": "mapping",
						"key": "t_uint256",
						"label": "mapping(uint256 => mapping(address => bool))",
						"numberOfBytes": "32",
						"value": "t_mapping(t_address,t_bool)"
					},
					"t_struct(Transaction)26_storage": {
						"encoding": "inplace",
						"label": "struct MultiSigWallet.Transaction",
						"members": [
							{
								"astId": 19,
								"contract": "MultiSigWallet-2/MultiSigWallet.sol:MultiSigWallet",
								"label": "destination",
								"offset": 0,
								"slot": "0",
								"type": "t_address_payable"
							},
							{
								"astId": 21,
								"contract": "MultiSigWallet-2/MultiSigWallet.sol:MultiSigWallet",
								"label": "value",
								"offset": 0,
								"slot": "1",
								"type": "t_uint256"
							},
							{
								"astId": 23,
								"contract": "MultiSigWallet-2/MultiSigWallet.sol:MultiSigWallet",
								"label": "data",
								"offset": 0,
								"slot": "2",
								"type": "t_bytes_storage"
							},
							{
								"astId": 25,
								"contract": "MultiSigWallet-2/MultiSigWallet.sol:MultiSigWallet",
								"label": "executed",
								"offset": 0,
								"slot": "3",
								"type": "t_bool"
							}
						],
						"numberOfBytes": "128"
					},
					"t_uint256": {
						"encoding": "inplace",
						"label": "uint256",
						"numberOfBytes": "32"
					}
				}
			},
			"userdoc": {
				"methods": {}
			}
		}
	}
}