{
	"MultiSigWallet/MultiSigWallet.sol": {
		"MultisigModifiers": {
			"abi": [
				{
					"inputs": [
						{
							"internalType": "uint256",
							"name": "",
							"type": "uint256"
						},
						{
							"internalType": "address",
							"name": "",
							"type": "address"
						}
					],
					"name": "approved",
					"outputs": [
						{
							"internalType": "bool",
							"name": "",
							"type": "bool"
						}
					],
					"stateMutability": "view",
					"type": "function"
				},
				{
					"inputs": [
						{
							"internalType": "address",
							"name": "",
							"type": "address"
						}
					],
					"name": "isOwner",
					"outputs": [
						{
							"internalType": "bool",
							"name": "",
							"type": "bool"
						}
					],
					"stateMutability": "view",
					"type": "function"
				},
				{
					"inputs": [
						{
							"internalType": "uint256",
							"name": "",
							"type": "uint256"
						}
					],
					"name": "owners",
					"outputs": [
						{
							"internalType": "address",
							"name": "",
							"type": "address"
						}
					],
					"stateMutability": "view",
					"type": "function"
				},
				{
					"inputs": [],
					"name": "required",
					"outputs": [
						{
							"internalType": "uint256",
							"name": "",
							"type": "uint256"
						}
					],
					"stateMutability": "view",
					"type": "function"
				},
				{
					"inputs": [
						{
							"internalType": "uint256",
							"name": "",
							"type": "uint256"
						}
					],
					"name": "transactions",
					"outputs": [
						{
							"internalType": "address",
							"name": "to",
							"type": "address"
						},
						{
							"internalType": "uint256",
							"name": "value",
							"type": "uint256"
						},
						{
							"internalType": "bytes",
							"name": "data",
							"type": "bytes"
						},
						{
							"internalType": "bool",
							"name": "executed",
							"type": "bool"
						}
					],
					"stateMutability": "view",
					"type": "function"
				}
			],
			"devdoc": {
				"kind": "dev",
				"methods": {},
				"version": 1
			},
			"evm": {
				"assembly": "    /* \"MultiSigWallet/MultiSigWallet.sol\":660:1621  contract MultisigModifiers {... */\n  mstore(0x40, 0x80)\n  callvalue\n  dup1\n  iszero\n  tag_1\n  jumpi\n  0x00\n  dup1\n  revert\ntag_1:\n  pop\n  dataSize(sub_0)\n  dup1\n  dataOffset(sub_0)\n  0x00\n  codecopy\n  0x00\n  return\nstop\n\nsub_0: assembly {\n        /* \"MultiSigWallet/MultiSigWallet.sol\":660:1621  contract MultisigModifiers {... */\n      mstore(0x40, 0x80)\n      callvalue\n      dup1\n      iszero\n      tag_1\n      jumpi\n      0x00\n      dup1\n      revert\n    tag_1:\n      pop\n      jumpi(tag_2, lt(calldatasize, 0x04))\n      shr(0xe0, calldataload(0x00))\n      dup1\n      0x025e7c27\n      eq\n      tag_3\n      jumpi\n      dup1\n      0x2f54bf6e\n      eq\n      tag_4\n      jumpi\n      dup1\n      0x8253951a\n      eq\n      tag_5\n      jumpi\n      dup1\n      0x9ace38c2\n      eq\n      tag_6\n      jumpi\n      dup1\n      0xdc8452cd\n      eq\n      tag_7\n      jumpi\n    tag_2:\n      0x00\n      dup1\n      revert\n        /* \"MultiSigWallet/MultiSigWallet.sol\":787:810  address[] public owners */\n    tag_3:\n      tag_8\n      0x04\n      dup1\n      calldatasize\n      sub\n      dup2\n      add\n      swap1\n      tag_9\n      swap2\n      swap1\n      tag_10\n      jump\t// in\n    tag_9:\n      tag_11\n      jump\t// in\n    tag_8:\n      mload(0x40)\n      tag_12\n      swap2\n      swap1\n      tag_13\n      jump\t// in\n    tag_12:\n      mload(0x40)\n      dup1\n      swap2\n      sub\n      swap1\n      return\n        /* \"MultiSigWallet/MultiSigWallet.sol\":693:732  mapping(address => bool) public isOwner */\n    tag_4:\n      tag_14\n      0x04\n      dup1\n      calldatasize\n      sub\n      dup2\n      add\n      swap1\n      tag_15\n      swap2\n      swap1\n      tag_16\n      jump\t// in\n    tag_15:\n      tag_17\n      jump\t// in\n    tag_14:\n      mload(0x40)\n      tag_18\n      swap2\n      swap1\n      tag_19\n      jump\t// in\n    tag_18:\n      mload(0x40)\n      dup1\n      swap2\n      sub\n      swap1\n      return\n        /* \"MultiSigWallet/MultiSigWallet.sol\":1047:1107  mapping(uint256 => mapping(address => bool)) public approved */\n    tag_5:\n      tag_20\n      0x04\n      dup1\n      calldatasize\n      sub\n      dup2\n      add\n      swap1\n      tag_21\n      swap2\n      swap1\n      tag_22\n      jump\t// in\n    tag_21:\n      tag_23\n      jump\t// in\n    tag_20:\n      mload(0x40)\n      tag_24\n      swap2\n      swap1\n      tag_19\n      jump\t// in\n    tag_24:\n      mload(0x40)\n      dup1\n      swap2\n      sub\n      swap1\n      return\n        /* \"MultiSigWallet/MultiSigWallet.sol\":1007:1040  Transaction[] public transactions */\n    tag_6:\n      tag_25\n      0x04\n      dup1\n      calldatasize\n      sub\n      dup2\n      add\n      swap1\n      tag_26\n      swap2\n      swap1\n      tag_10\n      jump\t// in\n    tag_26:\n      tag_27\n      jump\t// in\n    tag_25:\n      mload(0x40)\n      tag_28\n      swap5\n      swap4\n      swap3\n      swap2\n      swap1\n      tag_29\n      jump\t// in\n    tag_28:\n      mload(0x40)\n      dup1\n      swap2\n      sub\n      swap1\n      return\n        /* \"MultiSigWallet/MultiSigWallet.sol\":859:882  uint256 public required */\n    tag_7:\n      tag_30\n      tag_31\n      jump\t// in\n    tag_30:\n      mload(0x40)\n      tag_32\n      swap2\n      swap1\n      tag_33\n      jump\t// in\n    tag_32:\n      mload(0x40)\n      dup1\n      swap2\n      sub\n      swap1\n      return\n        /* \"MultiSigWallet/MultiSigWallet.sol\":787:810  address[] public owners */\n    tag_11:\n      0x01\n      dup2\n      dup2\n      sload\n      dup2\n      lt\n      tag_34\n      jumpi\n      0x00\n      dup1\n      revert\n    tag_34:\n      swap1\n      0x00\n      mstore\n      keccak256(0x00, 0x20)\n      add\n      0x00\n      swap2\n      pop\n      sload\n      swap1\n      0x0100\n      exp\n      swap1\n      div\n      0xffffffffffffffffffffffffffffffffffffffff\n      and\n      dup2\n      jump\t// out\n        /* \"MultiSigWallet/MultiSigWallet.sol\":693:732  mapping(address => bool) public isOwner */\n    tag_17:\n      mstore(0x20, 0x00)\n      dup1\n      0x00\n      mstore\n      keccak256(0x00, 0x40)\n      0x00\n      swap2\n      pop\n      sload\n      swap1\n      0x0100\n      exp\n      swap1\n      div\n      0xff\n      and\n      dup2\n      jump\t// out\n        /* \"MultiSigWallet/MultiSigWallet.sol\":1047:1107  mapping(uint256 => mapping(address => bool)) public approved */\n    tag_23:\n      mstore(0x20, 0x04)\n      dup2\n      0x00\n      mstore\n      mstore(0x20, keccak256(0x00, 0x40))\n      dup1\n      0x00\n      mstore\n      keccak256(0x00, 0x40)\n      0x00\n      swap2\n      pop\n      swap2\n      pop\n      swap1\n      sload\n      swap1\n      0x0100\n      exp\n      swap1\n      div\n      0xff\n      and\n      dup2\n      jump\t// out\n        /* \"MultiSigWallet/MultiSigWallet.sol\":1007:1040  Transaction[] public transactions */\n    tag_27:\n      0x03\n      dup2\n      dup2\n      sload\n      dup2\n      lt\n      tag_36\n      jumpi\n      0x00\n      dup1\n      revert\n    tag_36:\n      swap1\n      0x00\n      mstore\n      keccak256(0x00, 0x20)\n      swap1\n      0x04\n      mul\n      add\n      0x00\n      swap2\n      pop\n      swap1\n      pop\n      dup1\n      0x00\n      add\n      0x00\n      swap1\n      sload\n      swap1\n      0x0100\n      exp\n      swap1\n      div\n      0xffffffffffffffffffffffffffffffffffffffff\n      and\n      swap1\n      dup1\n      0x01\n      add\n      sload\n      swap1\n      dup1\n      0x02\n      add\n      dup1\n      sload\n      tag_38\n      swap1\n      tag_39\n      jump\t// in\n    tag_38:\n      dup1\n      0x1f\n      add\n      0x20\n      dup1\n      swap2\n      div\n      mul\n      0x20\n      add\n      mload(0x40)\n      swap1\n      dup2\n      add\n      0x40\n      mstore\n      dup1\n      swap3\n      swap2\n      swap1\n      dup2\n      dup2\n      mstore\n      0x20\n      add\n      dup3\n      dup1\n      sload\n      tag_40\n      swap1\n      tag_39\n      jump\t// in\n    tag_40:\n      dup1\n      iszero\n      tag_41\n      jumpi\n      dup1\n      0x1f\n      lt\n      tag_42\n      jumpi\n      0x0100\n      dup1\n      dup4\n      sload\n      div\n      mul\n      dup4\n      mstore\n      swap2\n      0x20\n      add\n      swap2\n      jump(tag_41)\n    tag_42:\n      dup3\n      add\n      swap2\n      swap1\n      0x00\n      mstore\n      keccak256(0x00, 0x20)\n      swap1\n    tag_43:\n      dup2\n      sload\n      dup2\n      mstore\n      swap1\n      0x01\n      add\n      swap1\n      0x20\n      add\n      dup1\n      dup4\n      gt\n      tag_43\n      jumpi\n      dup3\n      swap1\n      sub\n      0x1f\n      and\n      dup3\n      add\n      swap2\n    tag_41:\n      pop\n      pop\n      pop\n      pop\n      pop\n      swap1\n      dup1\n      0x03\n      add\n      0x00\n      swap1\n      sload\n      swap1\n      0x0100\n      exp\n      swap1\n      div\n      0xff\n      and\n      swap1\n      pop\n      dup5\n      jump\t// out\n        /* \"MultiSigWallet/MultiSigWallet.sol\":859:882  uint256 public required */\n    tag_31:\n      sload(0x02)\n      dup2\n      jump\t// out\n        /* \"#utility.yul\":7:146   */\n    tag_45:\n      0x00\n        /* \"#utility.yul\":91:97   */\n      dup2\n        /* \"#utility.yul\":78:98   */\n      calldataload\n        /* \"#utility.yul\":69:98   */\n      swap1\n      pop\n        /* \"#utility.yul\":107:140   */\n      tag_47\n        /* \"#utility.yul\":134:139   */\n      dup2\n        /* \"#utility.yul\":107:140   */\n      tag_48\n      jump\t// in\n    tag_47:\n        /* \"#utility.yul\":59:146   */\n      swap3\n      swap2\n      pop\n      pop\n      jump\t// out\n        /* \"#utility.yul\":152:291   */\n    tag_49:\n      0x00\n        /* \"#utility.yul\":236:242   */\n      dup2\n        /* \"#utility.yul\":223:243   */\n      calldataload\n        /* \"#utility.yul\":214:243   */\n      swap1\n      pop\n        /* \"#utility.yul\":252:285   */\n      tag_51\n        /* \"#utility.yul\":279:284   */\n      dup2\n        /* \"#utility.yul\":252:285   */\n      tag_52\n      jump\t// in\n    tag_51:\n        /* \"#utility.yul\":204:291   */\n      swap3\n      swap2\n      pop\n      pop\n      jump\t// out\n        /* \"#utility.yul\":297:559   */\n    tag_16:\n      0x00\n        /* \"#utility.yul\":405:407   */\n      0x20\n        /* \"#utility.yul\":393:402   */\n      dup3\n        /* \"#utility.yul\":384:391   */\n      dup5\n        /* \"#utility.yul\":380:403   */\n      sub\n        /* \"#utility.yul\":376:408   */\n      slt\n        /* \"#utility.yul\":373:375   */\n      iszero\n      tag_54\n      jumpi\n        /* \"#utility.yul\":421:422   */\n      0x00\n        /* \"#utility.yul\":418:419   */\n      dup1\n        /* \"#utility.yul\":411:423   */\n      revert\n        /* \"#utility.yul\":373:375   */\n    tag_54:\n        /* \"#utility.yul\":464:465   */\n      0x00\n        /* \"#utility.yul\":489:542   */\n      tag_55\n        /* \"#utility.yul\":534:541   */\n      dup5\n        /* \"#utility.yul\":525:531   */\n      dup3\n        /* \"#utility.yul\":514:523   */\n      dup6\n        /* \"#utility.yul\":510:532   */\n      add\n        /* \"#utility.yul\":489:542   */\n      tag_45\n      jump\t// in\n    tag_55:\n        /* \"#utility.yul\":479:542   */\n      swap2\n      pop\n        /* \"#utility.yul\":435:552   */\n      pop\n        /* \"#utility.yul\":363:559   */\n      swap3\n      swap2\n      pop\n      pop\n      jump\t// out\n        /* \"#utility.yul\":565:827   */\n    tag_10:\n      0x00\n        /* \"#utility.yul\":673:675   */\n      0x20\n        /* \"#utility.yul\":661:670   */\n      dup3\n        /* \"#utility.yul\":652:659   */\n      dup5\n        /* \"#utility.yul\":648:671   */\n      sub\n        /* \"#utility.yul\":644:676   */\n      slt\n        /* \"#utility.yul\":641:643   */\n      iszero\n      tag_57\n      jumpi\n        /* \"#utility.yul\":689:690   */\n      0x00\n        /* \"#utility.yul\":686:687   */\n      dup1\n        /* \"#utility.yul\":679:691   */\n      revert\n        /* \"#utility.yul\":641:643   */\n    tag_57:\n        /* \"#utility.yul\":732:733   */\n      0x00\n        /* \"#utility.yul\":757:810   */\n      tag_58\n        /* \"#utility.yul\":802:809   */\n      dup5\n        /* \"#utility.yul\":793:799   */\n      dup3\n        /* \"#utility.yul\":782:791   */\n      dup6\n        /* \"#utility.yul\":778:800   */\n      add\n        /* \"#utility.yul\":757:810   */\n      tag_49\n      jump\t// in\n    tag_58:\n        /* \"#utility.yul\":747:810   */\n      swap2\n      pop\n        /* \"#utility.yul\":703:820   */\n      pop\n        /* \"#utility.yul\":631:827   */\n      swap3\n      swap2\n      pop\n      pop\n      jump\t// out\n        /* \"#utility.yul\":833:1240   */\n    tag_22:\n      0x00\n      dup1\n        /* \"#utility.yul\":958:960   */\n      0x40\n        /* \"#utility.yul\":946:955   */\n      dup4\n        /* \"#utility.yul\":937:944   */\n      dup6\n        /* \"#utility.yul\":933:956   */\n      sub\n        /* \"#utility.yul\":929:961   */\n      slt\n        /* \"#utility.yul\":926:928   */\n      iszero\n      tag_60\n      jumpi\n        /* \"#utility.yul\":974:975   */\n      0x00\n        /* \"#utility.yul\":971:972   */\n      dup1\n        /* \"#utility.yul\":964:976   */\n      revert\n        /* \"#utility.yul\":926:928   */\n    tag_60:\n        /* \"#utility.yul\":1017:1018   */\n      0x00\n        /* \"#utility.yul\":1042:1095   */\n      tag_61\n        /* \"#utility.yul\":1087:1094   */\n      dup6\n        /* \"#utility.yul\":1078:1084   */\n      dup3\n        /* \"#utility.yul\":1067:1076   */\n      dup7\n        /* \"#utility.yul\":1063:1085   */\n      add\n        /* \"#utility.yul\":1042:1095   */\n      tag_49\n      jump\t// in\n    tag_61:\n        /* \"#utility.yul\":1032:1095   */\n      swap3\n      pop\n        /* \"#utility.yul\":988:1105   */\n      pop\n        /* \"#utility.yul\":1144:1146   */\n      0x20\n        /* \"#utility.yul\":1170:1223   */\n      tag_62\n        /* \"#utility.yul\":1215:1222   */\n      dup6\n        /* \"#utility.yul\":1206:1212   */\n      dup3\n        /* \"#utility.yul\":1195:1204   */\n      dup7\n        /* \"#utility.yul\":1191:1213   */\n      add\n        /* \"#utility.yul\":1170:1223   */\n      tag_45\n      jump\t// in\n    tag_62:\n        /* \"#utility.yul\":1160:1223   */\n      swap2\n      pop\n        /* \"#utility.yul\":1115:1233   */\n      pop\n        /* \"#utility.yul\":916:1240   */\n      swap3\n      pop\n      swap3\n      swap1\n      pop\n      jump\t// out\n        /* \"#utility.yul\":1246:1364   */\n    tag_63:\n        /* \"#utility.yul\":1333:1357   */\n      tag_65\n        /* \"#utility.yul\":1351:1356   */\n      dup2\n        /* \"#utility.yul\":1333:1357   */\n      tag_66\n      jump\t// in\n    tag_65:\n        /* \"#utility.yul\":1328:1331   */\n      dup3\n        /* \"#utility.yul\":1321:1358   */\n      mstore\n        /* \"#utility.yul\":1311:1364   */\n      pop\n      pop\n      jump\t// out\n        /* \"#utility.yul\":1370:1479   */\n    tag_67:\n        /* \"#utility.yul\":1451:1472   */\n      tag_69\n        /* \"#utility.yul\":1466:1471   */\n      dup2\n        /* \"#utility.yul\":1451:1472   */\n      tag_70\n      jump\t// in\n    tag_69:\n        /* \"#utility.yul\":1446:1449   */\n      dup3\n        /* \"#utility.yul\":1439:1473   */\n      mstore\n        /* \"#utility.yul\":1429:1479   */\n      pop\n      pop\n      jump\t// out\n        /* \"#utility.yul\":1485:1845   */\n    tag_71:\n      0x00\n        /* \"#utility.yul\":1599:1637   */\n      tag_73\n        /* \"#utility.yul\":1631:1636   */\n      dup3\n        /* \"#utility.yul\":1599:1637   */\n      tag_74\n      jump\t// in\n    tag_73:\n        /* \"#utility.yul\":1653:1723   */\n      tag_75\n        /* \"#utility.yul\":1716:1722   */\n      dup2\n        /* \"#utility.yul\":1711:1714   */\n      dup6\n        /* \"#utility.yul\":1653:1723   */\n      tag_76\n      jump\t// in\n    tag_75:\n        /* \"#utility.yul\":1646:1723   */\n      swap4\n      pop\n        /* \"#utility.yul\":1732:1784   */\n      tag_77\n        /* \"#utility.yul\":1777:1783   */\n      dup2\n        /* \"#utility.yul\":1772:1775   */\n      dup6\n        /* \"#utility.yul\":1765:1769   */\n      0x20\n        /* \"#utility.yul\":1758:1763   */\n      dup7\n        /* \"#utility.yul\":1754:1770   */\n      add\n        /* \"#utility.yul\":1732:1784   */\n      tag_78\n      jump\t// in\n    tag_77:\n        /* \"#utility.yul\":1809:1838   */\n      tag_79\n        /* \"#utility.yul\":1831:1837   */\n      dup2\n        /* \"#utility.yul\":1809:1838   */\n      tag_80\n      jump\t// in\n    tag_79:\n        /* \"#utility.yul\":1804:1807   */\n      dup5\n        /* \"#utility.yul\":1800:1839   */\n      add\n        /* \"#utility.yul\":1793:1839   */\n      swap2\n      pop\n        /* \"#utility.yul\":1575:1845   */\n      pop\n      swap3\n      swap2\n      pop\n      pop\n      jump\t// out\n        /* \"#utility.yul\":1851:1969   */\n    tag_81:\n        /* \"#utility.yul\":1938:1962   */\n      tag_83\n        /* \"#utility.yul\":1956:1961   */\n      dup2\n        /* \"#utility.yul\":1938:1962   */\n      tag_84\n      jump\t// in\n    tag_83:\n        /* \"#utility.yul\":1933:1936   */\n      dup3\n        /* \"#utility.yul\":1926:1963   */\n      mstore\n        /* \"#utility.yul\":1916:1969   */\n      pop\n      pop\n      jump\t// out\n        /* \"#utility.yul\":1975:2197   */\n    tag_13:\n      0x00\n        /* \"#utility.yul\":2106:2108   */\n      0x20\n        /* \"#utility.yul\":2095:2104   */\n      dup3\n        /* \"#utility.yul\":2091:2109   */\n      add\n        /* \"#utility.yul\":2083:2109   */\n      swap1\n      pop\n        /* \"#utility.yul\":2119:2190   */\n      tag_86\n        /* \"#utility.yul\":2187:2188   */\n      0x00\n        /* \"#utility.yul\":2176:2185   */\n      dup4\n        /* \"#utility.yul\":2172:2189   */\n      add\n        /* \"#utility.yul\":2163:2169   */\n      dup5\n        /* \"#utility.yul\":2119:2190   */\n      tag_63\n      jump\t// in\n    tag_86:\n        /* \"#utility.yul\":2073:2197   */\n      swap3\n      swap2\n      pop\n      pop\n      jump\t// out\n        /* \"#utility.yul\":2203:2831   */\n    tag_29:\n      0x00\n        /* \"#utility.yul\":2430:2433   */\n      0x80\n        /* \"#utility.yul\":2419:2428   */\n      dup3\n        /* \"#utility.yul\":2415:2434   */\n      add\n        /* \"#utility.yul\":2407:2434   */\n      swap1\n      pop\n        /* \"#utility.yul\":2444:2515   */\n      tag_88\n        /* \"#utility.yul\":2512:2513   */\n      0x00\n        /* \"#utility.yul\":2501:2510   */\n      dup4\n        /* \"#utility.yul\":2497:2514   */\n      add\n        /* \"#utility.yul\":2488:2494   */\n      dup8\n        /* \"#utility.yul\":2444:2515   */\n      tag_63\n      jump\t// in\n    tag_88:\n        /* \"#utility.yul\":2525:2597   */\n      tag_89\n        /* \"#utility.yul\":2593:2595   */\n      0x20\n        /* \"#utility.yul\":2582:2591   */\n      dup4\n        /* \"#utility.yul\":2578:2596   */\n      add\n        /* \"#utility.yul\":2569:2575   */\n      dup7\n        /* \"#utility.yul\":2525:2597   */\n      tag_81\n      jump\t// in\n    tag_89:\n        /* \"#utility.yul\":2644:2653   */\n      dup2\n        /* \"#utility.yul\":2638:2642   */\n      dup2\n        /* \"#utility.yul\":2634:2654   */\n      sub\n        /* \"#utility.yul\":2629:2631   */\n      0x40\n        /* \"#utility.yul\":2618:2627   */\n      dup4\n        /* \"#utility.yul\":2614:2632   */\n      add\n        /* \"#utility.yul\":2607:2655   */\n      mstore\n        /* \"#utility.yul\":2672:2748   */\n      tag_90\n        /* \"#utility.yul\":2743:2747   */\n      dup2\n        /* \"#utility.yul\":2734:2740   */\n      dup6\n        /* \"#utility.yul\":2672:2748   */\n      tag_71\n      jump\t// in\n    tag_90:\n        /* \"#utility.yul\":2664:2748   */\n      swap1\n      pop\n        /* \"#utility.yul\":2758:2824   */\n      tag_91\n        /* \"#utility.yul\":2820:2822   */\n      0x60\n        /* \"#utility.yul\":2809:2818   */\n      dup4\n        /* \"#utility.yul\":2805:2823   */\n      add\n        /* \"#utility.yul\":2796:2802   */\n      dup5\n        /* \"#utility.yul\":2758:2824   */\n      tag_67\n      jump\t// in\n    tag_91:\n        /* \"#utility.yul\":2397:2831   */\n      swap6\n      swap5\n      pop\n      pop\n      pop\n      pop\n      pop\n      jump\t// out\n        /* \"#utility.yul\":2837:3047   */\n    tag_19:\n      0x00\n        /* \"#utility.yul\":2962:2964   */\n      0x20\n        /* \"#utility.yul\":2951:2960   */\n      dup3\n        /* \"#utility.yul\":2947:2965   */\n      add\n        /* \"#utility.yul\":2939:2965   */\n      swap1\n      pop\n        /* \"#utility.yul\":2975:3040   */\n      tag_93\n        /* \"#utility.yul\":3037:3038   */\n      0x00\n        /* \"#utility.yul\":3026:3035   */\n      dup4\n        /* \"#utility.yul\":3022:3039   */\n      add\n        /* \"#utility.yul\":3013:3019   */\n      dup5\n        /* \"#utility.yul\":2975:3040   */\n      tag_67\n      jump\t// in\n    tag_93:\n        /* \"#utility.yul\":2929:3047   */\n      swap3\n      swap2\n      pop\n      pop\n      jump\t// out\n        /* \"#utility.yul\":3053:3275   */\n    tag_33:\n      0x00\n        /* \"#utility.yul\":3184:3186   */\n      0x20\n        /* \"#utility.yul\":3173:3182   */\n      dup3\n        /* \"#utility.yul\":3169:3187   */\n      add\n        /* \"#utility.yul\":3161:3187   */\n      swap1\n      pop\n        /* \"#utility.yul\":3197:3268   */\n      tag_95\n        /* \"#utility.yul\":3265:3266   */\n      0x00\n        /* \"#utility.yul\":3254:3263   */\n      dup4\n        /* \"#utility.yul\":3250:3267   */\n      add\n        /* \"#utility.yul\":3241:3247   */\n      dup5\n        /* \"#utility.yul\":3197:3268   */\n      tag_81\n      jump\t// in\n    tag_95:\n        /* \"#utility.yul\":3151:3275   */\n      swap3\n      swap2\n      pop\n      pop\n      jump\t// out\n        /* \"#utility.yul\":3281:3379   */\n    tag_74:\n      0x00\n        /* \"#utility.yul\":3366:3371   */\n      dup2\n        /* \"#utility.yul\":3360:3372   */\n      mload\n        /* \"#utility.yul\":3350:3372   */\n      swap1\n      pop\n        /* \"#utility.yul\":3339:3379   */\n      swap2\n      swap1\n      pop\n      jump\t// out\n        /* \"#utility.yul\":3385:3553   */\n    tag_76:\n      0x00\n        /* \"#utility.yul\":3502:3508   */\n      dup3\n        /* \"#utility.yul\":3497:3500   */\n      dup3\n        /* \"#utility.yul\":3490:3509   */\n      mstore\n        /* \"#utility.yul\":3542:3546   */\n      0x20\n        /* \"#utility.yul\":3537:3540   */\n      dup3\n        /* \"#utility.yul\":3533:3547   */\n      add\n        /* \"#utility.yul\":3518:3547   */\n      swap1\n      pop\n        /* \"#utility.yul\":3480:3553   */\n      swap3\n      swap2\n      pop\n      pop\n      jump\t// out\n        /* \"#utility.yul\":3559:3655   */\n    tag_66:\n      0x00\n        /* \"#utility.yul\":3625:3649   */\n      tag_99\n        /* \"#utility.yul\":3643:3648   */\n      dup3\n        /* \"#utility.yul\":3625:3649   */\n      tag_100\n      jump\t// in\n    tag_99:\n        /* \"#utility.yul\":3614:3649   */\n      swap1\n      pop\n        /* \"#utility.yul\":3604:3655   */\n      swap2\n      swap1\n      pop\n      jump\t// out\n        /* \"#utility.yul\":3661:3751   */\n    tag_70:\n      0x00\n        /* \"#utility.yul\":3738:3743   */\n      dup2\n        /* \"#utility.yul\":3731:3744   */\n      iszero\n        /* \"#utility.yul\":3724:3745   */\n      iszero\n        /* \"#utility.yul\":3713:3745   */\n      swap1\n      pop\n        /* \"#utility.yul\":3703:3751   */\n      swap2\n      swap1\n      pop\n      jump\t// out\n        /* \"#utility.yul\":3757:3883   */\n    tag_100:\n      0x00\n        /* \"#utility.yul\":3834:3876   */\n      0xffffffffffffffffffffffffffffffffffffffff\n        /* \"#utility.yul\":3827:3832   */\n      dup3\n        /* \"#utility.yul\":3823:3877   */\n      and\n        /* \"#utility.yul\":3812:3877   */\n      swap1\n      pop\n        /* \"#utility.yul\":3802:3883   */\n      swap2\n      swap1\n      pop\n      jump\t// out\n        /* \"#utility.yul\":3889:3966   */\n    tag_84:\n      0x00\n        /* \"#utility.yul\":3955:3960   */\n      dup2\n        /* \"#utility.yul\":3944:3960   */\n      swap1\n      pop\n        /* \"#utility.yul\":3934:3966   */\n      swap2\n      swap1\n      pop\n      jump\t// out\n        /* \"#utility.yul\":3972:4279   */\n    tag_78:\n        /* \"#utility.yul\":4040:4041   */\n      0x00\n        /* \"#utility.yul\":4050:4163   */\n    tag_105:\n        /* \"#utility.yul\":4064:4070   */\n      dup4\n        /* \"#utility.yul\":4061:4062   */\n      dup2\n        /* \"#utility.yul\":4058:4071   */\n      lt\n        /* \"#utility.yul\":4050:4163   */\n      iszero\n      tag_107\n      jumpi\n        /* \"#utility.yul\":4149:4150   */\n      dup1\n        /* \"#utility.yul\":4144:4147   */\n      dup3\n        /* \"#utility.yul\":4140:4151   */\n      add\n        /* \"#utility.yul\":4134:4152   */\n      mload\n        /* \"#utility.yul\":4130:4131   */\n      dup2\n        /* \"#utility.yul\":4125:4128   */\n      dup5\n        /* \"#utility.yul\":4121:4132   */\n      add\n        /* \"#utility.yul\":4114:4153   */\n      mstore\n        /* \"#utility.yul\":4086:4088   */\n      0x20\n        /* \"#utility.yul\":4083:4084   */\n      dup2\n        /* \"#utility.yul\":4079:4089   */\n      add\n        /* \"#utility.yul\":4074:4089   */\n      swap1\n      pop\n        /* \"#utility.yul\":4050:4163   */\n      jump(tag_105)\n    tag_107:\n        /* \"#utility.yul\":4181:4187   */\n      dup4\n        /* \"#utility.yul\":4178:4179   */\n      dup2\n        /* \"#utility.yul\":4175:4188   */\n      gt\n        /* \"#utility.yul\":4172:4174   */\n      iszero\n      tag_108\n      jumpi\n        /* \"#utility.yul\":4261:4262   */\n      0x00\n        /* \"#utility.yul\":4252:4258   */\n      dup5\n        /* \"#utility.yul\":4247:4250   */\n      dup5\n        /* \"#utility.yul\":4243:4259   */\n      add\n        /* \"#utility.yul\":4236:4263   */\n      mstore\n        /* \"#utility.yul\":4172:4174   */\n    tag_108:\n        /* \"#utility.yul\":4021:4279   */\n      pop\n      pop\n      pop\n      pop\n      jump\t// out\n        /* \"#utility.yul\":4285:4605   */\n    tag_39:\n      0x00\n        /* \"#utility.yul\":4366:4367   */\n      0x02\n        /* \"#utility.yul\":4360:4364   */\n      dup3\n        /* \"#utility.yul\":4356:4368   */\n      div\n        /* \"#utility.yul\":4346:4368   */\n      swap1\n      pop\n        /* \"#utility.yul\":4413:4414   */\n      0x01\n        /* \"#utility.yul\":4407:4411   */\n      dup3\n        /* \"#utility.yul\":4403:4415   */\n      and\n        /* \"#utility.yul\":4434:4452   */\n      dup1\n        /* \"#utility.yul\":4424:4426   */\n      tag_110\n      jumpi\n        /* \"#utility.yul\":4490:4494   */\n      0x7f\n        /* \"#utility.yul\":4482:4488   */\n      dup3\n        /* \"#utility.yul\":4478:4495   */\n      and\n        /* \"#utility.yul\":4468:4495   */\n      swap2\n      pop\n        /* \"#utility.yul\":4424:4426   */\n    tag_110:\n        /* \"#utility.yul\":4552:4554   */\n      0x20\n        /* \"#utility.yul\":4544:4550   */\n      dup3\n        /* \"#utility.yul\":4541:4555   */\n      lt\n        /* \"#utility.yul\":4521:4539   */\n      dup2\n        /* \"#utility.yul\":4518:4556   */\n      eq\n        /* \"#utility.yul\":4515:4517   */\n      iszero\n      tag_111\n      jumpi\n        /* \"#utility.yul\":4571:4589   */\n      tag_112\n      tag_113\n      jump\t// in\n    tag_112:\n        /* \"#utility.yul\":4515:4517   */\n    tag_111:\n        /* \"#utility.yul\":4336:4605   */\n      pop\n      swap2\n      swap1\n      pop\n      jump\t// out\n        /* \"#utility.yul\":4611:4791   */\n    tag_113:\n        /* \"#utility.yul\":4659:4736   */\n      0x4e487b7100000000000000000000000000000000000000000000000000000000\n        /* \"#utility.yul\":4656:4657   */\n      0x00\n        /* \"#utility.yul\":4649:4737   */\n      mstore\n        /* \"#utility.yul\":4756:4760   */\n      0x22\n        /* \"#utility.yul\":4753:4754   */\n      0x04\n        /* \"#utility.yul\":4746:4761   */\n      mstore\n        /* \"#utility.yul\":4780:4784   */\n      0x24\n        /* \"#utility.yul\":4777:4778   */\n      0x00\n        /* \"#utility.yul\":4770:4785   */\n      revert\n        /* \"#utility.yul\":4797:4899   */\n    tag_80:\n      0x00\n        /* \"#utility.yul\":4889:4891   */\n      0x1f\n        /* \"#utility.yul\":4885:4892   */\n      not\n        /* \"#utility.yul\":4880:4882   */\n      0x1f\n        /* \"#utility.yul\":4873:4878   */\n      dup4\n        /* \"#utility.yul\":4869:4883   */\n      add\n        /* \"#utility.yul\":4865:4893   */\n      and\n        /* \"#utility.yul\":4855:4893   */\n      swap1\n      pop\n        /* \"#utility.yul\":4845:4899   */\n      swap2\n      swap1\n      pop\n      jump\t// out\n        /* \"#utility.yul\":4905:5027   */\n    tag_48:\n        /* \"#utility.yul\":4978:5002   */\n      tag_117\n        /* \"#utility.yul\":4996:5001   */\n      dup2\n        /* \"#utility.yul\":4978:5002   */\n      tag_66\n      jump\t// in\n    tag_117:\n        /* \"#utility.yul\":4971:4976   */\n      dup2\n        /* \"#utility.yul\":4968:5003   */\n      eq\n        /* \"#utility.yul\":4958:4960   */\n      tag_118\n      jumpi\n        /* \"#utility.yul\":5017:5018   */\n      0x00\n        /* \"#utility.yul\":5014:5015   */\n      dup1\n        /* \"#utility.yul\":5007:5019   */\n      revert\n        /* \"#utility.yul\":4958:4960   */\n    tag_118:\n        /* \"#utility.yul\":4948:5027   */\n      pop\n      jump\t// out\n        /* \"#utility.yul\":5033:5155   */\n    tag_52:\n        /* \"#utility.yul\":5106:5130   */\n      tag_120\n        /* \"#utility.yul\":5124:5129   */\n      dup2\n        /* \"#utility.yul\":5106:5130   */\n      tag_84\n      jump\t// in\n    tag_120:\n        /* \"#utility.yul\":5099:5104   */\n      dup2\n        /* \"#utility.yul\":5096:5131   */\n      eq\n        /* \"#utility.yul\":5086:5088   */\n      tag_121\n      jumpi\n        /* \"#utility.yul\":5145:5146   */\n      0x00\n        /* \"#utility.yul\":5142:5143   */\n      dup1\n        /* \"#utility.yul\":5135:5147   */\n      revert\n        /* \"#utility.yul\":5086:5088   */\n    tag_121:\n        /* \"#utility.yul\":5076:5155   */\n      pop\n      jump\t// out\n\n    auxdata: 0xa26469706673582212203eb8192f1b21b84d43b89fa95314946745face70c48571cfaeb769e22253443764736f6c63430008000033\n}\n",
				"bytecode": {
					"linkReferences": {},
					"object": "608060405234801561001057600080fd5b506105ee806100206000396000f3fe608060405234801561001057600080fd5b50600436106100575760003560e01c8063025e7c271461005c5780632f54bf6e1461008c5780638253951a146100bc5780639ace38c2146100ec578063dc8452cd1461011f575b600080fd5b61007660048036038101906100719190610319565b61013d565b60405161008391906103e4565b60405180910390f35b6100a660048036038101906100a191906102f0565b61017c565b6040516100b3919061044b565b60405180910390f35b6100d660048036038101906100d19190610342565b61019c565b6040516100e3919061044b565b60405180910390f35b61010660048036038101906101019190610319565b6101cb565b60405161011694939291906103ff565b60405180910390f35b6101276102c0565b6040516101349190610466565b60405180910390f35b6001818154811061014d57600080fd5b906000526020600020016000915054906101000a900473ffffffffffffffffffffffffffffffffffffffff1681565b60006020528060005260406000206000915054906101000a900460ff1681565b60046020528160005260406000206020528060005260406000206000915091509054906101000a900460ff1681565b600381815481106101db57600080fd5b90600052602060002090600402016000915090508060000160009054906101000a900473ffffffffffffffffffffffffffffffffffffffff169080600101549080600201805461022a90610518565b80601f016020809104026020016040519081016040528092919081815260200182805461025690610518565b80156102a35780601f10610278576101008083540402835291602001916102a3565b820191906000526020600020905b81548152906001019060200180831161028657829003601f168201915b5050505050908060030160009054906101000a900460ff16905084565b60025481565b6000813590506102d58161058a565b92915050565b6000813590506102ea816105a1565b92915050565b60006020828403121561030257600080fd5b6000610310848285016102c6565b91505092915050565b60006020828403121561032b57600080fd5b6000610339848285016102db565b91505092915050565b6000806040838503121561035557600080fd5b6000610363858286016102db565b9250506020610374858286016102c6565b9150509250929050565b6103878161049d565b82525050565b610396816104af565b82525050565b60006103a782610481565b6103b1818561048c565b93506103c18185602086016104e5565b6103ca81610579565b840191505092915050565b6103de816104db565b82525050565b60006020820190506103f9600083018461037e565b92915050565b6000608082019050610414600083018761037e565b61042160208301866103d5565b8181036040830152610433818561039c565b9050610442606083018461038d565b95945050505050565b6000602082019050610460600083018461038d565b92915050565b600060208201905061047b60008301846103d5565b92915050565b600081519050919050565b600082825260208201905092915050565b60006104a8826104bb565b9050919050565b60008115159050919050565b600073ffffffffffffffffffffffffffffffffffffffff82169050919050565b6000819050919050565b60005b838110156105035780820151818401526020810190506104e8565b83811115610512576000848401525b50505050565b6000600282049050600182168061053057607f821691505b602082108114156105445761054361054a565b5b50919050565b7f4e487b7100000000000000000000000000000000000000000000000000000000600052602260045260246000fd5b6000601f19601f8301169050919050565b6105938161049d565b811461059e57600080fd5b50565b6105aa816104db565b81146105b557600080fd5b5056fea26469706673582212203eb8192f1b21b84d43b89fa95314946745face70c48571cfaeb769e22253443764736f6c63430008000033",
					"opcodes": "PUSH1 0x80 PUSH1 0x40 MSTORE CALLVALUE DUP1 ISZERO PUSH2 0x10 JUMPI PUSH1 0x0 DUP1 REVERT JUMPDEST POP PUSH2 0x5EE DUP1 PUSH2 0x20 PUSH1 0x0 CODECOPY PUSH1 0x0 RETURN INVALID PUSH1 0x80 PUSH1 0x40 MSTORE CALLVALUE DUP1 ISZERO PUSH2 0x10 JUMPI PUSH1 0x0 DUP1 REVERT JUMPDEST POP PUSH1 0x4 CALLDATASIZE LT PUSH2 0x57 JUMPI PUSH1 0x0 CALLDATALOAD PUSH1 0xE0 SHR DUP1 PUSH4 0x25E7C27 EQ PUSH2 0x5C JUMPI DUP1 PUSH4 0x2F54BF6E EQ PUSH2 0x8C JUMPI DUP1 PUSH4 0x8253951A EQ PUSH2 0xBC JUMPI DUP1 PUSH4 0x9ACE38C2 EQ PUSH2 0xEC JUMPI DUP1 PUSH4 0xDC8452CD EQ PUSH2 0x11F JUMPI JUMPDEST PUSH1 0x0 DUP1 REVERT JUMPDEST PUSH2 0x76 PUSH1 0x4 DUP1 CALLDATASIZE SUB DUP2 ADD SWAP1 PUSH2 0x71 SWAP2 SWAP1 PUSH2 0x319 JUMP JUMPDEST PUSH2 0x13D JUMP JUMPDEST PUSH1 0x40 MLOAD PUSH2 0x83 SWAP2 SWAP1 PUSH2 0x3E4 JUMP JUMPDEST PUSH1 0x40 MLOAD DUP1 SWAP2 SUB SWAP1 RETURN JUMPDEST PUSH2 0xA6 PUSH1 0x4 DUP1 CALLDATASIZE SUB DUP2 ADD SWAP1 PUSH2 0xA1 SWAP2 SWAP1 PUSH2 0x2F0 JUMP JUMPDEST PUSH2 0x17C JUMP JUMPDEST PUSH1 0x40 MLOAD PUSH2 0xB3 SWAP2 SWAP1 PUSH2 0x44B JUMP JUMPDEST PUSH1 0x40 MLOAD DUP1 SWAP2 SUB SWAP1 RETURN JUMPDEST PUSH2 0xD6 PUSH1 0x4 DUP1 CALLDATASIZE SUB DUP2 ADD SWAP1 PUSH2 0xD1 SWAP2 SWAP1 PUSH2 0x342 JUMP JUMPDEST PUSH2 0x19C JUMP JUMPDEST PUSH1 0x40 MLOAD PUSH2 0xE3 SWAP2 SWAP1 PUSH2 0x44B JUMP JUMPDEST PUSH1 0x40 MLOAD DUP1 SWAP2 SUB SWAP1 RETURN JUMPDEST PUSH2 0x106 PUSH1 0x4 DUP1 CALLDATASIZE SUB DUP2 ADD SWAP1 PUSH2 0x101 SWAP2 SWAP1 PUSH2 0x319 JUMP JUMPDEST PUSH2 0x1CB JUMP JUMPDEST PUSH1 0x40 MLOAD PUSH2 0x116 SWAP5 SWAP4 SWAP3 SWAP2 SWAP1 PUSH2 0x3FF JUMP JUMPDEST PUSH1 0x40 MLOAD DUP1 SWAP2 SUB SWAP1 RETURN JUMPDEST PUSH2 0x127 PUSH2 0x2C0 JUMP JUMPDEST PUSH1 0x40 MLOAD PUSH2 0x134 SWAP2 SWAP1 PUSH2 0x466 JUMP JUMPDEST PUSH1 0x40 MLOAD DUP1 SWAP2 SUB SWAP1 RETURN JUMPDEST PUSH1 0x1 DUP2 DUP2 SLOAD DUP2 LT PUSH2 0x14D JUMPI PUSH1 0x0 DUP1 REVERT JUMPDEST SWAP1 PUSH1 0x0 MSTORE PUSH1 0x20 PUSH1 0x0 KECCAK256 ADD PUSH1 0x0 SWAP2 POP SLOAD SWAP1 PUSH2 0x100 EXP SWAP1 DIV PUSH20 0xFFFFFFFFFFFFFFFFFFFFFFFFFFFFFFFFFFFFFFFF AND DUP2 JUMP JUMPDEST PUSH1 0x0 PUSH1 0x20 MSTORE DUP1 PUSH1 0x0 MSTORE PUSH1 0x40 PUSH1 0x0 KECCAK256 PUSH1 0x0 SWAP2 POP SLOAD SWAP1 PUSH2 0x100 EXP SWAP1 DIV PUSH1 0xFF AND DUP2 JUMP JUMPDEST PUSH1 0x4 PUSH1 0x20 MSTORE DUP2 PUSH1 0x0 MSTORE PUSH1 0x40 PUSH1 0x0 KECCAK256 PUSH1 0x20 MSTORE DUP1 PUSH1 0x0 MSTORE PUSH1 0x40 PUSH1 0x0 KECCAK256 PUSH1 0x0 SWAP2 POP SWAP2 POP SWAP1 SLOAD SWAP1 PUSH2 0x100 EXP SWAP1 DIV PUSH1 0xFF AND DUP2 JUMP JUMPDEST PUSH1 0x3 DUP2 DUP2 SLOAD DUP2 LT PUSH2 0x1DB JUMPI PUSH1 0x0 DUP1 REVERT JUMPDEST SWAP1 PUSH1 0x0 MSTORE PUSH1 0x20 PUSH1 0x0 KECCAK256 SWAP1 PUSH1 0x4 MUL ADD PUSH1 0x0 SWAP2 POP SWAP1 POP DUP1 PUSH1 0x0 ADD PUSH1 0x0 SWAP1 SLOAD SWAP1 PUSH2 0x100 EXP SWAP1 DIV PUSH20 0xFFFFFFFFFFFFFFFFFFFFFFFFFFFFFFFFFFFFFFFF AND SWAP1 DUP1 PUSH1 0x1 ADD SLOAD SWAP1 DUP1 PUSH1 0x2 ADD DUP1 SLOAD PUSH2 0x22A SWAP1 PUSH2 0x518 JUMP JUMPDEST DUP1 PUSH1 0x1F ADD PUSH1 0x20 DUP1 SWAP2 DIV MUL PUSH1 0x20 ADD PUSH1 0x40 MLOAD SWAP1 DUP2 ADD PUSH1 0x40 MSTORE DUP1 SWAP3 SWAP2 SWAP1 DUP2 DUP2 MSTORE PUSH1 0x20 ADD DUP3 DUP1 SLOAD PUSH2 0x256 SWAP1 PUSH2 0x518 JUMP JUMPDEST DUP1 ISZERO PUSH2 0x2A3 JUMPI DUP1 PUSH1 0x1F LT PUSH2 0x278 JUMPI PUSH2 0x100 DUP1 DUP4 SLOAD DIV MUL DUP4 MSTORE SWAP2 PUSH1 0x20 ADD SWAP2 PUSH2 0x2A3 JUMP JUMPDEST DUP3 ADD SWAP2 SWAP1 PUSH1 0x0 MSTORE PUSH1 0x20 PUSH1 0x0 KECCAK256 SWAP1 JUMPDEST DUP2 SLOAD DUP2 MSTORE SWAP1 PUSH1 0x1 ADD SWAP1 PUSH1 0x20 ADD DUP1 DUP4 GT PUSH2 0x286 JUMPI DUP3 SWAP1 SUB PUSH1 0x1F AND DUP3 ADD SWAP2 JUMPDEST POP POP POP POP POP SWAP1 DUP1 PUSH1 0x3 ADD PUSH1 0x0 SWAP1 SLOAD SWAP1 PUSH2 0x100 EXP SWAP1 DIV PUSH1 0xFF AND SWAP1 POP DUP5 JUMP JUMPDEST PUSH1 0x2 SLOAD DUP2 JUMP JUMPDEST PUSH1 0x0 DUP2 CALLDATALOAD SWAP1 POP PUSH2 0x2D5 DUP2 PUSH2 0x58A JUMP JUMPDEST SWAP3 SWAP2 POP POP JUMP JUMPDEST PUSH1 0x0 DUP2 CALLDATALOAD SWAP1 POP PUSH2 0x2EA DUP2 PUSH2 0x5A1 JUMP JUMPDEST SWAP3 SWAP2 POP POP JUMP JUMPDEST PUSH1 0x0 PUSH1 0x20 DUP3 DUP5 SUB SLT ISZERO PUSH2 0x302 JUMPI PUSH1 0x0 DUP1 REVERT JUMPDEST PUSH1 0x0 PUSH2 0x310 DUP5 DUP3 DUP6 ADD PUSH2 0x2C6 JUMP JUMPDEST SWAP2 POP POP SWAP3 SWAP2 POP POP JUMP JUMPDEST PUSH1 0x0 PUSH1 0x20 DUP3 DUP5 SUB SLT ISZERO PUSH2 0x32B JUMPI PUSH1 0x0 DUP1 REVERT JUMPDEST PUSH1 0x0 PUSH2 0x339 DUP5 DUP3 DUP6 ADD PUSH2 0x2DB JUMP JUMPDEST SWAP2 POP POP SWAP3 SWAP2 POP POP JUMP JUMPDEST PUSH1 0x0 DUP1 PUSH1 0x40 DUP4 DUP6 SUB SLT ISZERO PUSH2 0x355 JUMPI PUSH1 0x0 DUP1 REVERT JUMPDEST PUSH1 0x0 PUSH2 0x363 DUP6 DUP3 DUP7 ADD PUSH2 0x2DB JUMP JUMPDEST SWAP3 POP POP PUSH1 0x20 PUSH2 0x374 DUP6 DUP3 DUP7 ADD PUSH2 0x2C6 JUMP JUMPDEST SWAP2 POP POP SWAP3 POP SWAP3 SWAP1 POP JUMP JUMPDEST PUSH2 0x387 DUP2 PUSH2 0x49D JUMP JUMPDEST DUP3 MSTORE POP POP JUMP JUMPDEST PUSH2 0x396 DUP2 PUSH2 0x4AF JUMP JUMPDEST DUP3 MSTORE POP POP JUMP JUMPDEST PUSH1 0x0 PUSH2 0x3A7 DUP3 PUSH2 0x481 JUMP JUMPDEST PUSH2 0x3B1 DUP2 DUP6 PUSH2 0x48C JUMP JUMPDEST SWAP4 POP PUSH2 0x3C1 DUP2 DUP6 PUSH1 0x20 DUP7 ADD PUSH2 0x4E5 JUMP JUMPDEST PUSH2 0x3CA DUP2 PUSH2 0x579 JUMP JUMPDEST DUP5 ADD SWAP2 POP POP SWAP3 SWAP2 POP POP JUMP JUMPDEST PUSH2 0x3DE DUP2 PUSH2 0x4DB JUMP JUMPDEST DUP3 MSTORE POP POP JUMP JUMPDEST PUSH1 0x0 PUSH1 0x20 DUP3 ADD SWAP1 POP PUSH2 0x3F9 PUSH1 0x0 DUP4 ADD DUP5 PUSH2 0x37E JUMP JUMPDEST SWAP3 SWAP2 POP POP JUMP JUMPDEST PUSH1 0x0 PUSH1 0x80 DUP3 ADD SWAP1 POP PUSH2 0x414 PUSH1 0x0 DUP4 ADD DUP8 PUSH2 0x37E JUMP JUMPDEST PUSH2 0x421 PUSH1 0x20 DUP4 ADD DUP7 PUSH2 0x3D5 JUMP JUMPDEST DUP2 DUP2 SUB PUSH1 0x40 DUP4 ADD MSTORE PUSH2 0x433 DUP2 DUP6 PUSH2 0x39C JUMP JUMPDEST SWAP1 POP PUSH2 0x442 PUSH1 0x60 DUP4 ADD DUP5 PUSH2 0x38D JUMP JUMPDEST SWAP6 SWAP5 POP POP POP POP POP JUMP JUMPDEST PUSH1 0x0 PUSH1 0x20 DUP3 ADD SWAP1 POP PUSH2 0x460 PUSH1 0x0 DUP4 ADD DUP5 PUSH2 0x38D JUMP JUMPDEST SWAP3 SWAP2 POP POP JUMP JUMPDEST PUSH1 0x0 PUSH1 0x20 DUP3 ADD SWAP1 POP PUSH2 0x47B PUSH1 0x0 DUP4 ADD DUP5 PUSH2 0x3D5 JUMP JUMPDEST SWAP3 SWAP2 POP POP JUMP JUMPDEST PUSH1 0x0 DUP2 MLOAD SWAP1 POP SWAP2 SWAP1 POP JUMP JUMPDEST PUSH1 0x0 DUP3 DUP3 MSTORE PUSH1 0x20 DUP3 ADD SWAP1 POP SWAP3 SWAP2 POP POP JUMP JUMPDEST PUSH1 0x0 PUSH2 0x4A8 DUP3 PUSH2 0x4BB JUMP JUMPDEST SWAP1 POP SWAP2 SWAP1 POP JUMP JUMPDEST PUSH1 0x0 DUP2 ISZERO ISZERO SWAP1 POP SWAP2 SWAP1 POP JUMP JUMPDEST PUSH1 0x0 PUSH20 0xFFFFFFFFFFFFFFFFFFFFFFFFFFFFFFFFFFFFFFFF DUP3 AND SWAP1 POP SWAP2 SWAP1 POP JUMP JUMPDEST PUSH1 0x0 DUP2 SWAP1 POP SWAP2 SWAP1 POP JUMP JUMPDEST PUSH1 0x0 JUMPDEST DUP4 DUP2 LT ISZERO PUSH2 0x503 JUMPI DUP1 DUP3 ADD MLOAD DUP2 DUP5 ADD MSTORE PUSH1 0x20 DUP2 ADD SWAP1 POP PUSH2 0x4E8 JUMP JUMPDEST DUP4 DUP2 GT ISZERO PUSH2 0x512 JUMPI PUSH1 0x0 DUP5 DUP5 ADD MSTORE JUMPDEST POP POP POP POP JUMP JUMPDEST PUSH1 0x0 PUSH1 0x2 DUP3 DIV SWAP1 POP PUSH1 0x1 DUP3 AND DUP1 PUSH2 0x530 JUMPI PUSH1 0x7F DUP3 AND SWAP2 POP JUMPDEST PUSH1 0x20 DUP3 LT DUP2 EQ ISZERO PUSH2 0x544 JUMPI PUSH2 0x543 PUSH2 0x54A JUMP JUMPDEST JUMPDEST POP SWAP2 SWAP1 POP JUMP JUMPDEST PUSH32 0x4E487B7100000000000000000000000000000000000000000000000000000000 PUSH1 0x0 MSTORE PUSH1 0x22 PUSH1 0x4 MSTORE PUSH1 0x24 PUSH1 0x0 REVERT JUMPDEST PUSH1 0x0 PUSH1 0x1F NOT PUSH1 0x1F DUP4 ADD AND SWAP1 POP SWAP2 SWAP1 POP JUMP JUMPDEST PUSH2 0x593 DUP2 PUSH2 0x49D JUMP JUMPDEST DUP2 EQ PUSH2 0x59E JUMPI PUSH1 0x0 DUP1 REVERT JUMPDEST POP JUMP JUMPDEST PUSH2 0x5AA DUP2 PUSH2 0x4DB JUMP JUMPDEST DUP2 EQ PUSH2 0x5B5 JUMPI PUSH1 0x0 DUP1 REVERT JUMPDEST POP JUMP INVALID LOG2 PUSH5 0x6970667358 0x22 SLT KECCAK256 RETURNDATACOPY 0xB8 NOT 0x2F SHL 0x21 0xB8 0x4D NUMBER 0xB8 SWAP16 0xA9 MSTORE8 EQ SWAP5 PUSH8 0x45FACE70C48571CF 0xAE 0xB7 PUSH10 0xE22253443764736F6C63 NUMBER STOP ADDMOD STOP STOP CALLER "
				},
				"gasEstimates": {
					"creation": {
						"codeDepositCost": "303600",
						"executionCost": "343",
						"totalCost": "303943"
					},
					"external": {
						"approved(uint256,address)": "1809",
						"isOwner(address)": "1545",
						"owners(uint256)": "2334",
						"required()": "1195",
						"transactions(uint256)": "infinite"
					}
				},
				"methodIdentifiers": {
					"approved(uint256,address)": "8253951a",
					"isOwner(address)": "2f54bf6e",
					"owners(uint256)": "025e7c27",
					"required()": "dc8452cd",
					"transactions(uint256)": "9ace38c2"
				}
			},
			"storageLayout": {
				"storage": [
					{
						"astId": 32,
						"contract": "MultiSigWallet/MultiSigWallet.sol:MultisigModifiers",
						"label": "isOwner",
						"offset": 0,
						"slot": "0",
						"type": "t_mapping(t_address,t_bool)"
					},
					{
						"astId": 35,
						"contract": "MultiSigWallet/MultiSigWallet.sol:MultisigModifiers",
						"label": "owners",
						"offset": 0,
						"slot": "1",
						"type": "t_array(t_address)dyn_storage"
					},
					{
						"astId": 37,
						"contract": "MultiSigWallet/MultiSigWallet.sol:MultisigModifiers",
						"label": "required",
						"offset": 0,
						"slot": "2",
						"type": "t_uint256"
					},
					{
						"astId": 50,
						"contract": "MultiSigWallet/MultiSigWallet.sol:MultisigModifiers",
						"label": "transactions",
						"offset": 0,
						"slot": "3",
						"type": "t_array(t_struct(Transaction)46_storage)dyn_storage"
					},
					{
						"astId": 56,
						"contract": "MultiSigWallet/MultiSigWallet.sol:MultisigModifiers",
						"label": "approved",
						"offset": 0,
						"slot": "4",
						"type": "t_mapping(t_uint256,t_mapping(t_address,t_bool))"
					}
				],
				"types": {
					"t_address": {
						"encoding": "inplace",
						"label": "address",
						"numberOfBytes": "20"
					},
					"t_array(t_address)dyn_storage": {
						"base": "t_address",
						"encoding": "dynamic_array",
						"label": "address[]",
						"numberOfBytes": "32"
					},
					"t_array(t_struct(Transaction)46_storage)dyn_storage": {
						"base": "t_struct(Transaction)46_storage",
						"encoding": "dynamic_array",
						"label": "struct MultisigModifiers.Transaction[]",
						"numberOfBytes": "32"
					},
					"t_bool": {
						"encoding": "inplace",
						"label": "bool",
						"numberOfBytes": "1"
					},
					"t_bytes_storage": {
						"encoding": "bytes",
						"label": "bytes",
						"numberOfBytes": "32"
					},
					"t_mapping(t_address,t_bool)": {
						"encoding": "mapping",
						"key": "t_address",
						"label": "mapping(address => bool)",
						"numberOfBytes": "32",
						"value": "t_bool"
					},
					"t_mapping(t_uint256,t_mapping(t_address,t_bool))": {
						"encoding": "mapping",
						"key": "t_uint256",
						"label": "mapping(uint256 => mapping(address => bool))",
						"numberOfBytes": "32",
						"value": "t_mapping(t_address,t_bool)"
					},
					"t_struct(Transaction)46_storage": {
						"encoding": "inplace",
						"label": "struct MultisigModifiers.Transaction",
						"members": [
							{
								"astId": 39,
								"contract": "MultiSigWallet/MultiSigWallet.sol:MultisigModifiers",
								"label": "to",
								"offset": 0,
								"slot": "0",
								"type": "t_address"
							},
							{
								"astId": 41,
								"contract": "MultiSigWallet/MultiSigWallet.sol:MultisigModifiers",
								"label": "value",
								"offset": 0,
								"slot": "1",
								"type": "t_uint256"
							},
							{
								"astId": 43,
								"contract": "MultiSigWallet/MultiSigWallet.sol:MultisigModifiers",
								"label": "data",
								"offset": 0,
								"slot": "2",
								"type": "t_bytes_storage"
							},
							{
								"astId": 45,
								"contract": "MultiSigWallet/MultiSigWallet.sol:MultisigModifiers",
								"label": "executed",
								"offset": 0,
								"slot": "3",
								"type": "t_bool"
							}
						],
						"numberOfBytes": "128"
					},
					"t_uint256": {
						"encoding": "inplace",
						"label": "uint256",
						"numberOfBytes": "32"
					}
				}
			},
			"userdoc": {
				"kind": "user",
				"methods": {},
				"version": 1
			}
		}
	}
}